{
  "_format": "hh-sol-artifact-1",
  "contractName": "LandRecords",
  "sourceName": "contracts/LandRecords.sol",
  "abi": [
    {
      "inputs": [],
      "stateMutability": "nonpayable",
      "type": "constructor"
    },
    {
      "inputs": [
        {
          "internalType": "string",
          "name": "city",
          "type": "string"
        }
      ],
      "name": "ReturnAllUserDetails",
      "outputs": [
        {
          "components": [
            {
              "internalType": "uint256",
              "name": "id",
              "type": "uint256"
            },
            {
              "internalType": "string",
              "name": "name",
              "type": "string"
            },
            {
              "internalType": "string",
              "name": "email",
              "type": "string"
            },
            {
              "internalType": "address",
              "name": "_userAddress",
              "type": "address"
            },
            {
              "internalType": "uint256",
              "name": "age",
              "type": "uint256"
            },
            {
              "internalType": "string",
              "name": "city",
              "type": "string"
            },
            {
              "internalType": "string",
              "name": "document",
              "type": "string"
            },
            {
              "internalType": "string",
              "name": "aadharCard",
              "type": "string"
            },
            {
              "internalType": "string",
              "name": "panCard",
              "type": "string"
            },
            {
              "internalType": "bool",
              "name": "isVerified",
              "type": "bool"
            }
          ],
          "internalType": "struct LandRecords.user[]",
          "name": "",
          "type": "tuple[]"
        }
      ],
      "stateMutability": "view",
      "type": "function"
    },
    {
      "inputs": [
        {
          "internalType": "address",
          "name": "id",
          "type": "address"
        }
      ],
      "name": "ReturnUser",
      "outputs": [
        {
          "components": [
            {
              "internalType": "uint256",
              "name": "id",
              "type": "uint256"
            },
            {
              "internalType": "string",
              "name": "name",
              "type": "string"
            },
            {
              "internalType": "string",
              "name": "email",
              "type": "string"
            },
            {
              "internalType": "address",
              "name": "_userAddress",
              "type": "address"
            },
            {
              "internalType": "uint256",
              "name": "age",
              "type": "uint256"
            },
            {
              "internalType": "string",
              "name": "city",
              "type": "string"
            },
            {
              "internalType": "string",
              "name": "document",
              "type": "string"
            },
            {
              "internalType": "string",
              "name": "aadharCard",
              "type": "string"
            },
            {
              "internalType": "string",
              "name": "panCard",
              "type": "string"
            },
            {
              "internalType": "bool",
              "name": "isVerified",
              "type": "bool"
            }
          ],
          "internalType": "struct LandRecords.user",
          "name": "",
          "type": "tuple"
        }
      ],
      "stateMutability": "view",
      "type": "function"
    },
    {
      "inputs": [
        {
          "internalType": "uint256",
          "name": "_requestId",
          "type": "uint256"
        }
      ],
      "name": "acceptRequest",
      "outputs": [],
      "stateMutability": "nonpayable",
      "type": "function"
    },
    {
      "inputs": [
        {
          "internalType": "uint256",
          "name": "_area",
          "type": "uint256"
        },
        {
          "internalType": "string",
          "name": "_address",
          "type": "string"
        },
        {
          "internalType": "uint256",
          "name": "_landPrice",
          "type": "uint256"
        },
        {
          "internalType": "string",
          "name": "_allLatitudeLongitude",
          "type": "string"
        },
        {
          "internalType": "uint256",
          "name": "_propertyPID",
          "type": "uint256"
        },
        {
          "internalType": "string",
          "name": "_surveyNum",
          "type": "string"
        },
        {
          "internalType": "string",
          "name": "_document",
          "type": "string"
        },
        {
          "internalType": "string",
          "name": "_picture",
          "type": "string"
        }
      ],
      "name": "addLand",
      "outputs": [],
      "stateMutability": "nonpayable",
      "type": "function"
    },
    {
      "inputs": [
        {
          "internalType": "address",
          "name": "_address",
          "type": "address"
        },
        {
          "internalType": "string",
          "name": "_name",
          "type": "string"
        },
        {
          "internalType": "uint256",
          "name": "_age",
          "type": "uint256"
        },
        {
          "internalType": "string",
          "name": "_designation",
          "type": "string"
        },
        {
          "internalType": "string",
          "name": "_city",
          "type": "string"
        }
      ],
      "name": "addLandInspector",
      "outputs": [
        {
          "internalType": "bool",
          "name": "",
          "type": "bool"
        }
      ],
      "stateMutability": "nonpayable",
      "type": "function"
    },
    {
      "inputs": [
        {
          "internalType": "address",
          "name": "",
          "type": "address"
        }
      ],
      "name": "addressToInspector",
      "outputs": [
        {
          "internalType": "uint256",
          "name": "id",
          "type": "uint256"
        },
        {
          "internalType": "address",
          "name": "_inspectorAddress",
          "type": "address"
        },
        {
          "internalType": "string",
          "name": "name",
          "type": "string"
        },
        {
          "internalType": "uint256",
          "name": "age",
          "type": "uint256"
        },
        {
          "internalType": "string",
          "name": "designation",
          "type": "string"
        },
        {
          "internalType": "string",
          "name": "city",
          "type": "string"
        }
      ],
      "stateMutability": "view",
      "type": "function"
    },
    {
      "inputs": [
        {
          "internalType": "address",
          "name": "",
          "type": "address"
        }
      ],
      "name": "addressToUser",
      "outputs": [
        {
          "internalType": "uint256",
          "name": "id",
          "type": "uint256"
        },
        {
          "internalType": "string",
          "name": "name",
          "type": "string"
        },
        {
          "internalType": "string",
          "name": "email",
          "type": "string"
        },
        {
          "internalType": "address",
          "name": "_userAddress",
          "type": "address"
        },
        {
          "internalType": "uint256",
          "name": "age",
          "type": "uint256"
        },
        {
          "internalType": "string",
          "name": "city",
          "type": "string"
        },
        {
          "internalType": "string",
          "name": "document",
          "type": "string"
        },
        {
          "internalType": "string",
          "name": "aadharCard",
          "type": "string"
        },
        {
          "internalType": "string",
          "name": "panCard",
          "type": "string"
        },
        {
          "internalType": "bool",
          "name": "isVerified",
          "type": "bool"
        }
      ],
      "stateMutability": "view",
      "type": "function"
    },
    {
      "inputs": [
        {
          "internalType": "address",
          "name": "_address",
          "type": "address"
        }
      ],
      "name": "changeContractOwner",
      "outputs": [],
      "stateMutability": "nonpayable",
      "type": "function"
    },
    {
      "inputs": [
        {
          "internalType": "address",
          "name": "_address",
          "type": "address"
        }
      ],
      "name": "isContractOwner",
      "outputs": [
        {
          "internalType": "bool",
          "name": "",
          "type": "bool"
        }
      ],
      "stateMutability": "view",
      "type": "function"
    },
    {
      "inputs": [
        {
          "internalType": "address",
          "name": "_id",
          "type": "address"
        }
      ],
      "name": "isLandInspector",
      "outputs": [
        {
          "internalType": "bool",
          "name": "",
          "type": "bool"
        }
      ],
      "stateMutability": "view",
      "type": "function"
    },
    {
      "inputs": [
        {
          "internalType": "uint256",
          "name": "id",
          "type": "uint256"
        }
      ],
      "name": "isLandVerified",
      "outputs": [
        {
          "internalType": "bool",
          "name": "",
          "type": "bool"
        }
      ],
      "stateMutability": "view",
      "type": "function"
    },
    {
      "inputs": [
        {
          "internalType": "address",
          "name": "_addr",
          "type": "address"
        }
      ],
      "name": "isUserRegistered",
      "outputs": [
        {
          "internalType": "bool",
          "name": "",
          "type": "bool"
        }
      ],
      "stateMutability": "view",
      "type": "function"
    },
    {
      "inputs": [
        {
          "internalType": "address",
          "name": "id",
          "type": "address"
        }
      ],
      "name": "isUserVerified",
      "outputs": [
        {
          "internalType": "bool",
          "name": "",
          "type": "bool"
        }
      ],
      "stateMutability": "view",
      "type": "function"
    },
    {
      "inputs": [
        {
          "internalType": "uint256",
          "name": "id",
          "type": "uint256"
        }
      ],
      "name": "landPrice",
      "outputs": [
        {
          "internalType": "uint256",
          "name": "",
          "type": "uint256"
        }
      ],
      "stateMutability": "view",
      "type": "function"
    },
    {
      "inputs": [
        {
          "internalType": "uint256",
          "name": "",
          "type": "uint256"
        }
      ],
      "name": "landRequest",
      "outputs": [
        {
          "internalType": "uint256",
          "name": "reqId",
          "type": "uint256"
        },
        {
          "internalType": "address payable",
          "name": "sellerId",
          "type": "address"
        },
        {
          "internalType": "address payable",
          "name": "buyerId",
          "type": "address"
        },
        {
          "internalType": "uint256",
          "name": "landId",
          "type": "uint256"
        },
        {
          "internalType": "enum LandRecords.reqStatus",
          "name": "requestStatus",
          "type": "uint8"
        },
        {
          "internalType": "bool",
          "name": "isPaymentDone",
          "type": "bool"
        }
      ],
      "stateMutability": "view",
      "type": "function"
    },
    {
      "inputs": [
        {
          "internalType": "uint256",
          "name": "",
          "type": "uint256"
        }
      ],
      "name": "lands",
      "outputs": [
        {
          "internalType": "uint256",
          "name": "id",
          "type": "uint256"
        },
        {
          "internalType": "uint256",
          "name": "landArea",
          "type": "uint256"
        },
        {
          "internalType": "string",
          "name": "landAddress",
          "type": "string"
        },
        {
          "internalType": "uint256",
          "name": "landPrice",
          "type": "uint256"
        },
        {
          "internalType": "string",
          "name": "allLatitudeLongitude",
          "type": "string"
        },
        {
          "internalType": "uint256",
          "name": "propertyPID",
          "type": "uint256"
        },
        {
          "internalType": "string",
          "name": "surveyNumber",
          "type": "string"
        },
        {
          "internalType": "string",
          "name": "landDocument",
          "type": "string"
        },
        {
          "internalType": "string",
          "name": "landPicture",
          "type": "string"
        },
        {
          "internalType": "bool",
          "name": "isForSell",
          "type": "bool"
        },
        {
          "internalType": "address payable",
          "name": "landOwner",
          "type": "address"
        },
        {
          "internalType": "bool",
          "name": "isLandVerified",
          "type": "bool"
        }
      ],
      "stateMutability": "view",
      "type": "function"
    },
    {
      "inputs": [
        {
          "internalType": "uint256",
          "name": "id",
          "type": "uint256"
        }
      ],
      "name": "makeItNotforSell",
      "outputs": [],
      "stateMutability": "nonpayable",
      "type": "function"
    },
    {
      "inputs": [
        {
          "internalType": "uint256",
          "name": "id",
          "type": "uint256"
        }
      ],
      "name": "makeItforSell",
      "outputs": [],
      "stateMutability": "nonpayable",
      "type": "function"
    },
    {
      "inputs": [
        {
          "internalType": "uint256",
          "name": "_requestId",
          "type": "uint256"
        }
      ],
      "name": "makePayment",
      "outputs": [],
      "stateMutability": "payable",
      "type": "function"
    },
    {
      "inputs": [
        {
          "internalType": "address payable",
          "name": "_receiver",
          "type": "address"
        }
      ],
      "name": "makePaymentTestFun",
      "outputs": [],
      "stateMutability": "payable",
      "type": "function"
    },
    {
      "inputs": [
        {
          "internalType": "address",
          "name": "id",
          "type": "address"
        }
      ],
      "name": "myAllLands",
      "outputs": [
        {
          "internalType": "uint256[]",
          "name": "",
          "type": "uint256[]"
        }
      ],
      "stateMutability": "view",
      "type": "function"
    },
    {
      "inputs": [
        {
          "internalType": "address",
          "name": "id",
          "type": "address"
        }
      ],
      "name": "myAllLandsDetails",
      "outputs": [
        {
          "components": [
            {
              "internalType": "uint256",
              "name": "id",
              "type": "uint256"
            },
            {
              "internalType": "uint256",
              "name": "landArea",
              "type": "uint256"
            },
            {
              "internalType": "string",
              "name": "landAddress",
              "type": "string"
            },
            {
              "internalType": "uint256",
              "name": "landPrice",
              "type": "uint256"
            },
            {
              "internalType": "string",
              "name": "allLatitudeLongitude",
              "type": "string"
            },
            {
              "internalType": "uint256",
              "name": "propertyPID",
              "type": "uint256"
            },
            {
              "internalType": "string",
              "name": "surveyNumber",
              "type": "string"
            },
            {
              "internalType": "string",
              "name": "landDocument",
              "type": "string"
            },
            {
              "internalType": "string",
              "name": "landPicture",
              "type": "string"
            },
            {
              "internalType": "bool",
              "name": "isForSell",
              "type": "bool"
            },
            {
              "internalType": "address payable",
              "name": "landOwner",
              "type": "address"
            },
            {
              "internalType": "bool",
              "name": "isLandVerified",
              "type": "bool"
            }
          ],
          "internalType": "struct LandRecords.Land[]",
          "name": "",
          "type": "tuple[]"
        }
      ],
      "stateMutability": "view",
      "type": "function"
    },
    {
      "inputs": [],
      "name": "myReceivedLandRequests",
      "outputs": [
        {
          "internalType": "uint256[]",
          "name": "",
          "type": "uint256[]"
        }
      ],
      "stateMutability": "view",
      "type": "function"
    },
    {
      "inputs": [],
      "name": "mySentLandRequests",
      "outputs": [
        {
          "internalType": "uint256[]",
          "name": "",
          "type": "uint256[]"
        }
      ],
      "stateMutability": "view",
      "type": "function"
    },
    {
      "inputs": [
        {
          "internalType": "string",
          "name": "_name",
          "type": "string"
        },
        {
          "internalType": "string",
          "name": "_email",
          "type": "string"
        },
        {
          "internalType": "uint256",
          "name": "_age",
          "type": "uint256"
        },
        {
          "internalType": "string",
          "name": "_city",
          "type": "string"
        },
        {
          "internalType": "string",
          "name": "_aadharNumber",
          "type": "string"
        },
        {
          "internalType": "string",
          "name": "_panNumber",
          "type": "string"
        },
        {
          "internalType": "string",
          "name": "_document",
          "type": "string"
        }
      ],
      "name": "registerNewUser",
      "outputs": [],
      "stateMutability": "nonpayable",
      "type": "function"
    },
    {
      "inputs": [
        {
          "internalType": "uint256",
          "name": "_requestId",
          "type": "uint256"
        }
      ],
      "name": "rejectRequest",
      "outputs": [],
      "stateMutability": "nonpayable",
      "type": "function"
    },
    {
      "inputs": [
        {
          "internalType": "address",
          "name": "_adrs",
          "type": "address"
        }
      ],
      "name": "removeLandInspector",
      "outputs": [],
      "stateMutability": "nonpayable",
      "type": "function"
    },
    {
      "inputs": [
        {
          "internalType": "uint256",
          "name": "id",
          "type": "uint256"
        }
      ],
      "name": "requestStatus",
      "outputs": [
        {
          "internalType": "bool",
          "name": "",
          "type": "bool"
        }
      ],
      "stateMutability": "view",
      "type": "function"
    },
    {
      "inputs": [
        {
          "internalType": "uint256",
          "name": "_landId",
          "type": "uint256"
        }
      ],
      "name": "requestforBuy",
      "outputs": [],
      "stateMutability": "nonpayable",
      "type": "function"
    },
    {
      "inputs": [],
      "name": "returnAllLandInspectorsDetails",
      "outputs": [
        {
          "components": [
            {
              "internalType": "uint256",
              "name": "id",
              "type": "uint256"
            },
            {
              "internalType": "address",
              "name": "_inspectorAddress",
              "type": "address"
            },
            {
              "internalType": "string",
              "name": "name",
              "type": "string"
            },
            {
              "internalType": "uint256",
              "name": "age",
              "type": "uint256"
            },
            {
              "internalType": "string",
              "name": "designation",
              "type": "string"
            },
            {
              "internalType": "string",
              "name": "city",
              "type": "string"
            }
          ],
          "internalType": "struct LandRecords.landInspector[]",
          "name": "",
          "type": "tuple[]"
        }
      ],
      "stateMutability": "view",
      "type": "function"
    },
    {
      "inputs": [],
      "name": "returnAllLands",
      "outputs": [
        {
          "components": [
            {
              "internalType": "uint256",
              "name": "id",
              "type": "uint256"
            },
            {
              "internalType": "uint256",
              "name": "landArea",
              "type": "uint256"
            },
            {
              "internalType": "string",
              "name": "landAddress",
              "type": "string"
            },
            {
              "internalType": "uint256",
              "name": "landPrice",
              "type": "uint256"
            },
            {
              "internalType": "string",
              "name": "allLatitudeLongitude",
              "type": "string"
            },
            {
              "internalType": "uint256",
              "name": "propertyPID",
              "type": "uint256"
            },
            {
              "internalType": "string",
              "name": "surveyNumber",
              "type": "string"
            },
            {
              "internalType": "string",
              "name": "landDocument",
              "type": "string"
            },
            {
              "internalType": "string",
              "name": "landPicture",
              "type": "string"
            },
            {
              "internalType": "bool",
              "name": "isForSell",
              "type": "bool"
            },
            {
              "internalType": "address payable",
              "name": "landOwner",
              "type": "address"
            },
            {
              "internalType": "bool",
              "name": "isLandVerified",
              "type": "bool"
            }
          ],
          "internalType": "struct LandRecords.Land[]",
          "name": "",
          "type": "tuple[]"
        }
      ],
      "stateMutability": "view",
      "type": "function"
    },
    {
      "inputs": [
        {
          "internalType": "address",
          "name": "_adrs",
          "type": "address"
        }
      ],
      "name": "returnLandInspector",
      "outputs": [
        {
          "components": [
            {
              "internalType": "uint256",
              "name": "id",
              "type": "uint256"
            },
            {
              "internalType": "address",
              "name": "_inspectorAddress",
              "type": "address"
            },
            {
              "internalType": "string",
              "name": "name",
              "type": "string"
            },
            {
              "internalType": "uint256",
              "name": "age",
              "type": "uint256"
            },
            {
              "internalType": "string",
              "name": "designation",
              "type": "string"
            },
            {
              "internalType": "string",
              "name": "city",
              "type": "string"
            }
          ],
          "internalType": "struct LandRecords.landInspector",
          "name": "",
          "type": "tuple"
        }
      ],
      "stateMutability": "view",
      "type": "function"
    },
    {
      "inputs": [],
      "name": "totalLandsCount",
      "outputs": [
        {
          "internalType": "uint256",
          "name": "",
          "type": "uint256"
        }
      ],
      "stateMutability": "view",
      "type": "function"
    },
    {
      "inputs": [],
      "name": "totalUsersCount",
      "outputs": [
        {
          "internalType": "uint256",
          "name": "",
          "type": "uint256"
        }
      ],
      "stateMutability": "view",
      "type": "function"
    },
    {
      "inputs": [],
      "name": "transferCount",
      "outputs": [
        {
          "internalType": "uint256",
          "name": "",
          "type": "uint256"
        }
      ],
      "stateMutability": "view",
      "type": "function"
    },
    {
      "inputs": [
        {
          "internalType": "uint256",
          "name": "_requestId",
          "type": "uint256"
        },
        {
          "internalType": "string",
          "name": "documentUrl",
          "type": "string"
        }
      ],
      "name": "transferOwnership",
      "outputs": [
        {
          "internalType": "bool",
          "name": "",
          "type": "bool"
        }
      ],
      "stateMutability": "nonpayable",
      "type": "function"
    },
    {
      "inputs": [
        {
          "internalType": "uint256",
          "name": "_id",
          "type": "uint256"
        }
      ],
      "name": "verifyLand",
      "outputs": [],
      "stateMutability": "nonpayable",
      "type": "function"
    },
    {
      "inputs": [
        {
          "internalType": "address",
          "name": "_userId",
          "type": "address"
        }
      ],
      "name": "verifyUser",
      "outputs": [],
      "stateMutability": "nonpayable",
      "type": "function"
    }
  ],
  "bytecode": "0x608060405234801561001057600080fd5b50600080546001600160a01b031916331790556146d5806100326000396000f3fe6080604052600436106102255760003560e01c80639c32e3b411610123578063db203b7f116100ab578063e3d33fc91161006f578063e3d33fc91461074a578063edf5388614610760578063f4910c2814610796578063f9c43bdf146107ac578063fa024549146107cc57600080fd5b8063db203b7f1461068f578063de117688146106a5578063e0bf5439146106c5578063e165af87146106f2578063e261f1e51461071257600080fd5b8063c26e11eb116100f2578063c26e11eb146105d1578063c6dcdc37146105f1578063d196ebf214610611578063d3b368c014610631578063d72ca9ec1461065157600080fd5b80639c32e3b41461052b578063a18cb9e214610540578063a519e91014610562578063ace417e01461059457600080fd5b80634cc25cbe116101b157806376d6180b1161017557806376d6180b146104895780638b1751d2146104b657806394cffc5c146104e3578063995a8d96146105035780639bf3d2a71461051657600080fd5b80634cc25cbe146103885780634d813120146103fc5780635114cb521461041c5780636cbf6cf81461042f5780637517e00f1461046957600080fd5b80633ead67b5116101f85780633ead67b5146102d9578063416f958f146102f957806345adac3914610319578063499701b2146103465780634ba1f0981461036857600080fd5b8063163f75221461022a5780631a3132021461025f5780632653dbda146102975780632d7788db146102b9575b600080fd5b34801561023657600080fd5b5061024a610245366004613ad3565b6107ec565b60405190151581526020015b60405180910390f35b34801561026b57600080fd5b5061024a61027a366004613af7565b6000908152600f6020526040902060040154610100900460ff1690565b3480156102a357600080fd5b506102b76102b2366004613bb3565b61081d565b005b3480156102c557600080fd5b506102b76102d4366004613af7565b610a3a565b3480156102e557600080fd5b506102b76102f4366004613ad3565b610a87565b34801561030557600080fd5b506102b7610314366004613cb3565b610b08565b34801561032557600080fd5b50610339610334366004613ad3565b610d3c565b6040516102569190613dfe565b34801561035257600080fd5b5061035b61117e565b6040516102569190613f38565b34801561037457600080fd5b506102b7610383366004613af7565b6111df565b34801561039457600080fd5b506103ea6103a3366004613af7565b600f602052600090815260409020805460018201546002830154600384015460049094015492936001600160a01b0392831693929091169160ff8082169161010090041686565b60405161025696959493929190613f92565b34801561040857600080fd5b506102b7610417366004613ad3565b611227565b6102b761042a366004613af7565b611261565b34801561043b57600080fd5b5061024a61044a366004613af7565b6000908152600e6020526040902060090154600160a81b900460ff1690565b34801561047557600080fd5b506102b7610484366004613ad3565b61139d565b34801561049557600080fd5b506104a96104a4366004613fee565b611600565b6040516102569190614115565b3480156104c257600080fd5b506104d66104d1366004613ad3565b611b9e565b60405161025691906141e5565b3480156104ef57600080fd5b506102b76104fe366004613af7565b611da9565b6102b7610511366004613ad3565b611def565b34801561052257600080fd5b50610339611e28565b34801561053757600080fd5b5061035b612293565b34801561054c57600080fd5b506105556122f2565b60405161025691906141f8565b34801561056e57600080fd5b5061058261057d366004613ad3565b6125dc565b6040516102569695949392919061424d565b3480156105a057600080fd5b5061024a6105af366004613ad3565b6001600160a01b03166000908152600960208190526040909120015460ff1690565b3480156105dd57600080fd5b506102b76105ec366004613af7565b6127b3565b3480156105fd57600080fd5b5061024a61060c3660046142b0565b6127fc565b34801561061d57600080fd5b5061035b61062c366004613ad3565b61298f565b34801561063d57600080fd5b506102b761064c366004613af7565b6129fb565b34801561065d57600080fd5b5061068161066c366004613af7565b6000908152600e602052604090206003015490565b604051908152602001610256565b34801561069b57600080fd5b5061068160025481565b3480156106b157600080fd5b5061024a6106c0366004613ad3565b612b93565b3480156106d157600080fd5b506106e56106e0366004613ad3565b612bb2565b6040516102569190614355565b3480156106fe57600080fd5b5061024a61070d366004613ad3565b612f8c565b34801561071e57600080fd5b5061073261072d366004613af7565b612fb5565b6040516102569c9b9a99989796959493929190614368565b34801561075657600080fd5b5061068160045481565b34801561076c57600080fd5b5061078061077b366004613ad3565b6132c8565b6040516102569a99989796959493929190614421565b3480156107a257600080fd5b5061068160035481565b3480156107b857600080fd5b506102b76107c7366004613af7565b613656565b3480156107d857600080fd5b5061024a6107e73660046144d1565b61368c565b6001600160a01b0381166000908152600c602052604081205460ff161561081557506001919050565b506000919050565b336000908152600c602052604090205460ff161561083a57600080fd5b336000908152600c60205260408120805460ff1916600117905560028054916108628361452e565b90915550507f72c6bfb7988af3a1efa6568f02a999bc52252641c659d85961ca3d372b57d5cf805460018082019092557ffc2858506235d5502cafdfae2dcc7804b97258f4d77357c39b0f2a32aa2e6a50018054336001600160a01b03199182168117909255600280546000908152600a6020908152604080832080549095168617909455835161014081018552925483528281018d81528385018d905260608401869052608084018c905260a084018b905260c0840188905260e084018a90526101008401899052610120840183905294825260098152929020815181559251805191946109579390850192910190613917565b5060408201518051610973916002840191602090910190613917565b5060608201516003820180546001600160a01b0319166001600160a01b039092169190911790556080820151600482015560a082015180516109bf916005840191602090910190613917565b5060c082015180516109db916006840191602090910190613917565b5060e082015180516109f7916007840191602090910190613917565b506101008201518051610a14916008840191602090910190613917565b5061012091909101516009909101805460ff191691151591909117905550505050505050565b6000818152600f60205260409020600101546001600160a01b03163314610a6057600080fd5b6000818152600f6020526040902060040180546002919060ff19166001835b021790555050565b6000546001600160a01b03163314610ae65760405162461bcd60e51b815260206004820152601960248201527f796f7520617265206e6f7420636f6e74726163744f776e65720000000000000060448201526064015b60405180910390fd5b600080546001600160a01b0319166001600160a01b0392909216919091179055565b336000908152600960208190526040909120015460ff16610b2857600080fd5b60038054906000610b388361452e565b9091555050604080516101808101825260035480825260208083018c81528385018c8152606085018c9052608085018b905260a085018a905260c0850189905260e08501889052610100850187905260006101208601819052336101408701526101608601819052938452600e83529490922083518155915160018301559251805192939192610bce9260028501920190613917565b506060820151600382015560808201518051610bf4916004840191602090910190613917565b5060a0820151600582015560c08201518051610c1a916006840191602090910190613917565b5060e08201518051610c36916007840191602090910190613917565b506101008201518051610c53916008840191602090910190613917565b5061012082015160099091018054610140840151610160909401511515600160a81b0260ff60a81b196001600160a01b0390951661010002610100600160a81b0319941515949094166001600160a81b03199092169190911792909217929092161790555050336000908152600d602090815260408220600380548254600181810185559386528486200155601290925290547f71a67924699a20698523213e55fe499d539379d7769cd5567e2c45d583f815a3805492830181559092527f09d3634ec98b7a093f4c560246b0e10c09e0e06c46ca9be08ca93e6cf08d8d130155505050505050565b6001600160a01b0381166000908152600d60205260408120546060918167ffffffffffffffff811115610d7157610d71613b10565b604051908082528060200260200182016040528015610daa57816020015b610d9761399b565b815260200190600190039081610d8f5790505b50905060005b82811015611176576001600160a01b0385166000908152600d602052604081208054600e92919084908110610de757610de7614549565b90600052602060002001548152602001908152602001600020604051806101800160405290816000820154815260200160018201548152602001600282018054610e309061455f565b80601f0160208091040260200160405190810160405280929190818152602001828054610e5c9061455f565b8015610ea95780601f10610e7e57610100808354040283529160200191610ea9565b820191906000526020600020905b815481529060010190602001808311610e8c57829003601f168201915b5050505050815260200160038201548152602001600482018054610ecc9061455f565b80601f0160208091040260200160405190810160405280929190818152602001828054610ef89061455f565b8015610f455780601f10610f1a57610100808354040283529160200191610f45565b820191906000526020600020905b815481529060010190602001808311610f2857829003601f168201915b5050505050815260200160058201548152602001600682018054610f689061455f565b80601f0160208091040260200160405190810160405280929190818152602001828054610f949061455f565b8015610fe15780601f10610fb657610100808354040283529160200191610fe1565b820191906000526020600020905b815481529060010190602001808311610fc457829003601f168201915b50505050508152602001600782018054610ffa9061455f565b80601f01602080910402602001604051908101604052809291908181526020018280546110269061455f565b80156110735780601f1061104857610100808354040283529160200191611073565b820191906000526020600020905b81548152906001019060200180831161105657829003601f168201915b5050505050815260200160088201805461108c9061455f565b80601f01602080910402602001604051908101604052809291908181526020018280546110b89061455f565b80156111055780601f106110da57610100808354040283529160200191611105565b820191906000526020600020905b8154815290600101906020018083116110e857829003601f168201915b50505091835250506009919091015460ff808216151560208401526001600160a01b036101008304166040840152600160a81b909104161515606090910152825183908390811061115857611158614549565b6020026020010181905250808061116e9061452e565b915050610db0565b509392505050565b336000908152601060209081526040918290208054835181840281018401909452808452606093928301828280156111d557602002820191906000526020600020905b8154815260200190600101908083116111c1575b5050505050905090565b6000818152600f60205260409020600101546001600160a01b0316331461120557600080fd5b6000818152600f6020526040902060040180546001919060ff19168280610a7f565b61123033612f8c565b61123957600080fd5b6001600160a01b0316600090815260096020819052604090912001805460ff19166001179055565b6000818152600f60205260409020600201546001600160a01b0316331480156112b0575060016000828152600f6020526040902060049081015460ff16908111156112ae576112ae613f7c565b145b6112b957600080fd5b6000818152600f6020908152604080832060048101805460ff1916600390811790915501548352600e9091528082206009015490516101009091046001600160a01b0316916108fc34801591909102929091818181858888f19350505050158015611328573d6000803e3d6000fd5b506000818152600f602090815260408220600401805461ff001916610100179055601390527f4155c2f711f2cdd34f8262ab8fb9b7020a700fe7b6948222152f7670d1fdf34d805460018101825591527f3ce2cb385edcbf7185fd469186dd769993781141b215a1a4715ebb7f94fd59ab0155565b6000546001600160a01b031633146113f75760405162461bcd60e51b815260206004820152601960248201527f596f7520617265206e6f7420636f6e74726163744f776e6572000000000000006044820152606401610add565b6001600160a01b03811660009081526008602052604090205460ff1661145f5760405162461bcd60e51b815260206004820152601860248201527f4c616e6420496e73706563746f72206e6f7420666f756e6400000000000000006044820152606401610add565b6001600160a01b03811660009081526008602090815260408220805460ff19169055600182526007905260008051602061468083398151915254905b818110156115fb576001600052600760205260008051602061468083398151915280546001600160a01b0385169190839081106114da576114da614549565b6000918252602090912001546001600160a01b031614156115e9576001600081905260076020526000805160206146808339815191529061151b908461459a565b8154811061152b5761152b614549565b600091825260208083209091015460019092526007905260008051602061468083398151915280546001600160a01b03909216918390811061156f5761156f614549565b600091825260208083209190910180546001600160a01b0319166001600160a01b03949094169390931790925560019052600790526000805160206146808339815191528054806115c2576115c26145b1565b600082815260209020810160001990810180546001600160a01b0319169055019055505050565b806115f38161452e565b91505061149b565b505050565b60016000908152600b6020527f72c6bfb7988af3a1efa6568f02a999bc52252641c659d85961ca3d372b57d5cf546060918167ffffffffffffffff81111561164a5761164a613b10565b60405190808252806020026020018201604052801561168357816020015b611670613a09565b8152602001906001900390816116685790505b50905060005b8281101561117657846040516020016116a291906145c7565b6040516020818303038152906040528051906020012060096000600b60006001815260200190815260200160002084815481106116e1576116e1614549565b60009182526020808320909101546001600160a01b031683528281019390935260409182019020905161171a92600590920191016145e3565b604051602081830303815290604052805190602001201415611b8c5760016000908152600b6020527f72c6bfb7988af3a1efa6568f02a999bc52252641c659d85961ca3d372b57d5cf805460099291908490811061177a5761177a614549565b9060005260206000200160009054906101000a90046001600160a01b03166001600160a01b03166001600160a01b0316815260200190815260200160002060405180610140016040529081600082015481526020016001820180546117de9061455f565b80601f016020809104026020016040519081016040528092919081815260200182805461180a9061455f565b80156118575780601f1061182c57610100808354040283529160200191611857565b820191906000526020600020905b81548152906001019060200180831161183a57829003601f168201915b505050505081526020016002820180546118709061455f565b80601f016020809104026020016040519081016040528092919081815260200182805461189c9061455f565b80156118e95780601f106118be576101008083540402835291602001916118e9565b820191906000526020600020905b8154815290600101906020018083116118cc57829003601f168201915b505050918352505060038201546001600160a01b03166020820152600482015460408201526005820180546060909201916119239061455f565b80601f016020809104026020016040519081016040528092919081815260200182805461194f9061455f565b801561199c5780601f106119715761010080835404028352916020019161199c565b820191906000526020600020905b81548152906001019060200180831161197f57829003601f168201915b505050505081526020016006820180546119b59061455f565b80601f01602080910402602001604051908101604052809291908181526020018280546119e19061455f565b8015611a2e5780601f10611a0357610100808354040283529160200191611a2e565b820191906000526020600020905b815481529060010190602001808311611a1157829003601f168201915b50505050508152602001600782018054611a479061455f565b80601f0160208091040260200160405190810160405280929190818152602001828054611a739061455f565b8015611ac05780601f10611a9557610100808354040283529160200191611ac0565b820191906000526020600020905b815481529060010190602001808311611aa357829003601f168201915b50505050508152602001600882018054611ad99061455f565b80601f0160208091040260200160405190810160405280929190818152602001828054611b059061455f565b8015611b525780601f10611b2757610100808354040283529160200191611b52565b820191906000526020600020905b815481529060010190602001808311611b3557829003601f168201915b50505091835250506009919091015460ff1615156020909101528251839083908110611b8057611b80614549565b60200260200101819052505b80611b968161452e565b915050611689565b611ba6613a67565b6001600160a01b03808316600090815260066020908152604091829020825160c081018452815481526001820154909416918401919091526002810180549192840191611bf29061455f565b80601f0160208091040260200160405190810160405280929190818152602001828054611c1e9061455f565b8015611c6b5780601f10611c4057610100808354040283529160200191611c6b565b820191906000526020600020905b815481529060010190602001808311611c4e57829003601f168201915b5050505050815260200160038201548152602001600482018054611c8e9061455f565b80601f0160208091040260200160405190810160405280929190818152602001828054611cba9061455f565b8015611d075780601f10611cdc57610100808354040283529160200191611d07565b820191906000526020600020905b815481529060010190602001808311611cea57829003601f168201915b50505050508152602001600582018054611d209061455f565b80601f0160208091040260200160405190810160405280929190818152602001828054611d4c9061455f565b8015611d995780601f10611d6e57610100808354040283529160200191611d99565b820191906000526020600020905b815481529060010190602001808311611d7c57829003601f168201915b5050505050815250509050919050565b6000818152600e602052604090206009015461010090046001600160a01b03163314611dd457600080fd5b6000908152600e60205260409020600901805460ff19169055565b6040516001600160a01b038216903480156108fc02916000818181858888f19350505050158015611e24573d6000803e3d6000fd5b5050565b6001600090815260126020527f71a67924699a20698523213e55fe499d539379d7769cd5567e2c45d583f815a3546060918167ffffffffffffffff811115611e7257611e72613b10565b604051908082528060200260200182016040528015611eab57816020015b611e9861399b565b815260200190600190039081611e905790505b50905060005b8281101561228c576001600090815260126020527f71a67924699a20698523213e55fe499d539379d7769cd5567e2c45d583f815a38054600e92919084908110611efd57611efd614549565b90600052602060002001548152602001908152602001600020604051806101800160405290816000820154815260200160018201548152602001600282018054611f469061455f565b80601f0160208091040260200160405190810160405280929190818152602001828054611f729061455f565b8015611fbf5780601f10611f9457610100808354040283529160200191611fbf565b820191906000526020600020905b815481529060010190602001808311611fa257829003601f168201915b5050505050815260200160038201548152602001600482018054611fe29061455f565b80601f016020809104026020016040519081016040528092919081815260200182805461200e9061455f565b801561205b5780601f106120305761010080835404028352916020019161205b565b820191906000526020600020905b81548152906001019060200180831161203e57829003601f168201915b505050505081526020016005820154815260200160068201805461207e9061455f565b80601f01602080910402602001604051908101604052809291908181526020018280546120aa9061455f565b80156120f75780601f106120cc576101008083540402835291602001916120f7565b820191906000526020600020905b8154815290600101906020018083116120da57829003601f168201915b505050505081526020016007820180546121109061455f565b80601f016020809104026020016040519081016040528092919081815260200182805461213c9061455f565b80156121895780601f1061215e57610100808354040283529160200191612189565b820191906000526020600020905b81548152906001019060200180831161216c57829003601f168201915b505050505081526020016008820180546121a29061455f565b80601f01602080910402602001604051908101604052809291908181526020018280546121ce9061455f565b801561221b5780601f106121f05761010080835404028352916020019161221b565b820191906000526020600020905b8154815290600101906020018083116121fe57829003601f168201915b50505091835250506009919091015460ff808216151560208401526001600160a01b036101008304166040840152600160a81b909104161515606090910152825183908390811061226e5761226e614549565b602002602001018190525080806122849061452e565b915050611eb1565b5092915050565b336000908152601160209081526040918290208054835181840281018401909452808452606093928301828280156111d557602002820191906000526020600020908154815260200190600101908083116111c1575050505050905090565b600160009081526007602052600080516020614680833981519152546060918167ffffffffffffffff81111561232a5761232a613b10565b60405190808252806020026020018201604052801561236357816020015b612350613a67565b8152602001906001900390816123485790505b50905060005b8281101561228c5760016000908152600760205260008051602061468083398151915280546006929190849081106123a3576123a3614549565b60009182526020808320909101546001600160a01b039081168452838201949094526040928301909120825160c0810184528154815260018201549094169184019190915260028101805491928401916123fc9061455f565b80601f01602080910402602001604051908101604052809291908181526020018280546124289061455f565b80156124755780601f1061244a57610100808354040283529160200191612475565b820191906000526020600020905b81548152906001019060200180831161245857829003601f168201915b50505050508152602001600382015481526020016004820180546124989061455f565b80601f01602080910402602001604051908101604052809291908181526020018280546124c49061455f565b80156125115780601f106124e657610100808354040283529160200191612511565b820191906000526020600020905b8154815290600101906020018083116124f457829003601f168201915b5050505050815260200160058201805461252a9061455f565b80601f01602080910402602001604051908101604052809291908181526020018280546125569061455f565b80156125a35780601f10612578576101008083540402835291602001916125a3565b820191906000526020600020905b81548152906001019060200180831161258657829003601f168201915b5050505050815250508282815181106125be576125be614549565b602002602001018190525080806125d49061452e565b915050612369565b60066020526000908152604090208054600182015460028301805492936001600160a01b039092169261260e9061455f565b80601f016020809104026020016040519081016040528092919081815260200182805461263a9061455f565b80156126875780601f1061265c57610100808354040283529160200191612687565b820191906000526020600020905b81548152906001019060200180831161266a57829003601f168201915b5050505050908060030154908060040180546126a29061455f565b80601f01602080910402602001604051908101604052809291908181526020018280546126ce9061455f565b801561271b5780601f106126f05761010080835404028352916020019161271b565b820191906000526020600020905b8154815290600101906020018083116126fe57829003601f168201915b5050505050908060050180546127309061455f565b80601f016020809104026020016040519081016040528092919081815260200182805461275c9061455f565b80156127a95780601f1061277e576101008083540402835291602001916127a9565b820191906000526020600020905b81548152906001019060200180831161278c57829003601f168201915b5050505050905086565b6000818152600e602052604090206009015461010090046001600160a01b031633146127de57600080fd5b6000908152600e60205260409020600901805460ff19166001179055565b600080546001600160a01b0316331461281757506000612986565b6000546001600160a01b0316331461282e57600080fd5b6001600160a01b03861660008181526008602090815260408220805460ff191660019081179091556007909152600080516020614680833981519152805480830182559083527fb2401e68d452ad3af4aed95d6e19d1a690ed00a9a5bee1b2b0a83b6028446a4f0180546001600160a01b031916909317909255815491906128b58361452e565b90915550506040805160c0810182526001805482526001600160a01b0389811660208085018281528587018c8152606087018c9052608087018b905260a087018a90526000938452600683529690922085518155915193820180546001600160a01b03191694909316939093179091559251805192939261293c9260028501920190613917565b506060820151600382015560808201518051612962916004840191602090910190613917565b5060a0820151805161297e916005840191602090910190613917565b506001925050505b95945050505050565b6001600160a01b0381166000908152600d60209081526040918290208054835181840281018401909452808452606093928301828280156129ef57602002820191906000526020600020905b8154815260200190600101908083116129db575b50505050509050919050565b336000908152600960208190526040909120015460ff168015612a3657506000818152600e6020526040902060090154600160a81b900460ff165b612a3f57600080fd5b60058054906000612a4f8361452e565b90915550506040805160c0810182526005548082526000848152600e60209081528482206009015461010090046001600160a01b0390811682860190815233868801908152606087018981526080880186815260a08901879052968652600f90945296909320855181559251600180850180549284166001600160a01b03199384161790559651600285018054919093169116179055516003820155905160048083018054949593949293909260ff1916918490811115612b1257612b12613f7c565b021790555060a091909101516004909101805461ff00191661010092151583021790556000918252600e6020908152604080842060090154929092046001600160a01b031683526010815281832060058054825460018181018555938752848720015533855260118352928420925483549182018455928452922090910155565b600080546001600160a01b038381169116141561081557506001919050565b612bba613a09565b6001600160a01b03821660009081526009602090815260409182902082516101408101909352805483526001810180549192840191612bf89061455f565b80601f0160208091040260200160405190810160405280929190818152602001828054612c249061455f565b8015612c715780601f10612c4657610100808354040283529160200191612c71565b820191906000526020600020905b815481529060010190602001808311612c5457829003601f168201915b50505050508152602001600282018054612c8a9061455f565b80601f0160208091040260200160405190810160405280929190818152602001828054612cb69061455f565b8015612d035780601f10612cd857610100808354040283529160200191612d03565b820191906000526020600020905b815481529060010190602001808311612ce657829003601f168201915b505050918352505060038201546001600160a01b0316602082015260048201546040820152600582018054606090920191612d3d9061455f565b80601f0160208091040260200160405190810160405280929190818152602001828054612d699061455f565b8015612db65780601f10612d8b57610100808354040283529160200191612db6565b820191906000526020600020905b815481529060010190602001808311612d9957829003601f168201915b50505050508152602001600682018054612dcf9061455f565b80601f0160208091040260200160405190810160405280929190818152602001828054612dfb9061455f565b8015612e485780601f10612e1d57610100808354040283529160200191612e48565b820191906000526020600020905b815481529060010190602001808311612e2b57829003601f168201915b50505050508152602001600782018054612e619061455f565b80601f0160208091040260200160405190810160405280929190818152602001828054612e8d9061455f565b8015612eda5780601f10612eaf57610100808354040283529160200191612eda565b820191906000526020600020905b815481529060010190602001808311612ebd57829003601f168201915b50505050508152602001600882018054612ef39061455f565b80601f0160208091040260200160405190810160405280929190818152602001828054612f1f9061455f565b8015612f6c5780601f10612f4157610100808354040283529160200191612f6c565b820191906000526020600020905b815481529060010190602001808311612f4f57829003601f168201915b50505091835250506009919091015460ff16151560209091015292915050565b6001600160a01b03811660009081526008602052604081205460ff161561081557506001919050565b600e6020526000908152604090208054600182015460028301805492939192612fdd9061455f565b80601f01602080910402602001604051908101604052809291908181526020018280546130099061455f565b80156130565780601f1061302b57610100808354040283529160200191613056565b820191906000526020600020905b81548152906001019060200180831161303957829003601f168201915b5050505050908060030154908060040180546130719061455f565b80601f016020809104026020016040519081016040528092919081815260200182805461309d9061455f565b80156130ea5780601f106130bf576101008083540402835291602001916130ea565b820191906000526020600020905b8154815290600101906020018083116130cd57829003601f168201915b5050505050908060050154908060060180546131059061455f565b80601f01602080910402602001604051908101604052809291908181526020018280546131319061455f565b801561317e5780601f106131535761010080835404028352916020019161317e565b820191906000526020600020905b81548152906001019060200180831161316157829003601f168201915b5050505050908060070180546131939061455f565b80601f01602080910402602001604051908101604052809291908181526020018280546131bf9061455f565b801561320c5780601f106131e15761010080835404028352916020019161320c565b820191906000526020600020905b8154815290600101906020018083116131ef57829003601f168201915b5050505050908060080180546132219061455f565b80601f016020809104026020016040519081016040528092919081815260200182805461324d9061455f565b801561329a5780601f1061326f5761010080835404028352916020019161329a565b820191906000526020600020905b81548152906001019060200180831161327d57829003601f168201915b5050506009909301549192505060ff808216916001600160a01b0361010082041691600160a81b909104168c565b600960205260009081526040902080546001820180549192916132ea9061455f565b80601f01602080910402602001604051908101604052809291908181526020018280546133169061455f565b80156133635780601f1061333857610100808354040283529160200191613363565b820191906000526020600020905b81548152906001019060200180831161334657829003601f168201915b5050505050908060020180546133789061455f565b80601f01602080910402602001604051908101604052809291908181526020018280546133a49061455f565b80156133f15780601f106133c6576101008083540402835291602001916133f1565b820191906000526020600020905b8154815290600101906020018083116133d457829003601f168201915b505050506003830154600484015460058501805494956001600160a01b0390931694919350906134209061455f565b80601f016020809104026020016040519081016040528092919081815260200182805461344c9061455f565b80156134995780601f1061346e57610100808354040283529160200191613499565b820191906000526020600020905b81548152906001019060200180831161347c57829003601f168201915b5050505050908060060180546134ae9061455f565b80601f01602080910402602001604051908101604052809291908181526020018280546134da9061455f565b80156135275780601f106134fc57610100808354040283529160200191613527565b820191906000526020600020905b81548152906001019060200180831161350a57829003601f168201915b50505050509080600701805461353c9061455f565b80601f01602080910402602001604051908101604052809291908181526020018280546135689061455f565b80156135b55780601f1061358a576101008083540402835291602001916135b5565b820191906000526020600020905b81548152906001019060200180831161359857829003601f168201915b5050505050908060080180546135ca9061455f565b80601f01602080910402602001604051908101604052809291908181526020018280546135f69061455f565b80156136435780601f1061361857610100808354040283529160200191613643565b820191906000526020600020905b81548152906001019060200180831161362657829003601f168201915b5050506009909301549192505060ff168a565b61365f33612f8c565b61366857600080fd5b6000908152600e60205260409020600901805460ff60a81b1916600160a81b179055565b600061369733612f8c565b6136a057600080fd5b6000838152600f6020526040902060040154610100900460ff166136c657506000613911565b6000838152600f602090815260408083206004808201805460ff1916909117905560028101546001600160a01b039081168552600d84528285206003830154815460018181018455928852958720909501949094559201549091168252812054905b81811015613877576000858152600f6020908152604080832060038101546001909101546001600160a01b03168452600d90925290912080548390811061377157613771614549565b90600052602060002001541415613865576000858152600f602090815260408083206001908101546001600160a01b03168452600d909252909120906137b7908461459a565b815481106137c7576137c7614549565b6000918252602080832090910154878352600f82526040808420600101546001600160a01b03168452600d909252912080548390811061380957613809614549565b6000918252602080832090910192909255868152600f82526040808220600101546001600160a01b03168252600d9092522080548061384a5761384a6145b1565b60019003818190600052602060002001600090559055613877565b8061386f8161452e565b915050613728565b506000848152600f60209081526040808320600301548352600e825290912084516138aa92600790920191860190613917565b5050506000828152600f602090815260408083206003810180548552600e9093528184206009908101805460ff1916905560029091015492548452922090910180546001600160a01b0390921661010002610100600160a81b031990921691909117905560015b92915050565b8280546139239061455f565b90600052602060002090601f016020900481019282613945576000855561398b565b82601f1061395e57805160ff191683800117855561398b565b8280016001018555821561398b579182015b8281111561398b578251825591602001919060010190613970565b50613997929150613aa6565b5090565b60405180610180016040528060008152602001600081526020016060815260200160008152602001606081526020016000815260200160608152602001606081526020016060815260200160001515815260200160006001600160a01b031681526020016000151581525090565b60405180610140016040528060008152602001606081526020016060815260200160006001600160a01b0316815260200160008152602001606081526020016060815260200160608152602001606081526020016000151581525090565b6040518060c001604052806000815260200160006001600160a01b03168152602001606081526020016000815260200160608152602001606081525090565b5b808211156139975760008155600101613aa7565b6001600160a01b0381168114613ad057600080fd5b50565b600060208284031215613ae557600080fd5b8135613af081613abb565b9392505050565b600060208284031215613b0957600080fd5b5035919050565b634e487b7160e01b600052604160045260246000fd5b600082601f830112613b3757600080fd5b813567ffffffffffffffff80821115613b5257613b52613b10565b604051601f8301601f19908116603f01168101908282118183101715613b7a57613b7a613b10565b81604052838152866020858801011115613b9357600080fd5b836020870160208301376000602085830101528094505050505092915050565b600080600080600080600060e0888a031215613bce57600080fd5b873567ffffffffffffffff80821115613be657600080fd5b613bf28b838c01613b26565b985060208a0135915080821115613c0857600080fd5b613c148b838c01613b26565b975060408a0135965060608a0135915080821115613c3157600080fd5b613c3d8b838c01613b26565b955060808a0135915080821115613c5357600080fd5b613c5f8b838c01613b26565b945060a08a0135915080821115613c7557600080fd5b613c818b838c01613b26565b935060c08a0135915080821115613c9757600080fd5b50613ca48a828b01613b26565b91505092959891949750929550565b600080600080600080600080610100898b031215613cd057600080fd5b88359750602089013567ffffffffffffffff80821115613cef57600080fd5b613cfb8c838d01613b26565b985060408b0135975060608b0135915080821115613d1857600080fd5b613d248c838d01613b26565b965060808b0135955060a08b0135915080821115613d4157600080fd5b613d4d8c838d01613b26565b945060c08b0135915080821115613d6357600080fd5b613d6f8c838d01613b26565b935060e08b0135915080821115613d8557600080fd5b50613d928b828c01613b26565b9150509295985092959890939650565b60005b83811015613dbd578181015183820152602001613da5565b83811115613dcc576000848401525b50505050565b60008151808452613dea816020860160208601613da2565b601f01601f19169290920160200192915050565b60006020808301818452808551808352604092508286019150828160051b87010184880160005b83811015613f2a57603f198984030185528151610180815185528882015189860152878201518189870152613e5c82870182613dd2565b915050606080830151818701525060808083015186830382880152613e818382613dd2565b9250505060a080830151818701525060c08083015186830382880152613ea78382613dd2565b9250505060e08083015186830382880152613ec28382613dd2565b925050506101008083015186830382880152613ede8382613dd2565b9250505061012080830151613ef68288018215159052565b5050610140828101516001600160a01b03169086015261016091820151151591909401529386019390860190600101613e25565b509098975050505050505050565b6020808252825182820181905260009190848201906040850190845b81811015613f7057835183529284019291840191600101613f54565b50909695505050505050565b634e487b7160e01b600052602160045260246000fd5b8681526001600160a01b038681166020830152851660408201526060810184905260c0810160058410613fd557634e487b7160e01b600052602160045260246000fd5b83608083015282151560a0830152979650505050505050565b60006020828403121561400057600080fd5b813567ffffffffffffffff81111561401757600080fd5b61402384828501613b26565b949350505050565b600061014082518452602083015181602086015261404b82860182613dd2565b915050604083015184820360408601526140658282613dd2565b915050606083015161408260608601826001600160a01b03169052565b506080830151608085015260a083015184820360a08601526140a48282613dd2565b91505060c083015184820360c08601526140be8282613dd2565b91505060e083015184820360e08601526140d88282613dd2565b91505061010080840151858303828701526140f38382613dd2565b925050506101208084015161410b8287018215159052565b5090949350505050565b6000602080830181845280855180835260408601915060408160051b870101925083870160005b8281101561416a57603f1988860301845261415885835161402b565b9450928501929085019060010161413c565b5092979650505050505050565b8051825260018060a01b0360208201511660208301526000604082015160c060408501526141a860c0850182613dd2565b905060608301516060850152608083015184820360808601526141cb8282613dd2565b91505060a083015184820360a08601526129868282613dd2565b602081526000613af06020830184614177565b6000602080830181845280855180835260408601915060408160051b870101925083870160005b8281101561416a57603f1988860301845261423b858351614177565b9450928501929085019060010161421f565b8681526001600160a01b038616602082015260c06040820181905260009061427790830187613dd2565b856060840152828103608084015261428f8186613dd2565b905082810360a08401526142a38185613dd2565b9998505050505050505050565b600080600080600060a086880312156142c857600080fd5b85356142d381613abb565b9450602086013567ffffffffffffffff808211156142f057600080fd5b6142fc89838a01613b26565b955060408801359450606088013591508082111561431957600080fd5b61432589838a01613b26565b9350608088013591508082111561433b57600080fd5b5061434888828901613b26565b9150509295509295909350565b602081526000613af0602083018461402b565b60006101808e83528d60208401528060408401526143888184018e613dd2565b90508b606084015282810360808401526143a2818c613dd2565b90508960a084015282810360c08401526143bc818a613dd2565b905082810360e08401526143d08189613dd2565b90508281036101008401526143e58188613dd2565b9150508415156101208301526144076101408301856001600160a01b03169052565b8215156101608301529d9c50505050505050505050505050565b60006101408c835280602084015261443b8184018d613dd2565b9050828103604084015261444f818c613dd2565b6001600160a01b038b166060850152608084018a905283810360a085015290506144798189613dd2565b905082810360c084015261448d8188613dd2565b905082810360e08401526144a18187613dd2565b90508281036101008401526144b68186613dd2565b9150508215156101208301529b9a5050505050505050505050565b600080604083850312156144e457600080fd5b82359150602083013567ffffffffffffffff81111561450257600080fd5b61450e85828601613b26565b9150509250929050565b634e487b7160e01b600052601160045260246000fd5b600060001982141561454257614542614518565b5060010190565b634e487b7160e01b600052603260045260246000fd5b600181811c9082168061457357607f821691505b6020821081141561459457634e487b7160e01b600052602260045260246000fd5b50919050565b6000828210156145ac576145ac614518565b500390565b634e487b7160e01b600052603160045260246000fd5b600082516145d9818460208701613da2565b9190910192915050565b600080835481600182811c9150808316806145ff57607f831692505b602080841082141561461f57634e487b7160e01b86526022600452602486fd5b818015614633576001811461464457614671565b60ff19861689528489019650614671565b60008a81526020902060005b868110156146695781548b820152908501908301614650565b505084890196505b50949897505050505050505056feb39221ace053465ec3453ce2b36430bd138b997ecea25c1043da0c366812b828a26469706673582212206fb64bcae47d28144d40cdd2f2925eac6a649cc60648c7c6b1f6a41ec39a416864736f6c63430008090033",
  "linkReferences": {},
  "deployedLinkReferences": {}
}