{
  "_format": "hh-sol-artifact-1",
  "contractName": "LandRecords",
  "sourceName": "contracts/LandRecords.sol",
  "abi": [
    {
      "inputs": [],
      "stateMutability": "nonpayable",
      "type": "constructor"
    },
    {
      "inputs": [
        {
          "internalType": "uint256",
          "name": "",
          "type": "uint256"
        }
      ],
      "name": "BuyRequest",
      "outputs": [
        {
          "internalType": "uint256",
          "name": "landId",
          "type": "uint256"
        },
        {
          "internalType": "address",
          "name": "buyerId",
          "type": "address"
        },
        {
          "internalType": "address",
          "name": "sellerId",
          "type": "address"
        },
        {
          "internalType": "enum LandRecords.reqStatus",
          "name": "requestStatus",
          "type": "uint8"
        }
      ],
      "stateMutability": "view",
      "type": "function"
    },
    {
      "inputs": [],
      "name": "InspectorCount",
      "outputs": [
        {
          "internalType": "uint256",
          "name": "",
          "type": "uint256"
        }
      ],
      "stateMutability": "view",
      "type": "function"
    },
    {
      "inputs": [],
      "name": "LandCount",
      "outputs": [
        {
          "internalType": "uint256",
          "name": "",
          "type": "uint256"
        }
      ],
      "stateMutability": "view",
      "type": "function"
    },
    {
      "inputs": [],
      "name": "ReturnAllLandList",
      "outputs": [
        {
          "internalType": "uint256[]",
          "name": "",
          "type": "uint256[]"
        }
      ],
      "stateMutability": "view",
      "type": "function"
    },
    {
      "inputs": [],
      "name": "ReturnAllUserDetails",
      "outputs": [
        {
          "components": [
            {
              "internalType": "uint256",
              "name": "id",
              "type": "uint256"
            },
            {
              "internalType": "string",
              "name": "name",
              "type": "string"
            },
            {
              "internalType": "string",
              "name": "email",
              "type": "string"
            },
            {
              "internalType": "address",
              "name": "_userAddress",
              "type": "address"
            },
            {
              "internalType": "uint256",
              "name": "age",
              "type": "uint256"
            },
            {
              "internalType": "string",
              "name": "city",
              "type": "string"
            },
            {
              "internalType": "string",
              "name": "document",
              "type": "string"
            },
            {
              "internalType": "string",
              "name": "aadharCard",
              "type": "string"
            },
            {
              "internalType": "string",
              "name": "panCard",
              "type": "string"
            },
            {
              "internalType": "bool",
              "name": "isVerified",
              "type": "bool"
            }
          ],
          "internalType": "struct LandRecords.user[]",
          "name": "",
          "type": "tuple[]"
        }
      ],
      "stateMutability": "view",
      "type": "function"
    },
    {
      "inputs": [],
      "name": "ReturnAllUserList",
      "outputs": [
        {
          "internalType": "address[]",
          "name": "",
          "type": "address[]"
        }
      ],
      "stateMutability": "view",
      "type": "function"
    },
    {
      "inputs": [
        {
          "internalType": "address",
          "name": "id",
          "type": "address"
        }
      ],
      "name": "ReturnUser",
      "outputs": [
        {
          "components": [
            {
              "internalType": "uint256",
              "name": "id",
              "type": "uint256"
            },
            {
              "internalType": "string",
              "name": "name",
              "type": "string"
            },
            {
              "internalType": "string",
              "name": "email",
              "type": "string"
            },
            {
              "internalType": "address",
              "name": "_userAddress",
              "type": "address"
            },
            {
              "internalType": "uint256",
              "name": "age",
              "type": "uint256"
            },
            {
              "internalType": "string",
              "name": "city",
              "type": "string"
            },
            {
              "internalType": "string",
              "name": "document",
              "type": "string"
            },
            {
              "internalType": "string",
              "name": "aadharCard",
              "type": "string"
            },
            {
              "internalType": "string",
              "name": "panCard",
              "type": "string"
            },
            {
              "internalType": "bool",
              "name": "isVerified",
              "type": "bool"
            }
          ],
          "internalType": "struct LandRecords.user",
          "name": "",
          "type": "tuple"
        }
      ],
      "stateMutability": "view",
      "type": "function"
    },
    {
      "inputs": [
        {
          "internalType": "uint256",
          "name": "",
          "type": "uint256"
        }
      ],
      "name": "TransferRequest",
      "outputs": [
        {
          "internalType": "uint256",
          "name": "landId",
          "type": "uint256"
        },
        {
          "internalType": "address",
          "name": "sellerId",
          "type": "address"
        },
        {
          "internalType": "address",
          "name": "buyerId",
          "type": "address"
        },
        {
          "internalType": "enum LandRecords.reqStatus",
          "name": "requestStatus",
          "type": "uint8"
        }
      ],
      "stateMutability": "view",
      "type": "function"
    },
    {
      "inputs": [
        {
          "internalType": "uint256",
          "name": "_requestId",
          "type": "uint256"
        }
      ],
      "name": "acceptRequest",
      "outputs": [],
      "stateMutability": "nonpayable",
      "type": "function"
    },
    {
      "inputs": [
        {
          "internalType": "uint256",
          "name": "_area",
          "type": "uint256"
        },
        {
          "internalType": "string",
          "name": "_address",
          "type": "string"
        },
        {
          "internalType": "string",
          "name": "_surveyNum",
          "type": "string"
        },
        {
          "internalType": "string",
          "name": "_document",
          "type": "string"
        }
      ],
      "name": "addLand",
      "outputs": [],
      "stateMutability": "nonpayable",
      "type": "function"
    },
    {
      "inputs": [
        {
          "internalType": "address",
          "name": "_address",
          "type": "address"
        },
        {
          "internalType": "string",
          "name": "_name",
          "type": "string"
        },
        {
          "internalType": "uint256",
          "name": "_age",
          "type": "uint256"
        },
        {
          "internalType": "string",
          "name": "_city",
          "type": "string"
        }
      ],
      "name": "addLandInspector",
      "outputs": [
        {
          "internalType": "bool",
          "name": "",
          "type": "bool"
        }
      ],
      "stateMutability": "nonpayable",
      "type": "function"
    },
    {
      "inputs": [
        {
          "internalType": "address",
          "name": "",
          "type": "address"
        }
      ],
      "name": "addressToInspector",
      "outputs": [
        {
          "internalType": "uint256",
          "name": "id",
          "type": "uint256"
        },
        {
          "internalType": "address",
          "name": "_inspectorAddress",
          "type": "address"
        },
        {
          "internalType": "string",
          "name": "name",
          "type": "string"
        },
        {
          "internalType": "uint256",
          "name": "age",
          "type": "uint256"
        },
        {
          "internalType": "string",
          "name": "city",
          "type": "string"
        }
      ],
      "stateMutability": "view",
      "type": "function"
    },
    {
      "inputs": [
        {
          "internalType": "address",
          "name": "",
          "type": "address"
        }
      ],
      "name": "addressToUser",
      "outputs": [
        {
          "internalType": "uint256",
          "name": "id",
          "type": "uint256"
        },
        {
          "internalType": "string",
          "name": "name",
          "type": "string"
        },
        {
          "internalType": "string",
          "name": "email",
          "type": "string"
        },
        {
          "internalType": "address",
          "name": "_userAddress",
          "type": "address"
        },
        {
          "internalType": "uint256",
          "name": "age",
          "type": "uint256"
        },
        {
          "internalType": "string",
          "name": "city",
          "type": "string"
        },
        {
          "internalType": "string",
          "name": "document",
          "type": "string"
        },
        {
          "internalType": "string",
          "name": "aadharCard",
          "type": "string"
        },
        {
          "internalType": "string",
          "name": "panCard",
          "type": "string"
        },
        {
          "internalType": "bool",
          "name": "isVerified",
          "type": "bool"
        }
      ],
      "stateMutability": "view",
      "type": "function"
    },
    {
      "inputs": [],
      "name": "allTransferRequestList",
      "outputs": [
        {
          "internalType": "uint256[]",
          "name": "",
          "type": "uint256[]"
        }
      ],
      "stateMutability": "view",
      "type": "function"
    },
    {
      "inputs": [],
      "name": "buyRequestCount",
      "outputs": [
        {
          "internalType": "uint256",
          "name": "",
          "type": "uint256"
        }
      ],
      "stateMutability": "view",
      "type": "function"
    },
    {
      "inputs": [
        {
          "internalType": "uint256",
          "name": "id",
          "type": "uint256"
        }
      ],
      "name": "buyRequestStatus",
      "outputs": [
        {
          "internalType": "bool",
          "name": "",
          "type": "bool"
        }
      ],
      "stateMutability": "view",
      "type": "function"
    },
    {
      "inputs": [
        {
          "internalType": "address",
          "name": "_address",
          "type": "address"
        }
      ],
      "name": "changeContractOwner",
      "outputs": [],
      "stateMutability": "nonpayable",
      "type": "function"
    },
    {
      "inputs": [
        {
          "internalType": "address",
          "name": "_address",
          "type": "address"
        }
      ],
      "name": "isContractOwner",
      "outputs": [
        {
          "internalType": "bool",
          "name": "",
          "type": "bool"
        }
      ],
      "stateMutability": "view",
      "type": "function"
    },
    {
      "inputs": [
        {
          "internalType": "address",
          "name": "_id",
          "type": "address"
        }
      ],
      "name": "isLandInspector",
      "outputs": [
        {
          "internalType": "bool",
          "name": "",
          "type": "bool"
        }
      ],
      "stateMutability": "view",
      "type": "function"
    },
    {
      "inputs": [
        {
          "internalType": "uint256",
          "name": "id",
          "type": "uint256"
        }
      ],
      "name": "isLandVerified",
      "outputs": [
        {
          "internalType": "bool",
          "name": "",
          "type": "bool"
        }
      ],
      "stateMutability": "view",
      "type": "function"
    },
    {
      "inputs": [
        {
          "internalType": "address",
          "name": "_addr",
          "type": "address"
        }
      ],
      "name": "isUserRegistered",
      "outputs": [
        {
          "internalType": "bool",
          "name": "",
          "type": "bool"
        }
      ],
      "stateMutability": "view",
      "type": "function"
    },
    {
      "inputs": [
        {
          "internalType": "address",
          "name": "id",
          "type": "address"
        }
      ],
      "name": "isUserVerified",
      "outputs": [
        {
          "internalType": "bool",
          "name": "",
          "type": "bool"
        }
      ],
      "stateMutability": "view",
      "type": "function"
    },
    {
      "inputs": [
        {
          "internalType": "uint256",
          "name": "",
          "type": "uint256"
        }
      ],
      "name": "lands",
      "outputs": [
        {
          "internalType": "uint256",
          "name": "id",
          "type": "uint256"
        },
        {
          "internalType": "address",
          "name": "landOwner",
          "type": "address"
        },
        {
          "internalType": "uint256",
          "name": "landArea",
          "type": "uint256"
        },
        {
          "internalType": "string",
          "name": "landAddress",
          "type": "string"
        },
        {
          "internalType": "string",
          "name": "surveyNumber",
          "type": "string"
        },
        {
          "internalType": "string",
          "name": "landDocument",
          "type": "string"
        },
        {
          "internalType": "bool",
          "name": "isLandVerified",
          "type": "bool"
        },
        {
          "internalType": "bool",
          "name": "isForSell",
          "type": "bool"
        }
      ],
      "stateMutability": "view",
      "type": "function"
    },
    {
      "inputs": [
        {
          "internalType": "uint256",
          "name": "id",
          "type": "uint256"
        }
      ],
      "name": "makeItNotforSell",
      "outputs": [],
      "stateMutability": "nonpayable",
      "type": "function"
    },
    {
      "inputs": [
        {
          "internalType": "uint256",
          "name": "id",
          "type": "uint256"
        }
      ],
      "name": "makeItforSell",
      "outputs": [],
      "stateMutability": "nonpayable",
      "type": "function"
    },
    {
      "inputs": [
        {
          "internalType": "address",
          "name": "id",
          "type": "address"
        }
      ],
      "name": "myAllLands",
      "outputs": [
        {
          "internalType": "uint256[]",
          "name": "",
          "type": "uint256[]"
        }
      ],
      "stateMutability": "view",
      "type": "function"
    },
    {
      "inputs": [
        {
          "internalType": "address",
          "name": "id",
          "type": "address"
        }
      ],
      "name": "myAllLandsDetails",
      "outputs": [
        {
          "components": [
            {
              "internalType": "uint256",
              "name": "id",
              "type": "uint256"
            },
            {
              "internalType": "address",
              "name": "landOwner",
              "type": "address"
            },
            {
              "internalType": "uint256",
              "name": "landArea",
              "type": "uint256"
            },
            {
              "internalType": "string",
              "name": "landAddress",
              "type": "string"
            },
            {
              "internalType": "string",
              "name": "surveyNumber",
              "type": "string"
            },
            {
              "internalType": "string",
              "name": "landDocument",
              "type": "string"
            },
            {
              "internalType": "bool",
              "name": "isLandVerified",
              "type": "bool"
            },
            {
              "internalType": "bool",
              "name": "isForSell",
              "type": "bool"
            }
          ],
          "internalType": "struct LandRecords.Land[]",
          "name": "",
          "type": "tuple[]"
        }
      ],
      "stateMutability": "view",
      "type": "function"
    },
    {
      "inputs": [],
      "name": "myReceivedLandRequests",
      "outputs": [
        {
          "internalType": "uint256[]",
          "name": "",
          "type": "uint256[]"
        }
      ],
      "stateMutability": "view",
      "type": "function"
    },
    {
      "inputs": [],
      "name": "mySentLandRequests",
      "outputs": [
        {
          "internalType": "uint256[]",
          "name": "",
          "type": "uint256[]"
        }
      ],
      "stateMutability": "view",
      "type": "function"
    },
    {
      "inputs": [
        {
          "internalType": "string",
          "name": "_name",
          "type": "string"
        },
        {
          "internalType": "string",
          "name": "_email",
          "type": "string"
        },
        {
          "internalType": "uint256",
          "name": "_age",
          "type": "uint256"
        },
        {
          "internalType": "string",
          "name": "_city",
          "type": "string"
        },
        {
          "internalType": "string",
          "name": "_aadharNumber",
          "type": "string"
        },
        {
          "internalType": "string",
          "name": "_panNumber",
          "type": "string"
        },
        {
          "internalType": "string",
          "name": "_document",
          "type": "string"
        }
      ],
      "name": "registerNewUser",
      "outputs": [],
      "stateMutability": "nonpayable",
      "type": "function"
    },
    {
      "inputs": [
        {
          "internalType": "uint256",
          "name": "_requestId",
          "type": "uint256"
        }
      ],
      "name": "rejectRequest",
      "outputs": [],
      "stateMutability": "nonpayable",
      "type": "function"
    },
    {
      "inputs": [
        {
          "internalType": "address",
          "name": "_adrs",
          "type": "address"
        }
      ],
      "name": "removeLandInspector",
      "outputs": [],
      "stateMutability": "nonpayable",
      "type": "function"
    },
    {
      "inputs": [
        {
          "internalType": "uint256",
          "name": "_landId",
          "type": "uint256"
        }
      ],
      "name": "requestforBuy",
      "outputs": [],
      "stateMutability": "nonpayable",
      "type": "function"
    },
    {
      "inputs": [],
      "name": "returnAllLandInspectors",
      "outputs": [
        {
          "internalType": "address[]",
          "name": "",
          "type": "address[]"
        }
      ],
      "stateMutability": "view",
      "type": "function"
    },
    {
      "inputs": [],
      "name": "returnAllLandInspectorsDetails",
      "outputs": [
        {
          "components": [
            {
              "internalType": "uint256",
              "name": "id",
              "type": "uint256"
            },
            {
              "internalType": "address",
              "name": "_inspectorAddress",
              "type": "address"
            },
            {
              "internalType": "string",
              "name": "name",
              "type": "string"
            },
            {
              "internalType": "uint256",
              "name": "age",
              "type": "uint256"
            },
            {
              "internalType": "string",
              "name": "city",
              "type": "string"
            }
          ],
          "internalType": "struct LandRecords.landInspector[]",
          "name": "",
          "type": "tuple[]"
        }
      ],
      "stateMutability": "view",
      "type": "function"
    },
    {
      "inputs": [],
      "name": "returnAllLands",
      "outputs": [
        {
          "components": [
            {
              "internalType": "uint256",
              "name": "id",
              "type": "uint256"
            },
            {
              "internalType": "address",
              "name": "landOwner",
              "type": "address"
            },
            {
              "internalType": "uint256",
              "name": "landArea",
              "type": "uint256"
            },
            {
              "internalType": "string",
              "name": "landAddress",
              "type": "string"
            },
            {
              "internalType": "string",
              "name": "surveyNumber",
              "type": "string"
            },
            {
              "internalType": "string",
              "name": "landDocument",
              "type": "string"
            },
            {
              "internalType": "bool",
              "name": "isLandVerified",
              "type": "bool"
            },
            {
              "internalType": "bool",
              "name": "isForSell",
              "type": "bool"
            }
          ],
          "internalType": "struct LandRecords.Land[]",
          "name": "",
          "type": "tuple[]"
        }
      ],
      "stateMutability": "view",
      "type": "function"
    },
    {
      "inputs": [
        {
          "internalType": "address",
          "name": "_adrs",
          "type": "address"
        }
      ],
      "name": "returnLandInspector",
      "outputs": [
        {
          "components": [
            {
              "internalType": "uint256",
              "name": "id",
              "type": "uint256"
            },
            {
              "internalType": "address",
              "name": "_inspectorAddress",
              "type": "address"
            },
            {
              "internalType": "string",
              "name": "name",
              "type": "string"
            },
            {
              "internalType": "uint256",
              "name": "age",
              "type": "uint256"
            },
            {
              "internalType": "string",
              "name": "city",
              "type": "string"
            }
          ],
          "internalType": "struct LandRecords.landInspector",
          "name": "",
          "type": "tuple"
        }
      ],
      "stateMutability": "view",
      "type": "function"
    },
    {
      "inputs": [
        {
          "internalType": "uint256",
          "name": "_requestId",
          "type": "uint256"
        },
        {
          "internalType": "string",
          "name": "documentUrl",
          "type": "string"
        }
      ],
      "name": "transferOwnership",
      "outputs": [
        {
          "internalType": "bool",
          "name": "",
          "type": "bool"
        }
      ],
      "stateMutability": "nonpayable",
      "type": "function"
    },
    {
      "inputs": [],
      "name": "transferRequestCount",
      "outputs": [
        {
          "internalType": "uint256",
          "name": "",
          "type": "uint256"
        }
      ],
      "stateMutability": "view",
      "type": "function"
    },
    {
      "inputs": [
        {
          "internalType": "uint256",
          "name": "id",
          "type": "uint256"
        }
      ],
      "name": "transferRequestStatus",
      "outputs": [
        {
          "internalType": "bool",
          "name": "",
          "type": "bool"
        }
      ],
      "stateMutability": "view",
      "type": "function"
    },
    {
      "inputs": [],
      "name": "userCount",
      "outputs": [
        {
          "internalType": "uint256",
          "name": "",
          "type": "uint256"
        }
      ],
      "stateMutability": "view",
      "type": "function"
    },
    {
      "inputs": [
        {
          "internalType": "uint256",
          "name": "_id",
          "type": "uint256"
        }
      ],
      "name": "verifyLand",
      "outputs": [],
      "stateMutability": "nonpayable",
      "type": "function"
    },
    {
      "inputs": [
        {
          "internalType": "address",
          "name": "_userId",
          "type": "address"
        }
      ],
      "name": "verifyUser",
      "outputs": [],
      "stateMutability": "nonpayable",
      "type": "function"
    }
  ],
  "bytecode": "0x608060405234801561001057600080fd5b50600080546001600160a01b03191633179055613dfa806100326000396000f3fe608060405234801561001057600080fd5b50600436106102695760003560e01c806393a44f8811610151578063d2d50eab116100c3578063e0bf543911610087578063e0bf5439146105bd578063e165af87146105dd578063e261f1e5146105f0578063edf5388614610617578063f9c43bdf14610640578063fa0245491461065357600080fd5b8063d2d50eab1461053f578063d3b368c014610547578063d909ecd81461055a578063de11768814610562578063de26e7c91461057557600080fd5b8063a43ec86211610115578063a43ec862146104b5578063a519e910146104bd578063ace417e0146104e1578063c26e11eb14610511578063c4f291f914610524578063d196ebf21461052c57600080fd5b806393a44f881461047557806394cffc5c1461047d5780639bf3d2a7146104905780639c32e3b414610498578063a18cb9e2146104a057600080fd5b8063499701b2116101ea5780635a3b30b6116101ae5780635a3b30b6146103a75780636cbf6cf8146103bc5780636d52fdd0146103e25780637517e00f1461043a578063780e11f81461044d5780638b1751d21461045557600080fd5b8063499701b2146103515780634ba1f098146103595780634d1043521461036c5780634d8131201461037f578063553a998d1461039257600080fd5b80632d7788db116102315780632d7788db146102e557806337a1b941146102f85780633ead67b51461030b5780634056a7981461031e57806345adac391461033157600080fd5b806307973ccf1461026e578063163f75221461028557806317b73d04146102a857806323393d77146102bb5780632653dbda146102d0575b600080fd5b6002545b6040519081526020015b60405180910390f35b6102986102933660046133dc565b610666565b604051901515815260200161027c565b6102986102b63660046134a1565b61069c565b6102c361080b565b60405161027c919061351f565b6102e36102de366004613563565b610879565b005b6102e36102f3366004613663565b610a84565b610298610306366004613663565b610ace565b6102e36103193660046133dc565b610b07565b61029861032c366004613663565b610b88565b61034461033f3660046133dc565b610bba565b60405161027c91906136c9565b6102c3610ede565b6102e3610367366004613663565b610f3d565b6102e361037a3660046137ba565b6110ab565b6102e361038d3660046133dc565b611250565b61039a61128a565b60405161027c9190613833565b6103af611301565b60405161027c919061395e565b6102986103ca366004613663565b6000908152600e602052604090206006015460ff1690565b61042a6103f0366004613663565b600f6020526000908152604090208054600182015460029092015490916001600160a01b039081169190811690600160a01b900460ff1684565b60405161027c94939291906139d6565b6102e36104483660046133dc565b6117dd565b61039a611a40565b6104686104633660046133dc565b611ab6565b60405161027c9190613a7e565b600354610272565b6102e361048b366004613663565b611c2f565b610344611c71565b6102c3611f93565b6104a8611ff2565b60405161027c9190613a91565b600154610272565b6104d06104cb3660046133dc565b61224a565b60405161027c959493929190613ae6565b6102986104ef3660046133dc565b6001600160a01b03166000908152600960208190526040909120015460ff1690565b6102e361051f366004613663565b612393565b600454610272565b6102c361053a3660046133dc565b6123d9565b600554610272565b6102e3610555366004613663565b612445565b6102c36125ab565b6102986105703660046133dc565b612629565b61042a610583366004613663565b60106020526000908152604090208054600182015460029092015490916001600160a01b039081169190811690600160a01b900460ff1684565b6105d06105cb3660046133dc565b612648565b60405161027c9190613b34565b6102986105eb3660046133dc565b612a22565b6106036105fe366004613663565b612a4b565b60405161027c989796959493929190613b47565b61062a6106253660046133dc565b612c36565b60405161027c9a99989796959493929190613bbe565b6102e361064e366004613663565b612fc4565b610298610661366004613c6e565b612ff4565b6001600160a01b0381166000908152600c602052604081205460ff161561068f57506001919050565b506000919050565b919050565b600080546001600160a01b031633146106b757506000610803565b6000546001600160a01b031633146106ce57600080fd5b6001600160a01b03851660008181526008602090815260408220805460ff191660019081179091556007909152600080516020613d85833981519152805480830182559083527fb2401e68d452ad3af4aed95d6e19d1a690ed00a9a5bee1b2b0a83b6028446a4f0180546001600160a01b0319169093179092558154919061075583613ccb565b90915550506040805160a0810182526001805482526001600160a01b0388811660208085018281528587018b8152606087018b9052608087018a90526000938452600683529690922085518155915193820180546001600160a01b0319169490931693909317909155925180519293926107d59260028501920190613244565b5060608201516003820155608082015180516107fb916004840191602090910190613244565b506001925050505b949350505050565b600160005260136020908152600080516020613d65833981519152805460408051828502810185019091528181526060939092919083018282801561086f57602002820191906000526020600020905b81548152602001906001019080831161085b575b5050505050905090565b336000908152600c602052604090205460ff161561089657600080fd5b336000908152600c60205260408120805460ff1916600117905560028054916108be83613ccb565b9091555050600080516020613da5833981519152805460018082019092557ffc2858506235d5502cafdfae2dcc7804b97258f4d77357c39b0f2a32aa2e6a50018054336001600160a01b03199182168117909255600280546000908152600a6020908152604080832080549095168617909455835161014081018552925483528281018d81528385018d905260608401869052608084018c905260a084018b905260c0840188905260e084018a90526101008401899052610120840183905294825260098152929020815181559251805191946109a19390850192910190613244565b50604082015180516109bd916002840191602090910190613244565b5060608201516003820180546001600160a01b0319166001600160a01b039092169190911790556080820151600482015560a08201518051610a09916005840191602090910190613244565b5060c08201518051610a25916006840191602090910190613244565b5060e08201518051610a41916007840191602090910190613244565b506101008201518051610a5e916008840191602090910190613244565b5061012091909101516009909101805460ff191691151591909117905550505050505050565b6000818152601060205260409020600201546001600160a01b03163314610aaa57600080fd5b6000908152601060205260409020600201805460ff60a01b1916600160a11b179055565b600060016000838152600f60205260409020600290810154600160a01b900460ff1690811115610b0057610b006139c0565b1492915050565b6000546001600160a01b03163314610b665760405162461bcd60e51b815260206004820152601960248201527f796f7520617265206e6f7420636f6e74726163744f776e65720000000000000060448201526064015b60405180910390fd5b600080546001600160a01b0319166001600160a01b0392909216919091179055565b600060016000838152601060205260409020600290810154600160a01b900460ff1690811115610b0057610b006139c0565b6001600160a01b0381166000908152600d60205260408120546060918167ffffffffffffffff811115610bef57610bef6133fe565b604051908082528060200260200182016040528015610c2857816020015b610c156132c8565b815260200190600190039081610c0d5790505b50905060005b82811015610ed6576001600160a01b0385166000908152600d602052604081208054600e92919084908110610c6557610c65613ce6565b9060005260206000200154815260200190815260200160002060405180610100016040529081600082015481526020016001820160009054906101000a90046001600160a01b03166001600160a01b03166001600160a01b0316815260200160028201548152602001600382018054610cdd90613cfc565b80601f0160208091040260200160405190810160405280929190818152602001828054610d0990613cfc565b8015610d565780601f10610d2b57610100808354040283529160200191610d56565b820191906000526020600020905b815481529060010190602001808311610d3957829003601f168201915b50505050508152602001600482018054610d6f90613cfc565b80601f0160208091040260200160405190810160405280929190818152602001828054610d9b90613cfc565b8015610de85780601f10610dbd57610100808354040283529160200191610de8565b820191906000526020600020905b815481529060010190602001808311610dcb57829003601f168201915b50505050508152602001600582018054610e0190613cfc565b80601f0160208091040260200160405190810160405280929190818152602001828054610e2d90613cfc565b8015610e7a5780601f10610e4f57610100808354040283529160200191610e7a565b820191906000526020600020905b815481529060010190602001808311610e5d57829003601f168201915b50505091835250506006919091015460ff808216151560208401526101009091041615156040909101528251839083908110610eb857610eb8613ce6565b60200260200101819052508080610ece90613ccb565b915050610c2e565b509392505050565b3360009081526011602090815260409182902080548351818402810184019094528084526060939283018282801561086f576020028201919060005260206000209081548152602001906001019080831161085b575050505050905090565b6000818152601060205260409020600201546001600160a01b03163314610f6357600080fd5b6000818152601060205260408120600201805460ff60a01b1916600160a01b1790556005805491610f9383613ccb565b90915550506040805160808101825260008381526010602090815283822080548452338285019081526001918201546001600160a01b03908116868801908152606087018681526005548752600f9095529690942085518155905191810180549285166001600160a01b03199384161790559451600280870180549290951692821683178555925194959493926001600160a81b031990911690911790600160a01b908490811115611047576110476139c0565b021790555050601460205250506005547fb6c61a840592cc84133e4b25bd509abf4659307c57b160799b38490a5aa48f2c80546001810182556000919091527f2fdc54bebe143af21bc9f7874666206c3383b1c51a1a7063fa557c077952093e0155565b336000908152600960208190526040909120015460ff166110cb57600080fd5b600380549060006110db83613ccb565b90915550506040805161010081018252600380548083523360208085019182528486018a8152606086018a8152608087018a905260a08701899052600060c0880181905260e08801819052948552600e8352969093208551815591516001830180546001600160a01b0319166001600160a01b039092169190911790559151600282015593518051939493611177938501929190910190613244565b5060808201518051611193916004840191602090910190613244565b5060a082015180516111af916005840191602090910190613244565b5060c08201516006909101805460e09093015115156101000261ff00199215159290921661ffff19909316929092171790555050336000908152600d60209081526040822060038054825460018181018555938652848620015560139092529054600080516020613d65833981519152805492830181559092527f3ce2cb385edcbf7185fd469186dd769993781141b215a1a4715ebb7f94fd59ab01555050565b61125933612a22565b61126257600080fd5b6001600160a01b0316600090815260096020819052604090912001805460ff19166001179055565b6001600052600b6020908152600080516020613da5833981519152805460408051828502810185019091528181526060939092919083018282801561086f57602002820191906000526020600020905b81546001600160a01b031681526001909101906020018083116112da575050505050905090565b60016000908152600b602052600080516020613da5833981519152546060918167ffffffffffffffff811115611339576113396133fe565b60405190808252806020026020018201604052801561137257816020015b61135f61331a565b8152602001906001900390816113575790505b50905060005b828110156117d65760016000908152600b602052600080516020613da583398151915280546009929190849081106113b2576113b2613ce6565b9060005260206000200160009054906101000a90046001600160a01b03166001600160a01b03166001600160a01b03168152602001908152602001600020604051806101400160405290816000820154815260200160018201805461141690613cfc565b80601f016020809104026020016040519081016040528092919081815260200182805461144290613cfc565b801561148f5780601f106114645761010080835404028352916020019161148f565b820191906000526020600020905b81548152906001019060200180831161147257829003601f168201915b505050505081526020016002820180546114a890613cfc565b80601f01602080910402602001604051908101604052809291908181526020018280546114d490613cfc565b80156115215780601f106114f657610100808354040283529160200191611521565b820191906000526020600020905b81548152906001019060200180831161150457829003601f168201915b505050918352505060038201546001600160a01b031660208201526004820154604082015260058201805460609092019161155b90613cfc565b80601f016020809104026020016040519081016040528092919081815260200182805461158790613cfc565b80156115d45780601f106115a9576101008083540402835291602001916115d4565b820191906000526020600020905b8154815290600101906020018083116115b757829003601f168201915b505050505081526020016006820180546115ed90613cfc565b80601f016020809104026020016040519081016040528092919081815260200182805461161990613cfc565b80156116665780601f1061163b57610100808354040283529160200191611666565b820191906000526020600020905b81548152906001019060200180831161164957829003601f168201915b5050505050815260200160078201805461167f90613cfc565b80601f01602080910402602001604051908101604052809291908181526020018280546116ab90613cfc565b80156116f85780601f106116cd576101008083540402835291602001916116f8565b820191906000526020600020905b8154815290600101906020018083116116db57829003601f168201915b5050505050815260200160088201805461171190613cfc565b80601f016020809104026020016040519081016040528092919081815260200182805461173d90613cfc565b801561178a5780601f1061175f5761010080835404028352916020019161178a565b820191906000526020600020905b81548152906001019060200180831161176d57829003601f168201915b50505091835250506009919091015460ff16151560209091015282518390839081106117b8576117b8613ce6565b602002602001018190525080806117ce90613ccb565b915050611378565b5092915050565b6000546001600160a01b031633146118375760405162461bcd60e51b815260206004820152601960248201527f596f7520617265206e6f7420636f6e74726163744f776e6572000000000000006044820152606401610b5d565b6001600160a01b03811660009081526008602052604090205460ff1661189f5760405162461bcd60e51b815260206004820152601860248201527f4c616e6420496e73706563746f72206e6f7420666f756e6400000000000000006044820152606401610b5d565b6001600160a01b03811660009081526008602090815260408220805460ff191690556001825260079052600080516020613d8583398151915254905b81811015611a3b5760016000526007602052600080516020613d8583398151915280546001600160a01b03851691908390811061191a5761191a613ce6565b6000918252602090912001546001600160a01b03161415611a2957600160008190526007602052600080516020613d858339815191529061195b9084613d37565b8154811061196b5761196b613ce6565b6000918252602080832090910154600190925260079052600080516020613d8583398151915280546001600160a01b0390921691839081106119af576119af613ce6565b600091825260208083209190910180546001600160a01b0319166001600160a01b0394909416939093179092556001905260079052600080516020613d85833981519152805480611a0257611a02613d4e565b600082815260209020810160001990810180546001600160a01b0319169055019055505050565b80611a3381613ccb565b9150506118db565b505050565b600160005260076020908152600080516020613d85833981519152805460408051828502810185019091528181526060939092919083018282801561086f576020028201919060005260206000209081546001600160a01b031681526001909101906020018083116112da575050505050905090565b611abe613378565b6001600160a01b03808316600090815260066020908152604091829020825160a081018452815481526001820154909416918401919091526002810180549192840191611b0a90613cfc565b80601f0160208091040260200160405190810160405280929190818152602001828054611b3690613cfc565b8015611b835780601f10611b5857610100808354040283529160200191611b83565b820191906000526020600020905b815481529060010190602001808311611b6657829003601f168201915b5050505050815260200160038201548152602001600482018054611ba690613cfc565b80601f0160208091040260200160405190810160405280929190818152602001828054611bd290613cfc565b8015611c1f5780601f10611bf457610100808354040283529160200191611c1f565b820191906000526020600020905b815481529060010190602001808311611c0257829003601f168201915b5050505050815250509050919050565b6000818152600e60205260409020600101546001600160a01b03163314611c5557600080fd5b6000908152600e60205260409020600601805461ff0019169055565b600160009081526013602052600080516020613d65833981519152546060918167ffffffffffffffff811115611ca957611ca96133fe565b604051908082528060200260200182016040528015611ce257816020015b611ccf6132c8565b815260200190600190039081611cc75790505b50905060005b828110156117d657600160009081526013602052600080516020613d658339815191528054600e92919084908110611d2257611d22613ce6565b9060005260206000200154815260200190815260200160002060405180610100016040529081600082015481526020016001820160009054906101000a90046001600160a01b03166001600160a01b03166001600160a01b0316815260200160028201548152602001600382018054611d9a90613cfc565b80601f0160208091040260200160405190810160405280929190818152602001828054611dc690613cfc565b8015611e135780601f10611de857610100808354040283529160200191611e13565b820191906000526020600020905b815481529060010190602001808311611df657829003601f168201915b50505050508152602001600482018054611e2c90613cfc565b80601f0160208091040260200160405190810160405280929190818152602001828054611e5890613cfc565b8015611ea55780601f10611e7a57610100808354040283529160200191611ea5565b820191906000526020600020905b815481529060010190602001808311611e8857829003601f168201915b50505050508152602001600582018054611ebe90613cfc565b80601f0160208091040260200160405190810160405280929190818152602001828054611eea90613cfc565b8015611f375780601f10611f0c57610100808354040283529160200191611f37565b820191906000526020600020905b815481529060010190602001808311611f1a57829003601f168201915b50505091835250506006919091015460ff808216151560208401526101009091041615156040909101528251839083908110611f7557611f75613ce6565b60200260200101819052508080611f8b90613ccb565b915050611ce8565b3360009081526012602090815260409182902080548351818402810184019094528084526060939283018282801561086f576020028201919060005260206000209081548152602001906001019080831161085b575050505050905090565b600160009081526007602052600080516020613d85833981519152546060918167ffffffffffffffff81111561202a5761202a6133fe565b60405190808252806020026020018201604052801561206357816020015b612050613378565b8152602001906001900390816120485790505b50905060005b828110156117d657600160009081526007602052600080516020613d8583398151915280546006929190849081106120a3576120a3613ce6565b60009182526020808320909101546001600160a01b039081168452838201949094526040928301909120825160a0810184528154815260018201549094169184019190915260028101805491928401916120fc90613cfc565b80601f016020809104026020016040519081016040528092919081815260200182805461212890613cfc565b80156121755780601f1061214a57610100808354040283529160200191612175565b820191906000526020600020905b81548152906001019060200180831161215857829003601f168201915b505050505081526020016003820154815260200160048201805461219890613cfc565b80601f01602080910402602001604051908101604052809291908181526020018280546121c490613cfc565b80156122115780601f106121e657610100808354040283529160200191612211565b820191906000526020600020905b8154815290600101906020018083116121f457829003601f168201915b50505050508152505082828151811061222c5761222c613ce6565b6020026020010181905250808061224290613ccb565b915050612069565b60066020526000908152604090208054600182015460028301805492936001600160a01b039092169261227c90613cfc565b80601f01602080910402602001604051908101604052809291908181526020018280546122a890613cfc565b80156122f55780601f106122ca576101008083540402835291602001916122f5565b820191906000526020600020905b8154815290600101906020018083116122d857829003601f168201915b50505050509080600301549080600401805461231090613cfc565b80601f016020809104026020016040519081016040528092919081815260200182805461233c90613cfc565b80156123895780601f1061235e57610100808354040283529160200191612389565b820191906000526020600020905b81548152906001019060200180831161236c57829003601f168201915b5050505050905085565b6000818152600e60205260409020600101546001600160a01b031633146123b957600080fd5b6000908152600e60205260409020600601805461ff001916610100179055565b6001600160a01b0381166000908152600d602090815260409182902080548351818402810184019094528084526060939283018282801561243957602002820191906000526020600020905b815481526020019060010190808311612425575b50505050509050919050565b336000908152600960208190526040909120015460ff16801561247957506000818152600e602052604090206006015460ff165b61248257600080fd5b6004805490600061249283613ccb565b9091555050604080516080810182526004548082523360208084019182526000868152600e82528581206001908101546001600160a01b039081168789019081526060880184815296845260109094529690912085518155925190830180549187166001600160a01b03199283161790559051600280840180549290971692821683178755935194959294936001600160a81b031990911690911790600160a01b908490811115612545576125456139c0565b021790555050506000908152600e602090815260408083206001908101546001600160a01b031684526011835281842060048054825480850184559287528587209092019190915533855260128452918420915482549182018355918452919092200155565b6001600052601460209081527fb6c61a840592cc84133e4b25bd509abf4659307c57b160799b38490a5aa48f2c805460408051828502810185019091528181526060939092919083018282801561086f576020028201919060005260206000209081548152602001906001019080831161085b575050505050905090565b600080546001600160a01b038381169116141561068f57506001919050565b61265061331a565b6001600160a01b0382166000908152600960209081526040918290208251610140810190935280548352600181018054919284019161268e90613cfc565b80601f01602080910402602001604051908101604052809291908181526020018280546126ba90613cfc565b80156127075780601f106126dc57610100808354040283529160200191612707565b820191906000526020600020905b8154815290600101906020018083116126ea57829003601f168201915b5050505050815260200160028201805461272090613cfc565b80601f016020809104026020016040519081016040528092919081815260200182805461274c90613cfc565b80156127995780601f1061276e57610100808354040283529160200191612799565b820191906000526020600020905b81548152906001019060200180831161277c57829003601f168201915b505050918352505060038201546001600160a01b03166020820152600482015460408201526005820180546060909201916127d390613cfc565b80601f01602080910402602001604051908101604052809291908181526020018280546127ff90613cfc565b801561284c5780601f106128215761010080835404028352916020019161284c565b820191906000526020600020905b81548152906001019060200180831161282f57829003601f168201915b5050505050815260200160068201805461286590613cfc565b80601f016020809104026020016040519081016040528092919081815260200182805461289190613cfc565b80156128de5780601f106128b3576101008083540402835291602001916128de565b820191906000526020600020905b8154815290600101906020018083116128c157829003601f168201915b505050505081526020016007820180546128f790613cfc565b80601f016020809104026020016040519081016040528092919081815260200182805461292390613cfc565b80156129705780601f1061294557610100808354040283529160200191612970565b820191906000526020600020905b81548152906001019060200180831161295357829003601f168201915b5050505050815260200160088201805461298990613cfc565b80601f01602080910402602001604051908101604052809291908181526020018280546129b590613cfc565b8015612a025780601f106129d757610100808354040283529160200191612a02565b820191906000526020600020905b8154815290600101906020018083116129e557829003601f168201915b50505091835250506009919091015460ff16151560209091015292915050565b6001600160a01b03811660009081526008602052604081205460ff161561068f57506001919050565b600e60205260009081526040902080546001820154600283015460038401805493946001600160a01b0390931693919291612a8590613cfc565b80601f0160208091040260200160405190810160405280929190818152602001828054612ab190613cfc565b8015612afe5780601f10612ad357610100808354040283529160200191612afe565b820191906000526020600020905b815481529060010190602001808311612ae157829003601f168201915b505050505090806004018054612b1390613cfc565b80601f0160208091040260200160405190810160405280929190818152602001828054612b3f90613cfc565b8015612b8c5780601f10612b6157610100808354040283529160200191612b8c565b820191906000526020600020905b815481529060010190602001808311612b6f57829003601f168201915b505050505090806005018054612ba190613cfc565b80601f0160208091040260200160405190810160405280929190818152602001828054612bcd90613cfc565b8015612c1a5780601f10612bef57610100808354040283529160200191612c1a565b820191906000526020600020905b815481529060010190602001808311612bfd57829003601f168201915b5050506006909301549192505060ff8082169161010090041688565b60096020526000908152604090208054600182018054919291612c5890613cfc565b80601f0160208091040260200160405190810160405280929190818152602001828054612c8490613cfc565b8015612cd15780601f10612ca657610100808354040283529160200191612cd1565b820191906000526020600020905b815481529060010190602001808311612cb457829003601f168201915b505050505090806002018054612ce690613cfc565b80601f0160208091040260200160405190810160405280929190818152602001828054612d1290613cfc565b8015612d5f5780601f10612d3457610100808354040283529160200191612d5f565b820191906000526020600020905b815481529060010190602001808311612d4257829003601f168201915b505050506003830154600484015460058501805494956001600160a01b039093169491935090612d8e90613cfc565b80601f0160208091040260200160405190810160405280929190818152602001828054612dba90613cfc565b8015612e075780601f10612ddc57610100808354040283529160200191612e07565b820191906000526020600020905b815481529060010190602001808311612dea57829003601f168201915b505050505090806006018054612e1c90613cfc565b80601f0160208091040260200160405190810160405280929190818152602001828054612e4890613cfc565b8015612e955780601f10612e6a57610100808354040283529160200191612e95565b820191906000526020600020905b815481529060010190602001808311612e7857829003601f168201915b505050505090806007018054612eaa90613cfc565b80601f0160208091040260200160405190810160405280929190818152602001828054612ed690613cfc565b8015612f235780601f10612ef857610100808354040283529160200191612f23565b820191906000526020600020905b815481529060010190602001808311612f0657829003601f168201915b505050505090806008018054612f3890613cfc565b80601f0160208091040260200160405190810160405280929190818152602001828054612f6490613cfc565b8015612fb15780601f10612f8657610100808354040283529160200191612fb1565b820191906000526020600020905b815481529060010190602001808311612f9457829003601f168201915b5050506009909301549192505060ff168a565b612fcd33612a22565b612fd657600080fd5b6000908152600e60205260409020600601805460ff19166001179055565b6000612fff33612a22565b61300857600080fd5b6000838152600f60209081526040808320600281018054600160a01b60ff60a01b198216179091556001600160a01b039081168552600d84528285208254815460018181018455928852958720909501949094559201549091168252812054905b818110156131b5576000858152600f6020908152604080832080546001909101546001600160a01b03168452600d9092529091208054839081106130af576130af613ce6565b906000526020600020015414156131a3576000858152600f602090815260408083206001908101546001600160a01b03168452600d909252909120906130f59084613d37565b8154811061310557613105613ce6565b6000918252602080832090910154878352600f82526040808420600101546001600160a01b03168452600d909252912080548390811061314757613147613ce6565b6000918252602080832090910192909255868152600f82526040808220600101546001600160a01b03168252600d9092522080548061318857613188613d4e565b600190038181906000526020600020016000905590556131b5565b806131ad81613ccb565b915050613069565b506000848152600f60209081526040808320548352600e825290912084516131e592600590920191860190613244565b505050600091825250600f6020908152604080832080548452600e909252808320600601805461ff0019169055600282015491548352909120600190810180546001600160a01b0319166001600160a01b039093169290921790915590565b82805461325090613cfc565b90600052602060002090601f01602090048101928261327257600085556132b8565b82601f1061328b57805160ff19168380011785556132b8565b828001600101855582156132b8579182015b828111156132b857825182559160200191906001019061329d565b506132c49291506133b0565b5090565b6040518061010001604052806000815260200160006001600160a01b03168152602001600081526020016060815260200160608152602001606081526020016000151581526020016000151581525090565b60405180610140016040528060008152602001606081526020016060815260200160006001600160a01b0316815260200160008152602001606081526020016060815260200160608152602001606081526020016000151581525090565b6040518060a001604052806000815260200160006001600160a01b031681526020016060815260200160008152602001606081525090565b5b808211156132c457600081556001016133b1565b80356001600160a01b038116811461069757600080fd5b6000602082840312156133ee57600080fd5b6133f7826133c5565b9392505050565b634e487b7160e01b600052604160045260246000fd5b600082601f83011261342557600080fd5b813567ffffffffffffffff80821115613440576134406133fe565b604051601f8301601f19908116603f01168101908282118183101715613468576134686133fe565b8160405283815286602085880101111561348157600080fd5b836020870160208301376000602085830101528094505050505092915050565b600080600080608085870312156134b757600080fd5b6134c0856133c5565b9350602085013567ffffffffffffffff808211156134dd57600080fd5b6134e988838901613414565b945060408701359350606087013591508082111561350657600080fd5b5061351387828801613414565b91505092959194509250565b6020808252825182820181905260009190848201906040850190845b818110156135575783518352928401929184019160010161353b565b50909695505050505050565b600080600080600080600060e0888a03121561357e57600080fd5b873567ffffffffffffffff8082111561359657600080fd5b6135a28b838c01613414565b985060208a01359150808211156135b857600080fd5b6135c48b838c01613414565b975060408a0135965060608a01359150808211156135e157600080fd5b6135ed8b838c01613414565b955060808a013591508082111561360357600080fd5b61360f8b838c01613414565b945060a08a013591508082111561362557600080fd5b6136318b838c01613414565b935060c08a013591508082111561364757600080fd5b506136548a828b01613414565b91505092959891949750929550565b60006020828403121561367557600080fd5b5035919050565b6000815180845260005b818110156136a257602081850181015186830182015201613686565b818111156136b4576000602083870101525b50601f01601f19169290920160200192915050565b60006020808301818452808551808352604092508286019150828160051b87010184880160005b838110156137ac57888303603f19018552815180518452878101516001600160a01b0381168986015261010090508782015188860152606080830151828288015261373d8388018261367c565b9250505060808083015186830382880152613758838261367c565b9250505060a08083015186830382880152613773838261367c565b9250505060c08083015161378a8288018215159052565b505060e0918201511515949091019390935293860193908601906001016136f0565b509098975050505050505050565b600080600080608085870312156137d057600080fd5b84359350602085013567ffffffffffffffff808211156137ef57600080fd5b6137fb88838901613414565b9450604087013591508082111561381157600080fd5b61381d88838901613414565b9350606087013591508082111561350657600080fd5b6020808252825182820181905260009190848201906040850190845b818110156135575783516001600160a01b03168352928401929184019160010161384f565b60006101408251845260208301518160208601526138948286018261367c565b915050604083015184820360408601526138ae828261367c565b91505060608301516138cb60608601826001600160a01b03169052565b506080830151608085015260a083015184820360a08601526138ed828261367c565b91505060c083015184820360c0860152613907828261367c565b91505060e083015184820360e0860152613921828261367c565b915050610100808401518583038287015261393c838261367c565b92505050610120808401516139548287018215159052565b5090949350505050565b6000602080830181845280855180835260408601915060408160051b870101925083870160005b828110156139b357603f198886030184526139a1858351613874565b94509285019290850190600101613985565b5092979650505050505050565b634e487b7160e01b600052602160045260246000fd5b8481526001600160a01b038481166020830152831660408201526080810160038310613a1257634e487b7160e01b600052602160045260246000fd5b82606083015295945050505050565b8051825260018060a01b0360208201511660208301526000604082015160a06040850152613a5260a085018261367c565b90506060830151606085015260808301518482036080860152613a75828261367c565b95945050505050565b6020815260006133f76020830184613a21565b6000602080830181845280855180835260408601915060408160051b870101925083870160005b828110156139b357603f19888603018452613ad4858351613a21565b94509285019290850190600101613ab8565b8581526001600160a01b038516602082015260a060408201819052600090613b109083018661367c565b8460608401528281036080840152613b28818561367c565b98975050505050505050565b6020815260006133f76020830184613874565b8881526001600160a01b03881660208201526040810187905261010060608201819052600090613b798382018961367c565b90508281036080840152613b8d818861367c565b905082810360a0840152613ba1818761367c565b94151560c0840152505090151560e0909101529695505050505050565b60006101408c8352806020840152613bd88184018d61367c565b90508281036040840152613bec818c61367c565b6001600160a01b038b166060850152608084018a905283810360a08501529050613c16818961367c565b905082810360c0840152613c2a818861367c565b905082810360e0840152613c3e818761367c565b9050828103610100840152613c53818661367c565b9150508215156101208301529b9a5050505050505050505050565b60008060408385031215613c8157600080fd5b82359150602083013567ffffffffffffffff811115613c9f57600080fd5b613cab85828601613414565b9150509250929050565b634e487b7160e01b600052601160045260246000fd5b6000600019821415613cdf57613cdf613cb5565b5060010190565b634e487b7160e01b600052603260045260246000fd5b600181811c90821680613d1057607f821691505b60208210811415613d3157634e487b7160e01b600052602260045260246000fd5b50919050565b600082821015613d4957613d49613cb5565b500390565b634e487b7160e01b600052603160045260246000fdfe4155c2f711f2cdd34f8262ab8fb9b7020a700fe7b6948222152f7670d1fdf34db39221ace053465ec3453ce2b36430bd138b997ecea25c1043da0c366812b82872c6bfb7988af3a1efa6568f02a999bc52252641c659d85961ca3d372b57d5cfa2646970667358221220be694a023b3f0725bae399cdb85f8453f3ca49f4265a79ba748af8c4220a141464736f6c63430008090033",
  "linkReferences": {},
  "deployedLinkReferences": {}
}