{
  "_format": "hh-sol-artifact-1",
  "contractName": "LandRecords",
  "sourceName": "contracts/LandRecords.sol",
  "abi": [
    {
      "inputs": [],
      "stateMutability": "nonpayable",
      "type": "constructor"
    },
    {
      "inputs": [
        {
          "internalType": "uint256",
          "name": "",
          "type": "uint256"
        }
      ],
      "name": "BuyRequest",
      "outputs": [
        {
          "internalType": "uint256",
          "name": "landId",
          "type": "uint256"
        },
        {
          "internalType": "address",
          "name": "buyerId",
          "type": "address"
        },
        {
          "internalType": "address",
          "name": "sellerId",
          "type": "address"
        },
        {
          "internalType": "enum LandRecords.reqStatus",
          "name": "requestStatus",
          "type": "uint8"
        }
      ],
      "stateMutability": "view",
      "type": "function"
    },
    {
      "inputs": [],
      "name": "InspectorCount",
      "outputs": [
        {
          "internalType": "uint256",
          "name": "",
          "type": "uint256"
        }
      ],
      "stateMutability": "view",
      "type": "function"
    },
    {
      "inputs": [],
      "name": "LandCount",
      "outputs": [
        {
          "internalType": "uint256",
          "name": "",
          "type": "uint256"
        }
      ],
      "stateMutability": "view",
      "type": "function"
    },
    {
      "inputs": [],
      "name": "ReturnAllLandList",
      "outputs": [
        {
          "internalType": "uint256[]",
          "name": "",
          "type": "uint256[]"
        }
      ],
      "stateMutability": "view",
      "type": "function"
    },
    {
      "inputs": [],
      "name": "ReturnAllUserList",
      "outputs": [
        {
          "internalType": "address[]",
          "name": "",
          "type": "address[]"
        }
      ],
      "stateMutability": "view",
      "type": "function"
    },
    {
      "inputs": [
        {
          "internalType": "uint256",
          "name": "",
          "type": "uint256"
        }
      ],
      "name": "TransferRequest",
      "outputs": [
        {
          "internalType": "uint256",
          "name": "landId",
          "type": "uint256"
        },
        {
          "internalType": "address",
          "name": "sellerId",
          "type": "address"
        },
        {
          "internalType": "address",
          "name": "buyerId",
          "type": "address"
        },
        {
          "internalType": "enum LandRecords.reqStatus",
          "name": "requestStatus",
          "type": "uint8"
        }
      ],
      "stateMutability": "view",
      "type": "function"
    },
    {
      "inputs": [
        {
          "internalType": "uint256",
          "name": "_requestId",
          "type": "uint256"
        }
      ],
      "name": "acceptRequest",
      "outputs": [],
      "stateMutability": "nonpayable",
      "type": "function"
    },
    {
      "inputs": [
        {
          "internalType": "uint256",
          "name": "_area",
          "type": "uint256"
        },
        {
          "internalType": "string",
          "name": "_address",
          "type": "string"
        },
        {
          "internalType": "string",
          "name": "_surveyNum",
          "type": "string"
        },
        {
          "internalType": "string",
          "name": "_document",
          "type": "string"
        }
      ],
      "name": "addLand",
      "outputs": [],
      "stateMutability": "nonpayable",
      "type": "function"
    },
    {
      "inputs": [
        {
          "internalType": "address",
          "name": "_address",
          "type": "address"
        },
        {
          "internalType": "string",
          "name": "_name",
          "type": "string"
        },
        {
          "internalType": "uint256",
          "name": "_age",
          "type": "uint256"
        },
        {
          "internalType": "string",
          "name": "_city",
          "type": "string"
        }
      ],
      "name": "addLandInspector",
      "outputs": [
        {
          "internalType": "bool",
          "name": "",
          "type": "bool"
        }
      ],
      "stateMutability": "nonpayable",
      "type": "function"
    },
    {
      "inputs": [
        {
          "internalType": "address",
          "name": "",
          "type": "address"
        }
      ],
      "name": "addressToInspector",
      "outputs": [
        {
          "internalType": "uint256",
          "name": "id",
          "type": "uint256"
        },
        {
          "internalType": "address",
          "name": "_inspectorAddress",
          "type": "address"
        },
        {
          "internalType": "string",
          "name": "name",
          "type": "string"
        },
        {
          "internalType": "uint256",
          "name": "age",
          "type": "uint256"
        },
        {
          "internalType": "string",
          "name": "city",
          "type": "string"
        }
      ],
      "stateMutability": "view",
      "type": "function"
    },
    {
      "inputs": [
        {
          "internalType": "address",
          "name": "",
          "type": "address"
        }
      ],
      "name": "addressToUser",
      "outputs": [
        {
          "internalType": "string",
          "name": "name",
          "type": "string"
        },
        {
          "internalType": "string",
          "name": "email",
          "type": "string"
        },
        {
          "internalType": "address",
          "name": "id",
          "type": "address"
        },
        {
          "internalType": "uint256",
          "name": "age",
          "type": "uint256"
        },
        {
          "internalType": "string",
          "name": "city",
          "type": "string"
        },
        {
          "internalType": "string",
          "name": "document",
          "type": "string"
        },
        {
          "internalType": "string",
          "name": "aadharCard",
          "type": "string"
        },
        {
          "internalType": "string",
          "name": "panCard",
          "type": "string"
        },
        {
          "internalType": "bool",
          "name": "isVerified",
          "type": "bool"
        }
      ],
      "stateMutability": "view",
      "type": "function"
    },
    {
      "inputs": [],
      "name": "allTransferRequestList",
      "outputs": [
        {
          "internalType": "uint256[]",
          "name": "",
          "type": "uint256[]"
        }
      ],
      "stateMutability": "view",
      "type": "function"
    },
    {
      "inputs": [],
      "name": "buyRequestCount",
      "outputs": [
        {
          "internalType": "uint256",
          "name": "",
          "type": "uint256"
        }
      ],
      "stateMutability": "view",
      "type": "function"
    },
    {
      "inputs": [
        {
          "internalType": "uint256",
          "name": "id",
          "type": "uint256"
        }
      ],
      "name": "buyRequestStatus",
      "outputs": [
        {
          "internalType": "bool",
          "name": "",
          "type": "bool"
        }
      ],
      "stateMutability": "view",
      "type": "function"
    },
    {
      "inputs": [
        {
          "internalType": "address",
          "name": "_address",
          "type": "address"
        }
      ],
      "name": "changeContractOwner",
      "outputs": [],
      "stateMutability": "nonpayable",
      "type": "function"
    },
    {
      "inputs": [
        {
          "internalType": "address",
          "name": "_address",
          "type": "address"
        }
      ],
      "name": "isContractOwner",
      "outputs": [
        {
          "internalType": "bool",
          "name": "",
          "type": "bool"
        }
      ],
      "stateMutability": "view",
      "type": "function"
    },
    {
      "inputs": [
        {
          "internalType": "address",
          "name": "_id",
          "type": "address"
        }
      ],
      "name": "isLandInspector",
      "outputs": [
        {
          "internalType": "bool",
          "name": "",
          "type": "bool"
        }
      ],
      "stateMutability": "view",
      "type": "function"
    },
    {
      "inputs": [
        {
          "internalType": "uint256",
          "name": "id",
          "type": "uint256"
        }
      ],
      "name": "isLandVerified",
      "outputs": [
        {
          "internalType": "bool",
          "name": "",
          "type": "bool"
        }
      ],
      "stateMutability": "view",
      "type": "function"
    },
    {
      "inputs": [
        {
          "internalType": "address",
          "name": "_addr",
          "type": "address"
        }
      ],
      "name": "isUserRegistered",
      "outputs": [
        {
          "internalType": "bool",
          "name": "",
          "type": "bool"
        }
      ],
      "stateMutability": "view",
      "type": "function"
    },
    {
      "inputs": [
        {
          "internalType": "address",
          "name": "id",
          "type": "address"
        }
      ],
      "name": "isUserVerified",
      "outputs": [
        {
          "internalType": "bool",
          "name": "",
          "type": "bool"
        }
      ],
      "stateMutability": "view",
      "type": "function"
    },
    {
      "inputs": [
        {
          "internalType": "uint256",
          "name": "",
          "type": "uint256"
        }
      ],
      "name": "lands",
      "outputs": [
        {
          "internalType": "uint256",
          "name": "id",
          "type": "uint256"
        },
        {
          "internalType": "address",
          "name": "landOwner",
          "type": "address"
        },
        {
          "internalType": "uint256",
          "name": "landArea",
          "type": "uint256"
        },
        {
          "internalType": "string",
          "name": "landAddress",
          "type": "string"
        },
        {
          "internalType": "string",
          "name": "surveyNumber",
          "type": "string"
        },
        {
          "internalType": "string",
          "name": "landDocument",
          "type": "string"
        },
        {
          "internalType": "bool",
          "name": "isLandVerified",
          "type": "bool"
        },
        {
          "internalType": "bool",
          "name": "isForSell",
          "type": "bool"
        }
      ],
      "stateMutability": "view",
      "type": "function"
    },
    {
      "inputs": [
        {
          "internalType": "uint256",
          "name": "id",
          "type": "uint256"
        }
      ],
      "name": "makeItNotforSell",
      "outputs": [],
      "stateMutability": "nonpayable",
      "type": "function"
    },
    {
      "inputs": [
        {
          "internalType": "uint256",
          "name": "id",
          "type": "uint256"
        }
      ],
      "name": "makeItforSell",
      "outputs": [],
      "stateMutability": "nonpayable",
      "type": "function"
    },
    {
      "inputs": [
        {
          "internalType": "address",
          "name": "id",
          "type": "address"
        }
      ],
      "name": "myAllLands",
      "outputs": [
        {
          "internalType": "uint256[]",
          "name": "",
          "type": "uint256[]"
        }
      ],
      "stateMutability": "view",
      "type": "function"
    },
    {
      "inputs": [],
      "name": "myReceivedLandRequests",
      "outputs": [
        {
          "internalType": "uint256[]",
          "name": "",
          "type": "uint256[]"
        }
      ],
      "stateMutability": "view",
      "type": "function"
    },
    {
      "inputs": [],
      "name": "mySentLandRequests",
      "outputs": [
        {
          "internalType": "uint256[]",
          "name": "",
          "type": "uint256[]"
        }
      ],
      "stateMutability": "view",
      "type": "function"
    },
    {
      "inputs": [
        {
          "internalType": "string",
          "name": "_name",
          "type": "string"
        },
        {
          "internalType": "string",
          "name": "_email",
          "type": "string"
        },
        {
          "internalType": "uint256",
          "name": "_age",
          "type": "uint256"
        },
        {
          "internalType": "string",
          "name": "_city",
          "type": "string"
        },
        {
          "internalType": "string",
          "name": "_aadharNumber",
          "type": "string"
        },
        {
          "internalType": "string",
          "name": "_panNumber",
          "type": "string"
        },
        {
          "internalType": "string",
          "name": "_document",
          "type": "string"
        }
      ],
      "name": "registerNewUser",
      "outputs": [],
      "stateMutability": "nonpayable",
      "type": "function"
    },
    {
      "inputs": [
        {
          "internalType": "uint256",
          "name": "_requestId",
          "type": "uint256"
        }
      ],
      "name": "rejectRequest",
      "outputs": [],
      "stateMutability": "nonpayable",
      "type": "function"
    },
    {
      "inputs": [
        {
          "internalType": "address",
          "name": "_adrs",
          "type": "address"
        }
      ],
      "name": "removeLandInspector",
      "outputs": [],
      "stateMutability": "nonpayable",
      "type": "function"
    },
    {
      "inputs": [
        {
          "internalType": "uint256",
          "name": "_landId",
          "type": "uint256"
        }
      ],
      "name": "requestforBuy",
      "outputs": [],
      "stateMutability": "nonpayable",
      "type": "function"
    },
    {
      "inputs": [],
      "name": "returnAllLandInspectors",
      "outputs": [
        {
          "internalType": "address[]",
          "name": "",
          "type": "address[]"
        }
      ],
      "stateMutability": "view",
      "type": "function"
    },
    {
      "inputs": [],
      "name": "returnAllLandInspectorsDetails",
      "outputs": [
        {
          "components": [
            {
              "internalType": "uint256",
              "name": "id",
              "type": "uint256"
            },
            {
              "internalType": "address",
              "name": "_inspectorAddress",
              "type": "address"
            },
            {
              "internalType": "string",
              "name": "name",
              "type": "string"
            },
            {
              "internalType": "uint256",
              "name": "age",
              "type": "uint256"
            },
            {
              "internalType": "string",
              "name": "city",
              "type": "string"
            }
          ],
          "internalType": "struct LandRecords.landInspector[]",
          "name": "",
          "type": "tuple[]"
        }
      ],
      "stateMutability": "view",
      "type": "function"
    },
    {
      "inputs": [
        {
          "internalType": "uint256",
          "name": "_requestId",
          "type": "uint256"
        },
        {
          "internalType": "string",
          "name": "documentUrl",
          "type": "string"
        }
      ],
      "name": "transferOwnership",
      "outputs": [
        {
          "internalType": "bool",
          "name": "",
          "type": "bool"
        }
      ],
      "stateMutability": "nonpayable",
      "type": "function"
    },
    {
      "inputs": [],
      "name": "transferRequestCount",
      "outputs": [
        {
          "internalType": "uint256",
          "name": "",
          "type": "uint256"
        }
      ],
      "stateMutability": "view",
      "type": "function"
    },
    {
      "inputs": [
        {
          "internalType": "uint256",
          "name": "id",
          "type": "uint256"
        }
      ],
      "name": "transferRequestStatus",
      "outputs": [
        {
          "internalType": "bool",
          "name": "",
          "type": "bool"
        }
      ],
      "stateMutability": "view",
      "type": "function"
    },
    {
      "inputs": [],
      "name": "userCount",
      "outputs": [
        {
          "internalType": "uint256",
          "name": "",
          "type": "uint256"
        }
      ],
      "stateMutability": "view",
      "type": "function"
    },
    {
      "inputs": [
        {
          "internalType": "uint256",
          "name": "_id",
          "type": "uint256"
        }
      ],
      "name": "verifyLand",
      "outputs": [],
      "stateMutability": "nonpayable",
      "type": "function"
    },
    {
      "inputs": [
        {
          "internalType": "address",
          "name": "_userId",
          "type": "address"
        }
      ],
      "name": "verifyUser",
      "outputs": [],
      "stateMutability": "nonpayable",
      "type": "function"
    }
  ],
  "bytecode": "0x608060405234801561001057600080fd5b50600080546001600160a01b031916331790556129a0806100326000396000f3fe608060405234801561001057600080fd5b50600436106102325760003560e01c806394cffc5c11610130578063d2d50eab116100b8578063e165af871161007c578063e165af8714610528578063e261f1e51461053b578063edf5388614610562578063f9c43bdf1461058a578063fa0245491461059d57600080fd5b8063d2d50eab146104aa578063d3b368c0146104b2578063d909ecd8146104c5578063de117688146104cd578063de26e7c9146104e057600080fd5b8063a519e910116100ff578063a519e91014610429578063ace417e01461044d578063c26e11eb1461047c578063c4f291f91461048f578063d196ebf21461049757600080fd5b806394cffc5c146103f15780639c32e3b414610404578063a18cb9e21461040c578063a43ec8621461042157600080fd5b8063499701b2116101be5780636cbf6cf8116101825780636cbf6cf8146103505780636d52fdd0146103765780637517e00f146103ce578063780e11f8146103e157806393a44f88146103e957600080fd5b8063499701b2146102fa5780634ba1f098146103025780634d104352146103155780634d81312014610328578063553a998d1461033b57600080fd5b80632653dbda116102055780632653dbda146102995780632d7788db146102ae57806337a1b941146102c15780633ead67b5146102d45780634056a798146102e757600080fd5b806307973ccf14610237578063163f75221461024e57806317b73d041461027157806323393d7714610284575b600080fd5b6002545b6040519081526020015b60405180910390f35b61026161025c36600461222d565b6105b0565b6040519015158152602001610245565b61026161027f3660046122f2565b6105e6565b61028c610755565b6040516102459190612370565b6102ac6102a73660046123b4565b6107d5565b005b6102ac6102bc3660046124b4565b6109de565b6102616102cf3660046124b4565b610a28565b6102ac6102e236600461222d565b610a61565b6102616102f53660046124b4565b610ae2565b61028c610b14565b6102ac6103103660046124b4565b610b73565b6102ac6103233660046124cd565b610ce1565b6102ac61033636600461222d565b610e97565b610343610ed0565b6040516102459190612546565b61026161035e3660046124b4565b6000908152600e602052604090206006015460ff1690565b6103be6103843660046124b4565b600f6020526000908152604090208054600182015460029092015490916001600160a01b039081169190811690600160a01b900460ff1684565b604051610245949392919061259d565b6102ac6103dc36600461222d565b610f59565b6103436111bc565b60035461023b565b6102ac6103ff3660046124b4565b611232565b61028c611274565b6104146112d3565b6040516102459190612635565b60015461023b565b61043c61043736600461222d565b611565565b6040516102459594939291906126e7565b61026161045b36600461222d565b6001600160a01b031660009081526009602052604090206008015460ff1690565b6102ac61048a3660046124b4565b6116ae565b60045461023b565b61028c6104a536600461222d565b6116f4565b60055461023b565b6102ac6104c03660046124b4565b611760565b61028c6118c5565b6102616104db36600461222d565b611943565b6103be6104ee3660046124b4565b60106020526000908152604090208054600182015460029092015490916001600160a01b039081169190811690600160a01b900460ff1684565b61026161053636600461222d565b611962565b61054e6105493660046124b4565b61198b565b604051610245989796959493929190612735565b61057561057036600461222d565b611b76565b604051610245999897969594939291906127ac565b6102ac6105983660046124b4565b611efd565b6102616105ab366004612854565b611f2d565b6001600160a01b0381166000908152600c602052604081205460ff16156105d957506001919050565b506000919050565b919050565b600080546001600160a01b031633146106015750600061074d565b6000546001600160a01b0316331461061857600080fd5b6001600160a01b03851660008181526008602090815260408220805460ff19166001908117909155600790915260008051602061294b833981519152805480830182559083527fb2401e68d452ad3af4aed95d6e19d1a690ed00a9a5bee1b2b0a83b6028446a4f0180546001600160a01b0319169093179092558154919061069f836128b1565b90915550506040805160a0810182526001805482526001600160a01b0388811660208085018281528587018b8152606087018b9052608087018a90526000938452600683529690922085518155915193820180546001600160a01b03191694909316939093179091559251805192939261071f926002850192019061217d565b50606082015160038201556080820151805161074591600484019160209091019061217d565b506001925050505b949350505050565b6001600052601360209081527f4155c2f711f2cdd34f8262ab8fb9b7020a700fe7b6948222152f7670d1fdf34d80546040805182850281018501909152818152606093909291908301828280156107cb57602002820191906000526020600020905b8154815260200190600101908083116107b7575b5050505050905090565b336000908152600c602052604090205460ff16156107f257600080fd5b336000908152600c60205260408120805460ff19166001179055600280549161081a836128b1565b90915550507f72c6bfb7988af3a1efa6568f02a999bc52252641c659d85961ca3d372b57d5cf8054600181019091557ffc2858506235d5502cafdfae2dcc7804b97258f4d77357c39b0f2a32aa2e6a50018054336001600160a01b031991821681179092556002546000908152600a60209081526040808320805490941685179093558251610120810184528b81528082018b9052808401859052606081018a90526080810189905260a0810186905260c0810188905260e081018790526101008101839052938252600981529190208251805191926108ff9284929091019061217d565b506020828101518051610918926001850192019061217d565b5060408201516002820180546001600160a01b0319166001600160a01b03909216919091179055606082015160038201556080820151805161096491600484019160209091019061217d565b5060a0820151805161098091600584019160209091019061217d565b5060c0820151805161099c91600684019160209091019061217d565b5060e082015180516109b891600784019160209091019061217d565b5061010091909101516008909101805460ff191691151591909117905550505050505050565b6000818152601060205260409020600201546001600160a01b03163314610a0457600080fd5b6000908152601060205260409020600201805460ff60a01b1916600160a11b179055565b600060016000838152600f60205260409020600290810154600160a01b900460ff1690811115610a5a57610a5a612587565b1492915050565b6000546001600160a01b03163314610ac05760405162461bcd60e51b815260206004820152601960248201527f796f7520617265206e6f7420636f6e74726163744f776e65720000000000000060448201526064015b60405180910390fd5b600080546001600160a01b0319166001600160a01b0392909216919091179055565b600060016000838152601060205260409020600290810154600160a01b900460ff1690811115610a5a57610a5a612587565b336000908152601160209081526040918290208054835181840281018401909452808452606093928301828280156107cb57602002820191906000526020600020908154815260200190600101908083116107b7575050505050905090565b6000818152601060205260409020600201546001600160a01b03163314610b9957600080fd5b6000818152601060205260408120600201805460ff60a01b1916600160a01b1790556005805491610bc9836128b1565b90915550506040805160808101825260008381526010602090815283822080548452338285019081526001918201546001600160a01b03908116868801908152606087018681526005548752600f9095529690942085518155905191810180549285166001600160a01b03199384161790559451600280870180549290951692821683178555925194959493926001600160a81b031990911690911790600160a01b908490811115610c7d57610c7d612587565b021790555050601460205250506005547fb6c61a840592cc84133e4b25bd509abf4659307c57b160799b38490a5aa48f2c80546001810182556000919091527f2fdc54bebe143af21bc9f7874666206c3383b1c51a1a7063fa557c077952093e0155565b3360009081526009602052604090206008015460ff16610d0057600080fd5b60038054906000610d10836128b1565b90915550506040805161010081018252600380548083523360208085019182528486018a8152606086018a8152608087018a905260a08701899052600060c0880181905260e08801819052948552600e8352969093208551815591516001830180546001600160a01b0319166001600160a01b039092169190911790559151600282015593518051939493610dac93850192919091019061217d565b5060808201518051610dc891600484019160209091019061217d565b5060a08201518051610de491600584019160209091019061217d565b5060c08201516006909101805460e09093015115156101000261ff00199215159290921661ffff19909316929092171790555050336000908152600d602090815260408220600380548254600181810185559386528486200155601390925290547f4155c2f711f2cdd34f8262ab8fb9b7020a700fe7b6948222152f7670d1fdf34d805492830181559092527f3ce2cb385edcbf7185fd469186dd769993781141b215a1a4715ebb7f94fd59ab01555050565b610ea033611962565b610ea957600080fd5b6001600160a01b03166000908152600960205260409020600801805460ff19166001179055565b6001600052600b60209081527f72c6bfb7988af3a1efa6568f02a999bc52252641c659d85961ca3d372b57d5cf80546040805182850281018501909152818152606093909291908301828280156107cb57602002820191906000526020600020905b81546001600160a01b03168152600190910190602001808311610f32575050505050905090565b6000546001600160a01b03163314610fb35760405162461bcd60e51b815260206004820152601960248201527f596f7520617265206e6f7420636f6e74726163744f776e6572000000000000006044820152606401610ab7565b6001600160a01b03811660009081526008602052604090205460ff1661101b5760405162461bcd60e51b815260206004820152601860248201527f4c616e6420496e73706563746f72206e6f7420666f756e6400000000000000006044820152606401610ab7565b6001600160a01b03811660009081526008602090815260408220805460ff19169055600182526007905260008051602061294b83398151915254905b818110156111b7576001600052600760205260008051602061294b83398151915280546001600160a01b038516919083908110611096576110966128cc565b6000918252602090912001546001600160a01b031614156111a55760016000819052600760205260008051602061294b833981519152906110d790846128e2565b815481106110e7576110e76128cc565b600091825260208083209091015460019092526007905260008051602061294b83398151915280546001600160a01b03909216918390811061112b5761112b6128cc565b600091825260208083209190910180546001600160a01b0319166001600160a01b039490941693909317909255600190526007905260008051602061294b83398151915280548061117e5761117e6128f9565b600082815260209020810160001990810180546001600160a01b0319169055019055505050565b806111af816128b1565b915050611057565b505050565b60016000526007602090815260008051602061294b83398151915280546040805182850281018501909152818152606093909291908301828280156107cb576020028201919060005260206000209081546001600160a01b03168152600190910190602001808311610f32575050505050905090565b6000818152600e60205260409020600101546001600160a01b0316331461125857600080fd5b6000908152600e60205260409020600601805461ff0019169055565b336000908152601260209081526040918290208054835181840281018401909452808452606093928301828280156107cb57602002820191906000526020600020908154815260200190600101908083116107b7575050505050905090565b60016000908152600760205260008051602061294b833981519152546060918167ffffffffffffffff81111561130b5761130b61224f565b60405190808252806020026020018201604052801561137757816020015b6113646040518060a001604052806000815260200160006001600160a01b031681526020016060815260200160008152602001606081525090565b8152602001906001900390816113295790505b50905060005b8281101561155e5760016000908152600760205260008051602061294b83398151915280546006929190849081106113b7576113b76128cc565b60009182526020808320909101546001600160a01b039081168452838201949094526040928301909120825160a0810184528154815260018201549094169184019190915260028101805491928401916114109061290f565b80601f016020809104026020016040519081016040528092919081815260200182805461143c9061290f565b80156114895780601f1061145e57610100808354040283529160200191611489565b820191906000526020600020905b81548152906001019060200180831161146c57829003601f168201915b50505050508152602001600382015481526020016004820180546114ac9061290f565b80601f01602080910402602001604051908101604052809291908181526020018280546114d89061290f565b80156115255780601f106114fa57610100808354040283529160200191611525565b820191906000526020600020905b81548152906001019060200180831161150857829003601f168201915b505050505081525050828281518110611540576115406128cc565b60200260200101819052508080611556906128b1565b91505061137d565b5092915050565b60066020526000908152604090208054600182015460028301805492936001600160a01b03909216926115979061290f565b80601f01602080910402602001604051908101604052809291908181526020018280546115c39061290f565b80156116105780601f106115e557610100808354040283529160200191611610565b820191906000526020600020905b8154815290600101906020018083116115f357829003601f168201915b50505050509080600301549080600401805461162b9061290f565b80601f01602080910402602001604051908101604052809291908181526020018280546116579061290f565b80156116a45780601f10611679576101008083540402835291602001916116a4565b820191906000526020600020905b81548152906001019060200180831161168757829003601f168201915b5050505050905085565b6000818152600e60205260409020600101546001600160a01b031633146116d457600080fd5b6000908152600e60205260409020600601805461ff001916610100179055565b6001600160a01b0381166000908152600d602090815260409182902080548351818402810184019094528084526060939283018282801561175457602002820191906000526020600020905b815481526020019060010190808311611740575b50505050509050919050565b3360009081526009602052604090206008015460ff16801561179357506000818152600e602052604090206006015460ff165b61179c57600080fd5b600480549060006117ac836128b1565b9091555050604080516080810182526004548082523360208084019182526000868152600e82528581206001908101546001600160a01b039081168789019081526060880184815296845260109094529690912085518155925190830180549187166001600160a01b03199283161790559051600280840180549290971692821683178755935194959294936001600160a81b031990911690911790600160a01b90849081111561185f5761185f612587565b021790555050506000908152600e602090815260408083206001908101546001600160a01b031684526011835281842060048054825480850184559287528587209092019190915533855260128452918420915482549182018355918452919092200155565b6001600052601460209081527fb6c61a840592cc84133e4b25bd509abf4659307c57b160799b38490a5aa48f2c80546040805182850281018501909152818152606093909291908301828280156107cb57602002820191906000526020600020908154815260200190600101908083116107b7575050505050905090565b600080546001600160a01b03838116911614156105d957506001919050565b6001600160a01b03811660009081526008602052604081205460ff16156105d957506001919050565b600e60205260009081526040902080546001820154600283015460038401805493946001600160a01b03909316939192916119c59061290f565b80601f01602080910402602001604051908101604052809291908181526020018280546119f19061290f565b8015611a3e5780601f10611a1357610100808354040283529160200191611a3e565b820191906000526020600020905b815481529060010190602001808311611a2157829003601f168201915b505050505090806004018054611a539061290f565b80601f0160208091040260200160405190810160405280929190818152602001828054611a7f9061290f565b8015611acc5780601f10611aa157610100808354040283529160200191611acc565b820191906000526020600020905b815481529060010190602001808311611aaf57829003601f168201915b505050505090806005018054611ae19061290f565b80601f0160208091040260200160405190810160405280929190818152602001828054611b0d9061290f565b8015611b5a5780601f10611b2f57610100808354040283529160200191611b5a565b820191906000526020600020905b815481529060010190602001808311611b3d57829003601f168201915b5050506006909301549192505060ff8082169161010090041688565b600960205260009081526040902080548190611b919061290f565b80601f0160208091040260200160405190810160405280929190818152602001828054611bbd9061290f565b8015611c0a5780601f10611bdf57610100808354040283529160200191611c0a565b820191906000526020600020905b815481529060010190602001808311611bed57829003601f168201915b505050505090806001018054611c1f9061290f565b80601f0160208091040260200160405190810160405280929190818152602001828054611c4b9061290f565b8015611c985780601f10611c6d57610100808354040283529160200191611c98565b820191906000526020600020905b815481529060010190602001808311611c7b57829003601f168201915b505050506002830154600384015460048501805494956001600160a01b039093169491935090611cc79061290f565b80601f0160208091040260200160405190810160405280929190818152602001828054611cf39061290f565b8015611d405780601f10611d1557610100808354040283529160200191611d40565b820191906000526020600020905b815481529060010190602001808311611d2357829003601f168201915b505050505090806005018054611d559061290f565b80601f0160208091040260200160405190810160405280929190818152602001828054611d819061290f565b8015611dce5780601f10611da357610100808354040283529160200191611dce565b820191906000526020600020905b815481529060010190602001808311611db157829003601f168201915b505050505090806006018054611de39061290f565b80601f0160208091040260200160405190810160405280929190818152602001828054611e0f9061290f565b8015611e5c5780601f10611e3157610100808354040283529160200191611e5c565b820191906000526020600020905b815481529060010190602001808311611e3f57829003601f168201915b505050505090806007018054611e719061290f565b80601f0160208091040260200160405190810160405280929190818152602001828054611e9d9061290f565b8015611eea5780601f10611ebf57610100808354040283529160200191611eea565b820191906000526020600020905b815481529060010190602001808311611ecd57829003601f168201915b5050506008909301549192505060ff1689565b611f0633611962565b611f0f57600080fd5b6000908152600e60205260409020600601805460ff19166001179055565b6000611f3833611962565b611f4157600080fd5b6000838152600f60209081526040808320600281018054600160a01b60ff60a01b198216179091556001600160a01b039081168552600d84528285208254815460018181018455928852958720909501949094559201549091168252812054905b818110156120ee576000858152600f6020908152604080832080546001909101546001600160a01b03168452600d909252909120805483908110611fe857611fe86128cc565b906000526020600020015414156120dc576000858152600f602090815260408083206001908101546001600160a01b03168452600d9092529091209061202e90846128e2565b8154811061203e5761203e6128cc565b6000918252602080832090910154878352600f82526040808420600101546001600160a01b03168452600d9092529120805483908110612080576120806128cc565b6000918252602080832090910192909255868152600f82526040808220600101546001600160a01b03168252600d909252208054806120c1576120c16128f9565b600190038181906000526020600020016000905590556120ee565b806120e6816128b1565b915050611fa2565b506000848152600f60209081526040808320548352600e8252909120845161211e9260059092019186019061217d565b505050600091825250600f6020908152604080832080548452600e909252808320600601805461ff0019169055600282015491548352909120600190810180546001600160a01b0319166001600160a01b039093169290921790915590565b8280546121899061290f565b90600052602060002090601f0160209004810192826121ab57600085556121f1565b82601f106121c457805160ff19168380011785556121f1565b828001600101855582156121f1579182015b828111156121f15782518255916020019190600101906121d6565b506121fd929150612201565b5090565b5b808211156121fd5760008155600101612202565b80356001600160a01b03811681146105e157600080fd5b60006020828403121561223f57600080fd5b61224882612216565b9392505050565b634e487b7160e01b600052604160045260246000fd5b600082601f83011261227657600080fd5b813567ffffffffffffffff808211156122915761229161224f565b604051601f8301601f19908116603f011681019082821181831017156122b9576122b961224f565b816040528381528660208588010111156122d257600080fd5b836020870160208301376000602085830101528094505050505092915050565b6000806000806080858703121561230857600080fd5b61231185612216565b9350602085013567ffffffffffffffff8082111561232e57600080fd5b61233a88838901612265565b945060408701359350606087013591508082111561235757600080fd5b5061236487828801612265565b91505092959194509250565b6020808252825182820181905260009190848201906040850190845b818110156123a85783518352928401929184019160010161238c565b50909695505050505050565b600080600080600080600060e0888a0312156123cf57600080fd5b873567ffffffffffffffff808211156123e757600080fd5b6123f38b838c01612265565b985060208a013591508082111561240957600080fd5b6124158b838c01612265565b975060408a0135965060608a013591508082111561243257600080fd5b61243e8b838c01612265565b955060808a013591508082111561245457600080fd5b6124608b838c01612265565b945060a08a013591508082111561247657600080fd5b6124828b838c01612265565b935060c08a013591508082111561249857600080fd5b506124a58a828b01612265565b91505092959891949750929550565b6000602082840312156124c657600080fd5b5035919050565b600080600080608085870312156124e357600080fd5b84359350602085013567ffffffffffffffff8082111561250257600080fd5b61250e88838901612265565b9450604087013591508082111561252457600080fd5b61253088838901612265565b9350606087013591508082111561235757600080fd5b6020808252825182820181905260009190848201906040850190845b818110156123a85783516001600160a01b031683529284019291840191600101612562565b634e487b7160e01b600052602160045260246000fd5b8481526001600160a01b0384811660208301528316604082015260808101600383106125d957634e487b7160e01b600052602160045260246000fd5b82606083015295945050505050565b6000815180845260005b8181101561260e576020818501810151868301820152016125f2565b81811115612620576000602083870101525b50601f01601f19169290920160200192915050565b60006020808301818452808551808352604092508286019150828160051b87010184880160005b838110156126d957888303603f19018552815180518452878101516001600160a01b0316888501528681015160a08886018190529061269d828701826125e8565b9150506060808301518187015250608080830151925085820381870152506126c581836125e8565b96890196945050509086019060010161265c565b509098975050505050505050565b8581526001600160a01b038516602082015260a060408201819052600090612711908301866125e8565b846060840152828103608084015261272981856125e8565b98975050505050505050565b8881526001600160a01b03881660208201526040810187905261010060608201819052600090612767838201896125e8565b9050828103608084015261277b81886125e8565b905082810360a084015261278f81876125e8565b94151560c0840152505090151560e0909101529695505050505050565b60006101208083526127c08184018d6125e8565b905082810360208401526127d4818c6125e8565b6001600160a01b038b166040850152606084018a9052838103608085015290506127fe81896125e8565b905082810360a084015261281281886125e8565b905082810360c084015261282681876125e8565b905082810360e084015261283a81866125e8565b9150508215156101008301529a9950505050505050505050565b6000806040838503121561286757600080fd5b82359150602083013567ffffffffffffffff81111561288557600080fd5b61289185828601612265565b9150509250929050565b634e487b7160e01b600052601160045260246000fd5b60006000198214156128c5576128c561289b565b5060010190565b634e487b7160e01b600052603260045260246000fd5b6000828210156128f4576128f461289b565b500390565b634e487b7160e01b600052603160045260246000fd5b600181811c9082168061292357607f821691505b6020821081141561294457634e487b7160e01b600052602260045260246000fd5b5091905056feb39221ace053465ec3453ce2b36430bd138b997ecea25c1043da0c366812b828a2646970667358221220d180bc190fa4038baa0d57951e5438228fdbaff6a9289675b0eb55b6ce0b238264736f6c63430008090033",
  "linkReferences": {},
  "deployedLinkReferences": {}
}