{
  "_format": "hh-sol-artifact-1",
  "contractName": "LandRecords",
  "sourceName": "contracts/LandRecords.sol",
  "abi": [
    {
      "inputs": [],
      "stateMutability": "nonpayable",
      "type": "constructor"
    },
    {
      "inputs": [
        {
          "internalType": "uint256",
          "name": "",
          "type": "uint256"
        }
      ],
      "name": "BuyRequest",
      "outputs": [
        {
          "internalType": "uint256",
          "name": "landId",
          "type": "uint256"
        },
        {
          "internalType": "address",
          "name": "buyerId",
          "type": "address"
        },
        {
          "internalType": "address",
          "name": "sellerId",
          "type": "address"
        },
        {
          "internalType": "enum LandRecords.reqStatus",
          "name": "requestStatus",
          "type": "uint8"
        }
      ],
      "stateMutability": "view",
      "type": "function"
    },
    {
      "inputs": [],
      "name": "InspectorCount",
      "outputs": [
        {
          "internalType": "uint256",
          "name": "",
          "type": "uint256"
        }
      ],
      "stateMutability": "view",
      "type": "function"
    },
    {
      "inputs": [],
      "name": "LandCount",
      "outputs": [
        {
          "internalType": "uint256",
          "name": "",
          "type": "uint256"
        }
      ],
      "stateMutability": "view",
      "type": "function"
    },
    {
      "inputs": [],
      "name": "ReturnAllLandList",
      "outputs": [
        {
          "internalType": "uint256[]",
          "name": "",
          "type": "uint256[]"
        }
      ],
      "stateMutability": "view",
      "type": "function"
    },
    {
      "inputs": [],
      "name": "ReturnAllUserDetails",
      "outputs": [
        {
          "components": [
            {
              "internalType": "uint256",
              "name": "id",
              "type": "uint256"
            },
            {
              "internalType": "string",
              "name": "name",
              "type": "string"
            },
            {
              "internalType": "string",
              "name": "email",
              "type": "string"
            },
            {
              "internalType": "address",
              "name": "_userAddress",
              "type": "address"
            },
            {
              "internalType": "uint256",
              "name": "age",
              "type": "uint256"
            },
            {
              "internalType": "string",
              "name": "city",
              "type": "string"
            },
            {
              "internalType": "string",
              "name": "document",
              "type": "string"
            },
            {
              "internalType": "string",
              "name": "aadharCard",
              "type": "string"
            },
            {
              "internalType": "string",
              "name": "panCard",
              "type": "string"
            },
            {
              "internalType": "bool",
              "name": "isVerified",
              "type": "bool"
            }
          ],
          "internalType": "struct LandRecords.user[]",
          "name": "",
          "type": "tuple[]"
        }
      ],
      "stateMutability": "view",
      "type": "function"
    },
    {
      "inputs": [],
      "name": "ReturnAllUserList",
      "outputs": [
        {
          "internalType": "address[]",
          "name": "",
          "type": "address[]"
        }
      ],
      "stateMutability": "view",
      "type": "function"
    },
    {
      "inputs": [
        {
          "internalType": "address",
          "name": "id",
          "type": "address"
        }
      ],
      "name": "ReturnUser",
      "outputs": [
        {
          "components": [
            {
              "internalType": "uint256",
              "name": "id",
              "type": "uint256"
            },
            {
              "internalType": "string",
              "name": "name",
              "type": "string"
            },
            {
              "internalType": "string",
              "name": "email",
              "type": "string"
            },
            {
              "internalType": "address",
              "name": "_userAddress",
              "type": "address"
            },
            {
              "internalType": "uint256",
              "name": "age",
              "type": "uint256"
            },
            {
              "internalType": "string",
              "name": "city",
              "type": "string"
            },
            {
              "internalType": "string",
              "name": "document",
              "type": "string"
            },
            {
              "internalType": "string",
              "name": "aadharCard",
              "type": "string"
            },
            {
              "internalType": "string",
              "name": "panCard",
              "type": "string"
            },
            {
              "internalType": "bool",
              "name": "isVerified",
              "type": "bool"
            }
          ],
          "internalType": "struct LandRecords.user",
          "name": "",
          "type": "tuple"
        }
      ],
      "stateMutability": "view",
      "type": "function"
    },
    {
      "inputs": [
        {
          "internalType": "uint256",
          "name": "",
          "type": "uint256"
        }
      ],
      "name": "TransferRequest",
      "outputs": [
        {
          "internalType": "uint256",
          "name": "landId",
          "type": "uint256"
        },
        {
          "internalType": "address",
          "name": "sellerId",
          "type": "address"
        },
        {
          "internalType": "address",
          "name": "buyerId",
          "type": "address"
        },
        {
          "internalType": "enum LandRecords.reqStatus",
          "name": "requestStatus",
          "type": "uint8"
        }
      ],
      "stateMutability": "view",
      "type": "function"
    },
    {
      "inputs": [
        {
          "internalType": "uint256",
          "name": "_requestId",
          "type": "uint256"
        }
      ],
      "name": "acceptRequest",
      "outputs": [],
      "stateMutability": "nonpayable",
      "type": "function"
    },
    {
      "inputs": [
        {
          "internalType": "uint256",
          "name": "_area",
          "type": "uint256"
        },
        {
          "internalType": "string",
          "name": "_address",
          "type": "string"
        },
        {
          "internalType": "string",
          "name": "_surveyNum",
          "type": "string"
        },
        {
          "internalType": "string",
          "name": "_document",
          "type": "string"
        }
      ],
      "name": "addLand",
      "outputs": [],
      "stateMutability": "nonpayable",
      "type": "function"
    },
    {
      "inputs": [
        {
          "internalType": "address",
          "name": "_address",
          "type": "address"
        },
        {
          "internalType": "string",
          "name": "_name",
          "type": "string"
        },
        {
          "internalType": "uint256",
          "name": "_age",
          "type": "uint256"
        },
        {
          "internalType": "string",
          "name": "_city",
          "type": "string"
        }
      ],
      "name": "addLandInspector",
      "outputs": [
        {
          "internalType": "bool",
          "name": "",
          "type": "bool"
        }
      ],
      "stateMutability": "nonpayable",
      "type": "function"
    },
    {
      "inputs": [
        {
          "internalType": "address",
          "name": "",
          "type": "address"
        }
      ],
      "name": "addressToInspector",
      "outputs": [
        {
          "internalType": "uint256",
          "name": "id",
          "type": "uint256"
        },
        {
          "internalType": "address",
          "name": "_inspectorAddress",
          "type": "address"
        },
        {
          "internalType": "string",
          "name": "name",
          "type": "string"
        },
        {
          "internalType": "uint256",
          "name": "age",
          "type": "uint256"
        },
        {
          "internalType": "string",
          "name": "city",
          "type": "string"
        }
      ],
      "stateMutability": "view",
      "type": "function"
    },
    {
      "inputs": [
        {
          "internalType": "address",
          "name": "",
          "type": "address"
        }
      ],
      "name": "addressToUser",
      "outputs": [
        {
          "internalType": "uint256",
          "name": "id",
          "type": "uint256"
        },
        {
          "internalType": "string",
          "name": "name",
          "type": "string"
        },
        {
          "internalType": "string",
          "name": "email",
          "type": "string"
        },
        {
          "internalType": "address",
          "name": "_userAddress",
          "type": "address"
        },
        {
          "internalType": "uint256",
          "name": "age",
          "type": "uint256"
        },
        {
          "internalType": "string",
          "name": "city",
          "type": "string"
        },
        {
          "internalType": "string",
          "name": "document",
          "type": "string"
        },
        {
          "internalType": "string",
          "name": "aadharCard",
          "type": "string"
        },
        {
          "internalType": "string",
          "name": "panCard",
          "type": "string"
        },
        {
          "internalType": "bool",
          "name": "isVerified",
          "type": "bool"
        }
      ],
      "stateMutability": "view",
      "type": "function"
    },
    {
      "inputs": [],
      "name": "allTransferRequestList",
      "outputs": [
        {
          "internalType": "uint256[]",
          "name": "",
          "type": "uint256[]"
        }
      ],
      "stateMutability": "view",
      "type": "function"
    },
    {
      "inputs": [],
      "name": "buyRequestCount",
      "outputs": [
        {
          "internalType": "uint256",
          "name": "",
          "type": "uint256"
        }
      ],
      "stateMutability": "view",
      "type": "function"
    },
    {
      "inputs": [
        {
          "internalType": "uint256",
          "name": "id",
          "type": "uint256"
        }
      ],
      "name": "buyRequestStatus",
      "outputs": [
        {
          "internalType": "bool",
          "name": "",
          "type": "bool"
        }
      ],
      "stateMutability": "view",
      "type": "function"
    },
    {
      "inputs": [
        {
          "internalType": "address",
          "name": "_address",
          "type": "address"
        }
      ],
      "name": "changeContractOwner",
      "outputs": [],
      "stateMutability": "nonpayable",
      "type": "function"
    },
    {
      "inputs": [
        {
          "internalType": "address",
          "name": "_address",
          "type": "address"
        }
      ],
      "name": "isContractOwner",
      "outputs": [
        {
          "internalType": "bool",
          "name": "",
          "type": "bool"
        }
      ],
      "stateMutability": "view",
      "type": "function"
    },
    {
      "inputs": [
        {
          "internalType": "address",
          "name": "_id",
          "type": "address"
        }
      ],
      "name": "isLandInspector",
      "outputs": [
        {
          "internalType": "bool",
          "name": "",
          "type": "bool"
        }
      ],
      "stateMutability": "view",
      "type": "function"
    },
    {
      "inputs": [
        {
          "internalType": "uint256",
          "name": "id",
          "type": "uint256"
        }
      ],
      "name": "isLandVerified",
      "outputs": [
        {
          "internalType": "bool",
          "name": "",
          "type": "bool"
        }
      ],
      "stateMutability": "view",
      "type": "function"
    },
    {
      "inputs": [
        {
          "internalType": "address",
          "name": "_addr",
          "type": "address"
        }
      ],
      "name": "isUserRegistered",
      "outputs": [
        {
          "internalType": "bool",
          "name": "",
          "type": "bool"
        }
      ],
      "stateMutability": "view",
      "type": "function"
    },
    {
      "inputs": [
        {
          "internalType": "address",
          "name": "id",
          "type": "address"
        }
      ],
      "name": "isUserVerified",
      "outputs": [
        {
          "internalType": "bool",
          "name": "",
          "type": "bool"
        }
      ],
      "stateMutability": "view",
      "type": "function"
    },
    {
      "inputs": [
        {
          "internalType": "uint256",
          "name": "",
          "type": "uint256"
        }
      ],
      "name": "lands",
      "outputs": [
        {
          "internalType": "uint256",
          "name": "id",
          "type": "uint256"
        },
        {
          "internalType": "address",
          "name": "landOwner",
          "type": "address"
        },
        {
          "internalType": "uint256",
          "name": "landArea",
          "type": "uint256"
        },
        {
          "internalType": "string",
          "name": "landAddress",
          "type": "string"
        },
        {
          "internalType": "string",
          "name": "surveyNumber",
          "type": "string"
        },
        {
          "internalType": "string",
          "name": "landDocument",
          "type": "string"
        },
        {
          "internalType": "bool",
          "name": "isLandVerified",
          "type": "bool"
        },
        {
          "internalType": "bool",
          "name": "isForSell",
          "type": "bool"
        }
      ],
      "stateMutability": "view",
      "type": "function"
    },
    {
      "inputs": [
        {
          "internalType": "uint256",
          "name": "id",
          "type": "uint256"
        }
      ],
      "name": "makeItNotforSell",
      "outputs": [],
      "stateMutability": "nonpayable",
      "type": "function"
    },
    {
      "inputs": [
        {
          "internalType": "uint256",
          "name": "id",
          "type": "uint256"
        }
      ],
      "name": "makeItforSell",
      "outputs": [],
      "stateMutability": "nonpayable",
      "type": "function"
    },
    {
      "inputs": [
        {
          "internalType": "address",
          "name": "id",
          "type": "address"
        }
      ],
      "name": "myAllLands",
      "outputs": [
        {
          "internalType": "uint256[]",
          "name": "",
          "type": "uint256[]"
        }
      ],
      "stateMutability": "view",
      "type": "function"
    },
    {
      "inputs": [],
      "name": "myReceivedLandRequests",
      "outputs": [
        {
          "internalType": "uint256[]",
          "name": "",
          "type": "uint256[]"
        }
      ],
      "stateMutability": "view",
      "type": "function"
    },
    {
      "inputs": [],
      "name": "mySentLandRequests",
      "outputs": [
        {
          "internalType": "uint256[]",
          "name": "",
          "type": "uint256[]"
        }
      ],
      "stateMutability": "view",
      "type": "function"
    },
    {
      "inputs": [
        {
          "internalType": "string",
          "name": "_name",
          "type": "string"
        },
        {
          "internalType": "string",
          "name": "_email",
          "type": "string"
        },
        {
          "internalType": "uint256",
          "name": "_age",
          "type": "uint256"
        },
        {
          "internalType": "string",
          "name": "_city",
          "type": "string"
        },
        {
          "internalType": "string",
          "name": "_aadharNumber",
          "type": "string"
        },
        {
          "internalType": "string",
          "name": "_panNumber",
          "type": "string"
        },
        {
          "internalType": "string",
          "name": "_document",
          "type": "string"
        }
      ],
      "name": "registerNewUser",
      "outputs": [],
      "stateMutability": "nonpayable",
      "type": "function"
    },
    {
      "inputs": [
        {
          "internalType": "uint256",
          "name": "_requestId",
          "type": "uint256"
        }
      ],
      "name": "rejectRequest",
      "outputs": [],
      "stateMutability": "nonpayable",
      "type": "function"
    },
    {
      "inputs": [
        {
          "internalType": "address",
          "name": "_adrs",
          "type": "address"
        }
      ],
      "name": "removeLandInspector",
      "outputs": [],
      "stateMutability": "nonpayable",
      "type": "function"
    },
    {
      "inputs": [
        {
          "internalType": "uint256",
          "name": "_landId",
          "type": "uint256"
        }
      ],
      "name": "requestforBuy",
      "outputs": [],
      "stateMutability": "nonpayable",
      "type": "function"
    },
    {
      "inputs": [],
      "name": "returnAllLandInspectors",
      "outputs": [
        {
          "internalType": "address[]",
          "name": "",
          "type": "address[]"
        }
      ],
      "stateMutability": "view",
      "type": "function"
    },
    {
      "inputs": [],
      "name": "returnAllLandInspectorsDetails",
      "outputs": [
        {
          "components": [
            {
              "internalType": "uint256",
              "name": "id",
              "type": "uint256"
            },
            {
              "internalType": "address",
              "name": "_inspectorAddress",
              "type": "address"
            },
            {
              "internalType": "string",
              "name": "name",
              "type": "string"
            },
            {
              "internalType": "uint256",
              "name": "age",
              "type": "uint256"
            },
            {
              "internalType": "string",
              "name": "city",
              "type": "string"
            }
          ],
          "internalType": "struct LandRecords.landInspector[]",
          "name": "",
          "type": "tuple[]"
        }
      ],
      "stateMutability": "view",
      "type": "function"
    },
    {
      "inputs": [
        {
          "internalType": "address",
          "name": "_adrs",
          "type": "address"
        }
      ],
      "name": "returnLandInspector",
      "outputs": [
        {
          "components": [
            {
              "internalType": "uint256",
              "name": "id",
              "type": "uint256"
            },
            {
              "internalType": "address",
              "name": "_inspectorAddress",
              "type": "address"
            },
            {
              "internalType": "string",
              "name": "name",
              "type": "string"
            },
            {
              "internalType": "uint256",
              "name": "age",
              "type": "uint256"
            },
            {
              "internalType": "string",
              "name": "city",
              "type": "string"
            }
          ],
          "internalType": "struct LandRecords.landInspector",
          "name": "",
          "type": "tuple"
        }
      ],
      "stateMutability": "view",
      "type": "function"
    },
    {
      "inputs": [
        {
          "internalType": "uint256",
          "name": "_requestId",
          "type": "uint256"
        },
        {
          "internalType": "string",
          "name": "documentUrl",
          "type": "string"
        }
      ],
      "name": "transferOwnership",
      "outputs": [
        {
          "internalType": "bool",
          "name": "",
          "type": "bool"
        }
      ],
      "stateMutability": "nonpayable",
      "type": "function"
    },
    {
      "inputs": [],
      "name": "transferRequestCount",
      "outputs": [
        {
          "internalType": "uint256",
          "name": "",
          "type": "uint256"
        }
      ],
      "stateMutability": "view",
      "type": "function"
    },
    {
      "inputs": [
        {
          "internalType": "uint256",
          "name": "id",
          "type": "uint256"
        }
      ],
      "name": "transferRequestStatus",
      "outputs": [
        {
          "internalType": "bool",
          "name": "",
          "type": "bool"
        }
      ],
      "stateMutability": "view",
      "type": "function"
    },
    {
      "inputs": [],
      "name": "userCount",
      "outputs": [
        {
          "internalType": "uint256",
          "name": "",
          "type": "uint256"
        }
      ],
      "stateMutability": "view",
      "type": "function"
    },
    {
      "inputs": [
        {
          "internalType": "uint256",
          "name": "_id",
          "type": "uint256"
        }
      ],
      "name": "verifyLand",
      "outputs": [],
      "stateMutability": "nonpayable",
      "type": "function"
    },
    {
      "inputs": [
        {
          "internalType": "address",
          "name": "_userId",
          "type": "address"
        }
      ],
      "name": "verifyUser",
      "outputs": [],
      "stateMutability": "nonpayable",
      "type": "function"
    }
  ],
  "bytecode": "0x608060405234801561001057600080fd5b50600080546001600160a01b03191633179055613637806100326000396000f3fe608060405234801561001057600080fd5b50600436106102535760003560e01c806393a44f8811610146578063d2d50eab116100c3578063e0bf543911610087578063e0bf54391461057f578063e165af871461059f578063e261f1e5146105b2578063edf53886146105d9578063f9c43bdf14610602578063fa0245491461061557600080fd5b8063d2d50eab14610501578063d3b368c014610509578063d909ecd81461051c578063de11768814610524578063de26e7c91461053757600080fd5b8063a519e9101161010a578063a519e9101461047f578063ace417e0146104a3578063c26e11eb146104d3578063c4f291f9146104e6578063d196ebf2146104ee57600080fd5b806393a44f881461043f57806394cffc5c146104475780639c32e3b41461045a578063a18cb9e214610462578063a43ec8621461047757600080fd5b80634ba1f098116101d45780636cbf6cf8116101985780636cbf6cf8146103865780636d52fdd0146103ac5780637517e00f14610404578063780e11f8146104175780638b1751d21461041f57600080fd5b80634ba1f098146103235780634d104352146103365780634d81312014610349578063553a998d1461035c5780635a3b30b61461037157600080fd5b80632d7788db1161021b5780632d7788db146102cf57806337a1b941146102e25780633ead67b5146102f55780634056a79814610308578063499701b21461031b57600080fd5b806307973ccf14610258578063163f75221461026f57806317b73d041461029257806323393d77146102a55780632653dbda146102ba575b600080fd5b6002545b6040519081526020015b60405180910390f35b61028261027d366004612d2a565b610628565b6040519015158152602001610266565b6102826102a0366004612def565b61065e565b6102ad6107cd565b6040516102669190612e6d565b6102cd6102c8366004612eb1565b61084d565b005b6102cd6102dd366004612fb1565b610a58565b6102826102f0366004612fb1565b610aa2565b6102cd610303366004612d2a565b610adb565b610282610316366004612fb1565b610b5c565b6102ad610b8e565b6102cd610331366004612fb1565b610bed565b6102cd610344366004612fca565b610d5b565b6102cd610357366004612d2a565b610f12565b610364610f4c565b6040516102669190613043565b610379610fc3565b60405161026691906131bb565b610282610394366004612fb1565b6000908152600e602052604090206006015460ff1690565b6103f46103ba366004612fb1565b600f6020526000908152604090208054600182015460029092015490916001600160a01b039081169190811690600160a01b900460ff1684565b6040516102669493929190613233565b6102cd610412366004612d2a565b61149f565b610364611702565b61043261042d366004612d2a565b611778565b60405161026691906132db565b60035461025c565b6102cd610455366004612fb1565b6118f1565b6102ad611933565b61046a611992565b60405161026691906132ee565b60015461025c565b61049261048d366004612d2a565b611bea565b604051610266959493929190613343565b6102826104b1366004612d2a565b6001600160a01b03166000908152600960208190526040909120015460ff1690565b6102cd6104e1366004612fb1565b611d33565b60045461025c565b6102ad6104fc366004612d2a565b611d79565b60055461025c565b6102cd610517366004612fb1565b611de5565b6102ad611f4b565b610282610532366004612d2a565b611fc9565b6103f4610545366004612fb1565b60106020526000908152604090208054600182015460029092015490916001600160a01b039081169190811690600160a01b900460ff1684565b61059261058d366004612d2a565b611fe8565b6040516102669190613391565b6102826105ad366004612d2a565b6123c2565b6105c56105c0366004612fb1565b6123eb565b6040516102669897969594939291906133a4565b6105ec6105e7366004612d2a565b6125d6565b6040516102669a9998979695949392919061341b565b6102cd610610366004612fb1565b612964565b6102826106233660046134cb565b612994565b6001600160a01b0381166000908152600c602052604081205460ff161561065157506001919050565b506000919050565b919050565b600080546001600160a01b03163314610679575060006107c5565b6000546001600160a01b0316331461069057600080fd5b6001600160a01b03851660008181526008602090815260408220805460ff1916600190811790915560079091526000805160206135c2833981519152805480830182559083527fb2401e68d452ad3af4aed95d6e19d1a690ed00a9a5bee1b2b0a83b6028446a4f0180546001600160a01b0319169093179092558154919061071783613528565b90915550506040805160a0810182526001805482526001600160a01b0388811660208085018281528587018b8152606087018b9052608087018a90526000938452600683529690922085518155915193820180546001600160a01b0319169490931693909317909155925180519293926107979260028501920190612be4565b5060608201516003820155608082015180516107bd916004840191602090910190612be4565b506001925050505b949350505050565b6001600052601360209081527f4155c2f711f2cdd34f8262ab8fb9b7020a700fe7b6948222152f7670d1fdf34d805460408051828502810185019091528181526060939092919083018282801561084357602002820191906000526020600020905b81548152602001906001019080831161082f575b5050505050905090565b336000908152600c602052604090205460ff161561086a57600080fd5b336000908152600c60205260408120805460ff19166001179055600280549161089283613528565b90915550506000805160206135e2833981519152805460018082019092557ffc2858506235d5502cafdfae2dcc7804b97258f4d77357c39b0f2a32aa2e6a50018054336001600160a01b03199182168117909255600280546000908152600a6020908152604080832080549095168617909455835161014081018552925483528281018d81528385018d905260608401869052608084018c905260a084018b905260c0840188905260e084018a90526101008401899052610120840183905294825260098152929020815181559251805191946109759390850192910190612be4565b5060408201518051610991916002840191602090910190612be4565b5060608201516003820180546001600160a01b0319166001600160a01b039092169190911790556080820151600482015560a082015180516109dd916005840191602090910190612be4565b5060c082015180516109f9916006840191602090910190612be4565b5060e08201518051610a15916007840191602090910190612be4565b506101008201518051610a32916008840191602090910190612be4565b5061012091909101516009909101805460ff191691151591909117905550505050505050565b6000818152601060205260409020600201546001600160a01b03163314610a7e57600080fd5b6000908152601060205260409020600201805460ff60a01b1916600160a11b179055565b600060016000838152600f60205260409020600290810154600160a01b900460ff1690811115610ad457610ad461321d565b1492915050565b6000546001600160a01b03163314610b3a5760405162461bcd60e51b815260206004820152601960248201527f796f7520617265206e6f7420636f6e74726163744f776e65720000000000000060448201526064015b60405180910390fd5b600080546001600160a01b0319166001600160a01b0392909216919091179055565b600060016000838152601060205260409020600290810154600160a01b900460ff1690811115610ad457610ad461321d565b33600090815260116020908152604091829020805483518184028101840190945280845260609392830182828015610843576020028201919060005260206000209081548152602001906001019080831161082f575050505050905090565b6000818152601060205260409020600201546001600160a01b03163314610c1357600080fd5b6000818152601060205260408120600201805460ff60a01b1916600160a01b1790556005805491610c4383613528565b90915550506040805160808101825260008381526010602090815283822080548452338285019081526001918201546001600160a01b03908116868801908152606087018681526005548752600f9095529690942085518155905191810180549285166001600160a01b03199384161790559451600280870180549290951692821683178555925194959493926001600160a81b031990911690911790600160a01b908490811115610cf757610cf761321d565b021790555050601460205250506005547fb6c61a840592cc84133e4b25bd509abf4659307c57b160799b38490a5aa48f2c80546001810182556000919091527f2fdc54bebe143af21bc9f7874666206c3383b1c51a1a7063fa557c077952093e0155565b336000908152600960208190526040909120015460ff16610d7b57600080fd5b60038054906000610d8b83613528565b90915550506040805161010081018252600380548083523360208085019182528486018a8152606086018a8152608087018a905260a08701899052600060c0880181905260e08801819052948552600e8352969093208551815591516001830180546001600160a01b0319166001600160a01b039092169190911790559151600282015593518051939493610e27938501929190910190612be4565b5060808201518051610e43916004840191602090910190612be4565b5060a08201518051610e5f916005840191602090910190612be4565b5060c08201516006909101805460e09093015115156101000261ff00199215159290921661ffff19909316929092171790555050336000908152600d602090815260408220600380548254600181810185559386528486200155601390925290547f4155c2f711f2cdd34f8262ab8fb9b7020a700fe7b6948222152f7670d1fdf34d805492830181559092527f3ce2cb385edcbf7185fd469186dd769993781141b215a1a4715ebb7f94fd59ab01555050565b610f1b336123c2565b610f2457600080fd5b6001600160a01b0316600090815260096020819052604090912001805460ff19166001179055565b6001600052600b60209081526000805160206135e2833981519152805460408051828502810185019091528181526060939092919083018282801561084357602002820191906000526020600020905b81546001600160a01b03168152600190910190602001808311610f9c575050505050905090565b60016000908152600b6020526000805160206135e2833981519152546060918167ffffffffffffffff811115610ffb57610ffb612d4c565b60405190808252806020026020018201604052801561103457816020015b611021612c68565b8152602001906001900390816110195790505b50905060005b828110156114985760016000908152600b6020526000805160206135e2833981519152805460099291908490811061107457611074613543565b9060005260206000200160009054906101000a90046001600160a01b03166001600160a01b03166001600160a01b0316815260200190815260200160002060405180610140016040529081600082015481526020016001820180546110d890613559565b80601f016020809104026020016040519081016040528092919081815260200182805461110490613559565b80156111515780601f1061112657610100808354040283529160200191611151565b820191906000526020600020905b81548152906001019060200180831161113457829003601f168201915b5050505050815260200160028201805461116a90613559565b80601f016020809104026020016040519081016040528092919081815260200182805461119690613559565b80156111e35780601f106111b8576101008083540402835291602001916111e3565b820191906000526020600020905b8154815290600101906020018083116111c657829003601f168201915b505050918352505060038201546001600160a01b031660208201526004820154604082015260058201805460609092019161121d90613559565b80601f016020809104026020016040519081016040528092919081815260200182805461124990613559565b80156112965780601f1061126b57610100808354040283529160200191611296565b820191906000526020600020905b81548152906001019060200180831161127957829003601f168201915b505050505081526020016006820180546112af90613559565b80601f01602080910402602001604051908101604052809291908181526020018280546112db90613559565b80156113285780601f106112fd57610100808354040283529160200191611328565b820191906000526020600020905b81548152906001019060200180831161130b57829003601f168201915b5050505050815260200160078201805461134190613559565b80601f016020809104026020016040519081016040528092919081815260200182805461136d90613559565b80156113ba5780601f1061138f576101008083540402835291602001916113ba565b820191906000526020600020905b81548152906001019060200180831161139d57829003601f168201915b505050505081526020016008820180546113d390613559565b80601f01602080910402602001604051908101604052809291908181526020018280546113ff90613559565b801561144c5780601f106114215761010080835404028352916020019161144c565b820191906000526020600020905b81548152906001019060200180831161142f57829003601f168201915b50505091835250506009919091015460ff161515602090910152825183908390811061147a5761147a613543565b6020026020010181905250808061149090613528565b91505061103a565b5092915050565b6000546001600160a01b031633146114f95760405162461bcd60e51b815260206004820152601960248201527f596f7520617265206e6f7420636f6e74726163744f776e6572000000000000006044820152606401610b31565b6001600160a01b03811660009081526008602052604090205460ff166115615760405162461bcd60e51b815260206004820152601860248201527f4c616e6420496e73706563746f72206e6f7420666f756e6400000000000000006044820152606401610b31565b6001600160a01b03811660009081526008602090815260408220805460ff1916905560018252600790526000805160206135c283398151915254905b818110156116fd57600160005260076020526000805160206135c283398151915280546001600160a01b0385169190839081106115dc576115dc613543565b6000918252602090912001546001600160a01b031614156116eb576001600081905260076020526000805160206135c28339815191529061161d9084613594565b8154811061162d5761162d613543565b60009182526020808320909101546001909252600790526000805160206135c283398151915280546001600160a01b03909216918390811061167157611671613543565b600091825260208083209190910180546001600160a01b0319166001600160a01b03949094169390931790925560019052600790526000805160206135c28339815191528054806116c4576116c46135ab565b600082815260209020810160001990810180546001600160a01b0319169055019055505050565b806116f581613528565b91505061159d565b505050565b6001600052600760209081526000805160206135c28339815191528054604080518285028101850190915281815260609390929190830182828015610843576020028201919060005260206000209081546001600160a01b03168152600190910190602001808311610f9c575050505050905090565b611780612cc6565b6001600160a01b03808316600090815260066020908152604091829020825160a0810184528154815260018201549094169184019190915260028101805491928401916117cc90613559565b80601f01602080910402602001604051908101604052809291908181526020018280546117f890613559565b80156118455780601f1061181a57610100808354040283529160200191611845565b820191906000526020600020905b81548152906001019060200180831161182857829003601f168201915b505050505081526020016003820154815260200160048201805461186890613559565b80601f016020809104026020016040519081016040528092919081815260200182805461189490613559565b80156118e15780601f106118b6576101008083540402835291602001916118e1565b820191906000526020600020905b8154815290600101906020018083116118c457829003601f168201915b5050505050815250509050919050565b6000818152600e60205260409020600101546001600160a01b0316331461191757600080fd5b6000908152600e60205260409020600601805461ff0019169055565b33600090815260126020908152604091829020805483518184028101840190945280845260609392830182828015610843576020028201919060005260206000209081548152602001906001019080831161082f575050505050905090565b6001600090815260076020526000805160206135c2833981519152546060918167ffffffffffffffff8111156119ca576119ca612d4c565b604051908082528060200260200182016040528015611a0357816020015b6119f0612cc6565b8152602001906001900390816119e85790505b50905060005b82811015611498576001600090815260076020526000805160206135c28339815191528054600692919084908110611a4357611a43613543565b60009182526020808320909101546001600160a01b039081168452838201949094526040928301909120825160a081018452815481526001820154909416918401919091526002810180549192840191611a9c90613559565b80601f0160208091040260200160405190810160405280929190818152602001828054611ac890613559565b8015611b155780601f10611aea57610100808354040283529160200191611b15565b820191906000526020600020905b815481529060010190602001808311611af857829003601f168201915b5050505050815260200160038201548152602001600482018054611b3890613559565b80601f0160208091040260200160405190810160405280929190818152602001828054611b6490613559565b8015611bb15780601f10611b8657610100808354040283529160200191611bb1565b820191906000526020600020905b815481529060010190602001808311611b9457829003601f168201915b505050505081525050828281518110611bcc57611bcc613543565b60200260200101819052508080611be290613528565b915050611a09565b60066020526000908152604090208054600182015460028301805492936001600160a01b0390921692611c1c90613559565b80601f0160208091040260200160405190810160405280929190818152602001828054611c4890613559565b8015611c955780601f10611c6a57610100808354040283529160200191611c95565b820191906000526020600020905b815481529060010190602001808311611c7857829003601f168201915b505050505090806003015490806004018054611cb090613559565b80601f0160208091040260200160405190810160405280929190818152602001828054611cdc90613559565b8015611d295780601f10611cfe57610100808354040283529160200191611d29565b820191906000526020600020905b815481529060010190602001808311611d0c57829003601f168201915b5050505050905085565b6000818152600e60205260409020600101546001600160a01b03163314611d5957600080fd5b6000908152600e60205260409020600601805461ff001916610100179055565b6001600160a01b0381166000908152600d6020908152604091829020805483518184028101840190945280845260609392830182828015611dd957602002820191906000526020600020905b815481526020019060010190808311611dc5575b50505050509050919050565b336000908152600960208190526040909120015460ff168015611e1957506000818152600e602052604090206006015460ff165b611e2257600080fd5b60048054906000611e3283613528565b9091555050604080516080810182526004548082523360208084019182526000868152600e82528581206001908101546001600160a01b039081168789019081526060880184815296845260109094529690912085518155925190830180549187166001600160a01b03199283161790559051600280840180549290971692821683178755935194959294936001600160a81b031990911690911790600160a01b908490811115611ee557611ee561321d565b021790555050506000908152600e602090815260408083206001908101546001600160a01b031684526011835281842060048054825480850184559287528587209092019190915533855260128452918420915482549182018355918452919092200155565b6001600052601460209081527fb6c61a840592cc84133e4b25bd509abf4659307c57b160799b38490a5aa48f2c8054604080518285028101850190915281815260609390929190830182828015610843576020028201919060005260206000209081548152602001906001019080831161082f575050505050905090565b600080546001600160a01b038381169116141561065157506001919050565b611ff0612c68565b6001600160a01b0382166000908152600960209081526040918290208251610140810190935280548352600181018054919284019161202e90613559565b80601f016020809104026020016040519081016040528092919081815260200182805461205a90613559565b80156120a75780601f1061207c576101008083540402835291602001916120a7565b820191906000526020600020905b81548152906001019060200180831161208a57829003601f168201915b505050505081526020016002820180546120c090613559565b80601f01602080910402602001604051908101604052809291908181526020018280546120ec90613559565b80156121395780601f1061210e57610100808354040283529160200191612139565b820191906000526020600020905b81548152906001019060200180831161211c57829003601f168201915b505050918352505060038201546001600160a01b031660208201526004820154604082015260058201805460609092019161217390613559565b80601f016020809104026020016040519081016040528092919081815260200182805461219f90613559565b80156121ec5780601f106121c1576101008083540402835291602001916121ec565b820191906000526020600020905b8154815290600101906020018083116121cf57829003601f168201915b5050505050815260200160068201805461220590613559565b80601f016020809104026020016040519081016040528092919081815260200182805461223190613559565b801561227e5780601f106122535761010080835404028352916020019161227e565b820191906000526020600020905b81548152906001019060200180831161226157829003601f168201915b5050505050815260200160078201805461229790613559565b80601f01602080910402602001604051908101604052809291908181526020018280546122c390613559565b80156123105780601f106122e557610100808354040283529160200191612310565b820191906000526020600020905b8154815290600101906020018083116122f357829003601f168201915b5050505050815260200160088201805461232990613559565b80601f016020809104026020016040519081016040528092919081815260200182805461235590613559565b80156123a25780601f10612377576101008083540402835291602001916123a2565b820191906000526020600020905b81548152906001019060200180831161238557829003601f168201915b50505091835250506009919091015460ff16151560209091015292915050565b6001600160a01b03811660009081526008602052604081205460ff161561065157506001919050565b600e60205260009081526040902080546001820154600283015460038401805493946001600160a01b039093169391929161242590613559565b80601f016020809104026020016040519081016040528092919081815260200182805461245190613559565b801561249e5780601f106124735761010080835404028352916020019161249e565b820191906000526020600020905b81548152906001019060200180831161248157829003601f168201915b5050505050908060040180546124b390613559565b80601f01602080910402602001604051908101604052809291908181526020018280546124df90613559565b801561252c5780601f106125015761010080835404028352916020019161252c565b820191906000526020600020905b81548152906001019060200180831161250f57829003601f168201915b50505050509080600501805461254190613559565b80601f016020809104026020016040519081016040528092919081815260200182805461256d90613559565b80156125ba5780601f1061258f576101008083540402835291602001916125ba565b820191906000526020600020905b81548152906001019060200180831161259d57829003601f168201915b5050506006909301549192505060ff8082169161010090041688565b600960205260009081526040902080546001820180549192916125f890613559565b80601f016020809104026020016040519081016040528092919081815260200182805461262490613559565b80156126715780601f1061264657610100808354040283529160200191612671565b820191906000526020600020905b81548152906001019060200180831161265457829003601f168201915b50505050509080600201805461268690613559565b80601f01602080910402602001604051908101604052809291908181526020018280546126b290613559565b80156126ff5780601f106126d4576101008083540402835291602001916126ff565b820191906000526020600020905b8154815290600101906020018083116126e257829003601f168201915b505050506003830154600484015460058501805494956001600160a01b03909316949193509061272e90613559565b80601f016020809104026020016040519081016040528092919081815260200182805461275a90613559565b80156127a75780601f1061277c576101008083540402835291602001916127a7565b820191906000526020600020905b81548152906001019060200180831161278a57829003601f168201915b5050505050908060060180546127bc90613559565b80601f01602080910402602001604051908101604052809291908181526020018280546127e890613559565b80156128355780601f1061280a57610100808354040283529160200191612835565b820191906000526020600020905b81548152906001019060200180831161281857829003601f168201915b50505050509080600701805461284a90613559565b80601f016020809104026020016040519081016040528092919081815260200182805461287690613559565b80156128c35780601f10612898576101008083540402835291602001916128c3565b820191906000526020600020905b8154815290600101906020018083116128a657829003601f168201915b5050505050908060080180546128d890613559565b80601f016020809104026020016040519081016040528092919081815260200182805461290490613559565b80156129515780601f1061292657610100808354040283529160200191612951565b820191906000526020600020905b81548152906001019060200180831161293457829003601f168201915b5050506009909301549192505060ff168a565b61296d336123c2565b61297657600080fd5b6000908152600e60205260409020600601805460ff19166001179055565b600061299f336123c2565b6129a857600080fd5b6000838152600f60209081526040808320600281018054600160a01b60ff60a01b198216179091556001600160a01b039081168552600d84528285208254815460018181018455928852958720909501949094559201549091168252812054905b81811015612b55576000858152600f6020908152604080832080546001909101546001600160a01b03168452600d909252909120805483908110612a4f57612a4f613543565b90600052602060002001541415612b43576000858152600f602090815260408083206001908101546001600160a01b03168452600d90925290912090612a959084613594565b81548110612aa557612aa5613543565b6000918252602080832090910154878352600f82526040808420600101546001600160a01b03168452600d9092529120805483908110612ae757612ae7613543565b6000918252602080832090910192909255868152600f82526040808220600101546001600160a01b03168252600d90925220805480612b2857612b286135ab565b60019003818190600052602060002001600090559055612b55565b80612b4d81613528565b915050612a09565b506000848152600f60209081526040808320548352600e82529091208451612b8592600590920191860190612be4565b505050600091825250600f6020908152604080832080548452600e909252808320600601805461ff0019169055600282015491548352909120600190810180546001600160a01b0319166001600160a01b039093169290921790915590565b828054612bf090613559565b90600052602060002090601f016020900481019282612c125760008555612c58565b82601f10612c2b57805160ff1916838001178555612c58565b82800160010185558215612c58579182015b82811115612c58578251825591602001919060010190612c3d565b50612c64929150612cfe565b5090565b60405180610140016040528060008152602001606081526020016060815260200160006001600160a01b0316815260200160008152602001606081526020016060815260200160608152602001606081526020016000151581525090565b6040518060a001604052806000815260200160006001600160a01b031681526020016060815260200160008152602001606081525090565b5b80821115612c645760008155600101612cff565b80356001600160a01b038116811461065957600080fd5b600060208284031215612d3c57600080fd5b612d4582612d13565b9392505050565b634e487b7160e01b600052604160045260246000fd5b600082601f830112612d7357600080fd5b813567ffffffffffffffff80821115612d8e57612d8e612d4c565b604051601f8301601f19908116603f01168101908282118183101715612db657612db6612d4c565b81604052838152866020858801011115612dcf57600080fd5b836020870160208301376000602085830101528094505050505092915050565b60008060008060808587031215612e0557600080fd5b612e0e85612d13565b9350602085013567ffffffffffffffff80821115612e2b57600080fd5b612e3788838901612d62565b9450604087013593506060870135915080821115612e5457600080fd5b50612e6187828801612d62565b91505092959194509250565b6020808252825182820181905260009190848201906040850190845b81811015612ea557835183529284019291840191600101612e89565b50909695505050505050565b600080600080600080600060e0888a031215612ecc57600080fd5b873567ffffffffffffffff80821115612ee457600080fd5b612ef08b838c01612d62565b985060208a0135915080821115612f0657600080fd5b612f128b838c01612d62565b975060408a0135965060608a0135915080821115612f2f57600080fd5b612f3b8b838c01612d62565b955060808a0135915080821115612f5157600080fd5b612f5d8b838c01612d62565b945060a08a0135915080821115612f7357600080fd5b612f7f8b838c01612d62565b935060c08a0135915080821115612f9557600080fd5b50612fa28a828b01612d62565b91505092959891949750929550565b600060208284031215612fc357600080fd5b5035919050565b60008060008060808587031215612fe057600080fd5b84359350602085013567ffffffffffffffff80821115612fff57600080fd5b61300b88838901612d62565b9450604087013591508082111561302157600080fd5b61302d88838901612d62565b93506060870135915080821115612e5457600080fd5b6020808252825182820181905260009190848201906040850190845b81811015612ea55783516001600160a01b03168352928401929184019160010161305f565b6000815180845260005b818110156130aa5760208185018101518683018201520161308e565b818111156130bc576000602083870101525b50601f01601f19169290920160200192915050565b60006101408251845260208301518160208601526130f182860182613084565b9150506040830151848203604086015261310b8282613084565b915050606083015161312860608601826001600160a01b03169052565b506080830151608085015260a083015184820360a086015261314a8282613084565b91505060c083015184820360c08601526131648282613084565b91505060e083015184820360e086015261317e8282613084565b91505061010080840151858303828701526131998382613084565b92505050610120808401516131b18287018215159052565b5090949350505050565b6000602080830181845280855180835260408601915060408160051b870101925083870160005b8281101561321057603f198886030184526131fe8583516130d1565b945092850192908501906001016131e2565b5092979650505050505050565b634e487b7160e01b600052602160045260246000fd5b8481526001600160a01b03848116602083015283166040820152608081016003831061326f57634e487b7160e01b600052602160045260246000fd5b82606083015295945050505050565b8051825260018060a01b0360208201511660208301526000604082015160a060408501526132af60a0850182613084565b905060608301516060850152608083015184820360808601526132d28282613084565b95945050505050565b602081526000612d45602083018461327e565b6000602080830181845280855180835260408601915060408160051b870101925083870160005b8281101561321057603f1988860301845261333185835161327e565b94509285019290850190600101613315565b8581526001600160a01b038516602082015260a06040820181905260009061336d90830186613084565b84606084015282810360808401526133858185613084565b98975050505050505050565b602081526000612d4560208301846130d1565b8881526001600160a01b038816602082015260408101879052610100606082018190526000906133d683820189613084565b905082810360808401526133ea8188613084565b905082810360a08401526133fe8187613084565b94151560c0840152505090151560e0909101529695505050505050565b60006101408c83528060208401526134358184018d613084565b90508281036040840152613449818c613084565b6001600160a01b038b166060850152608084018a905283810360a085015290506134738189613084565b905082810360c08401526134878188613084565b905082810360e084015261349b8187613084565b90508281036101008401526134b08186613084565b9150508215156101208301529b9a5050505050505050505050565b600080604083850312156134de57600080fd5b82359150602083013567ffffffffffffffff8111156134fc57600080fd5b61350885828601612d62565b9150509250929050565b634e487b7160e01b600052601160045260246000fd5b600060001982141561353c5761353c613512565b5060010190565b634e487b7160e01b600052603260045260246000fd5b600181811c9082168061356d57607f821691505b6020821081141561358e57634e487b7160e01b600052602260045260246000fd5b50919050565b6000828210156135a6576135a6613512565b500390565b634e487b7160e01b600052603160045260246000fdfeb39221ace053465ec3453ce2b36430bd138b997ecea25c1043da0c366812b82872c6bfb7988af3a1efa6568f02a999bc52252641c659d85961ca3d372b57d5cfa2646970667358221220c070d3df36cc80d11195a8a35b56cbca2a5cab6846ec1f066db38f1b0768e56f64736f6c63430008090033",
  "linkReferences": {},
  "deployedLinkReferences": {}
}