{
  "_format": "hh-sol-artifact-1",
  "contractName": "LandRecords",
  "sourceName": "contracts/LandRecords.sol",
  "abi": [
    {
      "inputs": [],
      "stateMutability": "nonpayable",
      "type": "constructor"
    },
    {
      "inputs": [
        {
          "internalType": "uint256",
          "name": "",
          "type": "uint256"
        }
      ],
      "name": "BuyRequest",
      "outputs": [
        {
          "internalType": "uint256",
          "name": "landId",
          "type": "uint256"
        },
        {
          "internalType": "address",
          "name": "buyerId",
          "type": "address"
        },
        {
          "internalType": "address",
          "name": "sellerId",
          "type": "address"
        },
        {
          "internalType": "enum LandRecords.reqStatus",
          "name": "requestStatus",
          "type": "uint8"
        }
      ],
      "stateMutability": "view",
      "type": "function"
    },
    {
      "inputs": [],
      "name": "InspectorCount",
      "outputs": [
        {
          "internalType": "uint256",
          "name": "",
          "type": "uint256"
        }
      ],
      "stateMutability": "view",
      "type": "function"
    },
    {
      "inputs": [],
      "name": "LandCount",
      "outputs": [
        {
          "internalType": "uint256",
          "name": "",
          "type": "uint256"
        }
      ],
      "stateMutability": "view",
      "type": "function"
    },
    {
      "inputs": [],
      "name": "ReturnAllLandList",
      "outputs": [
        {
          "internalType": "uint256[]",
          "name": "",
          "type": "uint256[]"
        }
      ],
      "stateMutability": "view",
      "type": "function"
    },
    {
      "inputs": [
        {
          "internalType": "string",
          "name": "city",
          "type": "string"
        }
      ],
      "name": "ReturnAllUserDetails",
      "outputs": [
        {
          "components": [
            {
              "internalType": "uint256",
              "name": "id",
              "type": "uint256"
            },
            {
              "internalType": "string",
              "name": "name",
              "type": "string"
            },
            {
              "internalType": "string",
              "name": "email",
              "type": "string"
            },
            {
              "internalType": "address",
              "name": "_userAddress",
              "type": "address"
            },
            {
              "internalType": "uint256",
              "name": "age",
              "type": "uint256"
            },
            {
              "internalType": "string",
              "name": "city",
              "type": "string"
            },
            {
              "internalType": "string",
              "name": "document",
              "type": "string"
            },
            {
              "internalType": "string",
              "name": "aadharCard",
              "type": "string"
            },
            {
              "internalType": "string",
              "name": "panCard",
              "type": "string"
            },
            {
              "internalType": "bool",
              "name": "isVerified",
              "type": "bool"
            }
          ],
          "internalType": "struct LandRecords.user[]",
          "name": "",
          "type": "tuple[]"
        }
      ],
      "stateMutability": "view",
      "type": "function"
    },
    {
      "inputs": [
        {
          "internalType": "address",
          "name": "id",
          "type": "address"
        }
      ],
      "name": "ReturnUser",
      "outputs": [
        {
          "components": [
            {
              "internalType": "uint256",
              "name": "id",
              "type": "uint256"
            },
            {
              "internalType": "string",
              "name": "name",
              "type": "string"
            },
            {
              "internalType": "string",
              "name": "email",
              "type": "string"
            },
            {
              "internalType": "address",
              "name": "_userAddress",
              "type": "address"
            },
            {
              "internalType": "uint256",
              "name": "age",
              "type": "uint256"
            },
            {
              "internalType": "string",
              "name": "city",
              "type": "string"
            },
            {
              "internalType": "string",
              "name": "document",
              "type": "string"
            },
            {
              "internalType": "string",
              "name": "aadharCard",
              "type": "string"
            },
            {
              "internalType": "string",
              "name": "panCard",
              "type": "string"
            },
            {
              "internalType": "bool",
              "name": "isVerified",
              "type": "bool"
            }
          ],
          "internalType": "struct LandRecords.user",
          "name": "",
          "type": "tuple"
        }
      ],
      "stateMutability": "view",
      "type": "function"
    },
    {
      "inputs": [
        {
          "internalType": "uint256",
          "name": "",
          "type": "uint256"
        }
      ],
      "name": "TransferRequest",
      "outputs": [
        {
          "internalType": "uint256",
          "name": "landId",
          "type": "uint256"
        },
        {
          "internalType": "address",
          "name": "sellerId",
          "type": "address"
        },
        {
          "internalType": "address",
          "name": "buyerId",
          "type": "address"
        },
        {
          "internalType": "enum LandRecords.reqStatus",
          "name": "requestStatus",
          "type": "uint8"
        }
      ],
      "stateMutability": "view",
      "type": "function"
    },
    {
      "inputs": [
        {
          "internalType": "uint256",
          "name": "_requestId",
          "type": "uint256"
        }
      ],
      "name": "acceptRequest",
      "outputs": [],
      "stateMutability": "nonpayable",
      "type": "function"
    },
    {
      "inputs": [
        {
          "internalType": "uint256",
          "name": "_area",
          "type": "uint256"
        },
        {
          "internalType": "string",
          "name": "_address",
          "type": "string"
        },
        {
          "internalType": "uint256",
          "name": "_landPrice",
          "type": "uint256"
        },
        {
          "internalType": "string",
          "name": "_allLatitudeLongitude",
          "type": "string"
        },
        {
          "internalType": "uint256",
          "name": "_propertyPID",
          "type": "uint256"
        },
        {
          "internalType": "string",
          "name": "_surveyNum",
          "type": "string"
        },
        {
          "internalType": "string",
          "name": "_document",
          "type": "string"
        },
        {
          "internalType": "string",
          "name": "_picture",
          "type": "string"
        }
      ],
      "name": "addLand",
      "outputs": [],
      "stateMutability": "nonpayable",
      "type": "function"
    },
    {
      "inputs": [
        {
          "internalType": "address",
          "name": "_address",
          "type": "address"
        },
        {
          "internalType": "string",
          "name": "_name",
          "type": "string"
        },
        {
          "internalType": "uint256",
          "name": "_age",
          "type": "uint256"
        },
        {
          "internalType": "string",
          "name": "_designation",
          "type": "string"
        },
        {
          "internalType": "string",
          "name": "_city",
          "type": "string"
        }
      ],
      "name": "addLandInspector",
      "outputs": [
        {
          "internalType": "bool",
          "name": "",
          "type": "bool"
        }
      ],
      "stateMutability": "nonpayable",
      "type": "function"
    },
    {
      "inputs": [
        {
          "internalType": "address",
          "name": "",
          "type": "address"
        }
      ],
      "name": "addressToInspector",
      "outputs": [
        {
          "internalType": "uint256",
          "name": "id",
          "type": "uint256"
        },
        {
          "internalType": "address",
          "name": "_inspectorAddress",
          "type": "address"
        },
        {
          "internalType": "string",
          "name": "name",
          "type": "string"
        },
        {
          "internalType": "uint256",
          "name": "age",
          "type": "uint256"
        },
        {
          "internalType": "string",
          "name": "designation",
          "type": "string"
        },
        {
          "internalType": "string",
          "name": "city",
          "type": "string"
        }
      ],
      "stateMutability": "view",
      "type": "function"
    },
    {
      "inputs": [
        {
          "internalType": "address",
          "name": "",
          "type": "address"
        }
      ],
      "name": "addressToUser",
      "outputs": [
        {
          "internalType": "uint256",
          "name": "id",
          "type": "uint256"
        },
        {
          "internalType": "string",
          "name": "name",
          "type": "string"
        },
        {
          "internalType": "string",
          "name": "email",
          "type": "string"
        },
        {
          "internalType": "address",
          "name": "_userAddress",
          "type": "address"
        },
        {
          "internalType": "uint256",
          "name": "age",
          "type": "uint256"
        },
        {
          "internalType": "string",
          "name": "city",
          "type": "string"
        },
        {
          "internalType": "string",
          "name": "document",
          "type": "string"
        },
        {
          "internalType": "string",
          "name": "aadharCard",
          "type": "string"
        },
        {
          "internalType": "string",
          "name": "panCard",
          "type": "string"
        },
        {
          "internalType": "bool",
          "name": "isVerified",
          "type": "bool"
        }
      ],
      "stateMutability": "view",
      "type": "function"
    },
    {
      "inputs": [],
      "name": "allTransferRequestList",
      "outputs": [
        {
          "internalType": "uint256[]",
          "name": "",
          "type": "uint256[]"
        }
      ],
      "stateMutability": "view",
      "type": "function"
    },
    {
      "inputs": [],
      "name": "buyRequestCount",
      "outputs": [
        {
          "internalType": "uint256",
          "name": "",
          "type": "uint256"
        }
      ],
      "stateMutability": "view",
      "type": "function"
    },
    {
      "inputs": [
        {
          "internalType": "uint256",
          "name": "id",
          "type": "uint256"
        }
      ],
      "name": "buyRequestStatus",
      "outputs": [
        {
          "internalType": "bool",
          "name": "",
          "type": "bool"
        }
      ],
      "stateMutability": "view",
      "type": "function"
    },
    {
      "inputs": [
        {
          "internalType": "address",
          "name": "_address",
          "type": "address"
        }
      ],
      "name": "changeContractOwner",
      "outputs": [],
      "stateMutability": "nonpayable",
      "type": "function"
    },
    {
      "inputs": [
        {
          "internalType": "address",
          "name": "_address",
          "type": "address"
        }
      ],
      "name": "isContractOwner",
      "outputs": [
        {
          "internalType": "bool",
          "name": "",
          "type": "bool"
        }
      ],
      "stateMutability": "view",
      "type": "function"
    },
    {
      "inputs": [
        {
          "internalType": "address",
          "name": "_id",
          "type": "address"
        }
      ],
      "name": "isLandInspector",
      "outputs": [
        {
          "internalType": "bool",
          "name": "",
          "type": "bool"
        }
      ],
      "stateMutability": "view",
      "type": "function"
    },
    {
      "inputs": [
        {
          "internalType": "uint256",
          "name": "id",
          "type": "uint256"
        }
      ],
      "name": "isLandVerified",
      "outputs": [
        {
          "internalType": "bool",
          "name": "",
          "type": "bool"
        }
      ],
      "stateMutability": "view",
      "type": "function"
    },
    {
      "inputs": [
        {
          "internalType": "address",
          "name": "_addr",
          "type": "address"
        }
      ],
      "name": "isUserRegistered",
      "outputs": [
        {
          "internalType": "bool",
          "name": "",
          "type": "bool"
        }
      ],
      "stateMutability": "view",
      "type": "function"
    },
    {
      "inputs": [
        {
          "internalType": "address",
          "name": "id",
          "type": "address"
        }
      ],
      "name": "isUserVerified",
      "outputs": [
        {
          "internalType": "bool",
          "name": "",
          "type": "bool"
        }
      ],
      "stateMutability": "view",
      "type": "function"
    },
    {
      "inputs": [
        {
          "internalType": "uint256",
          "name": "",
          "type": "uint256"
        }
      ],
      "name": "lands",
      "outputs": [
        {
          "internalType": "uint256",
          "name": "id",
          "type": "uint256"
        },
        {
          "internalType": "uint256",
          "name": "landArea",
          "type": "uint256"
        },
        {
          "internalType": "string",
          "name": "landAddress",
          "type": "string"
        },
        {
          "internalType": "uint256",
          "name": "landPrice",
          "type": "uint256"
        },
        {
          "internalType": "string",
          "name": "allLatitudeLongitude",
          "type": "string"
        },
        {
          "internalType": "uint256",
          "name": "propertyPID",
          "type": "uint256"
        },
        {
          "internalType": "string",
          "name": "surveyNumber",
          "type": "string"
        },
        {
          "internalType": "string",
          "name": "landDocument",
          "type": "string"
        },
        {
          "internalType": "string",
          "name": "landPicture",
          "type": "string"
        },
        {
          "internalType": "bool",
          "name": "isForSell",
          "type": "bool"
        },
        {
          "internalType": "address payable",
          "name": "landOwner",
          "type": "address"
        },
        {
          "internalType": "bool",
          "name": "isLandVerified",
          "type": "bool"
        }
      ],
      "stateMutability": "view",
      "type": "function"
    },
    {
      "inputs": [
        {
          "internalType": "uint256",
          "name": "id",
          "type": "uint256"
        }
      ],
      "name": "makeItNotforSell",
      "outputs": [],
      "stateMutability": "nonpayable",
      "type": "function"
    },
    {
      "inputs": [
        {
          "internalType": "uint256",
          "name": "id",
          "type": "uint256"
        }
      ],
      "name": "makeItforSell",
      "outputs": [],
      "stateMutability": "nonpayable",
      "type": "function"
    },
    {
      "inputs": [
        {
          "internalType": "address",
          "name": "id",
          "type": "address"
        }
      ],
      "name": "myAllLands",
      "outputs": [
        {
          "internalType": "uint256[]",
          "name": "",
          "type": "uint256[]"
        }
      ],
      "stateMutability": "view",
      "type": "function"
    },
    {
      "inputs": [
        {
          "internalType": "address",
          "name": "id",
          "type": "address"
        }
      ],
      "name": "myAllLandsDetails",
      "outputs": [
        {
          "components": [
            {
              "internalType": "uint256",
              "name": "id",
              "type": "uint256"
            },
            {
              "internalType": "uint256",
              "name": "landArea",
              "type": "uint256"
            },
            {
              "internalType": "string",
              "name": "landAddress",
              "type": "string"
            },
            {
              "internalType": "uint256",
              "name": "landPrice",
              "type": "uint256"
            },
            {
              "internalType": "string",
              "name": "allLatitudeLongitude",
              "type": "string"
            },
            {
              "internalType": "uint256",
              "name": "propertyPID",
              "type": "uint256"
            },
            {
              "internalType": "string",
              "name": "surveyNumber",
              "type": "string"
            },
            {
              "internalType": "string",
              "name": "landDocument",
              "type": "string"
            },
            {
              "internalType": "string",
              "name": "landPicture",
              "type": "string"
            },
            {
              "internalType": "bool",
              "name": "isForSell",
              "type": "bool"
            },
            {
              "internalType": "address payable",
              "name": "landOwner",
              "type": "address"
            },
            {
              "internalType": "bool",
              "name": "isLandVerified",
              "type": "bool"
            }
          ],
          "internalType": "struct LandRecords.Land[]",
          "name": "",
          "type": "tuple[]"
        }
      ],
      "stateMutability": "view",
      "type": "function"
    },
    {
      "inputs": [],
      "name": "myReceivedLandRequests",
      "outputs": [
        {
          "internalType": "uint256[]",
          "name": "",
          "type": "uint256[]"
        }
      ],
      "stateMutability": "view",
      "type": "function"
    },
    {
      "inputs": [],
      "name": "mySentLandRequests",
      "outputs": [
        {
          "internalType": "uint256[]",
          "name": "",
          "type": "uint256[]"
        }
      ],
      "stateMutability": "view",
      "type": "function"
    },
    {
      "inputs": [
        {
          "internalType": "string",
          "name": "_name",
          "type": "string"
        },
        {
          "internalType": "string",
          "name": "_email",
          "type": "string"
        },
        {
          "internalType": "uint256",
          "name": "_age",
          "type": "uint256"
        },
        {
          "internalType": "string",
          "name": "_city",
          "type": "string"
        },
        {
          "internalType": "string",
          "name": "_aadharNumber",
          "type": "string"
        },
        {
          "internalType": "string",
          "name": "_panNumber",
          "type": "string"
        },
        {
          "internalType": "string",
          "name": "_document",
          "type": "string"
        }
      ],
      "name": "registerNewUser",
      "outputs": [],
      "stateMutability": "nonpayable",
      "type": "function"
    },
    {
      "inputs": [
        {
          "internalType": "uint256",
          "name": "_requestId",
          "type": "uint256"
        }
      ],
      "name": "rejectRequest",
      "outputs": [],
      "stateMutability": "nonpayable",
      "type": "function"
    },
    {
      "inputs": [
        {
          "internalType": "address",
          "name": "_adrs",
          "type": "address"
        }
      ],
      "name": "removeLandInspector",
      "outputs": [],
      "stateMutability": "nonpayable",
      "type": "function"
    },
    {
      "inputs": [
        {
          "internalType": "uint256",
          "name": "_landId",
          "type": "uint256"
        }
      ],
      "name": "requestforBuy",
      "outputs": [],
      "stateMutability": "nonpayable",
      "type": "function"
    },
    {
      "inputs": [],
      "name": "returnAllLandInspectorsDetails",
      "outputs": [
        {
          "components": [
            {
              "internalType": "uint256",
              "name": "id",
              "type": "uint256"
            },
            {
              "internalType": "address",
              "name": "_inspectorAddress",
              "type": "address"
            },
            {
              "internalType": "string",
              "name": "name",
              "type": "string"
            },
            {
              "internalType": "uint256",
              "name": "age",
              "type": "uint256"
            },
            {
              "internalType": "string",
              "name": "designation",
              "type": "string"
            },
            {
              "internalType": "string",
              "name": "city",
              "type": "string"
            }
          ],
          "internalType": "struct LandRecords.landInspector[]",
          "name": "",
          "type": "tuple[]"
        }
      ],
      "stateMutability": "view",
      "type": "function"
    },
    {
      "inputs": [],
      "name": "returnAllLands",
      "outputs": [
        {
          "components": [
            {
              "internalType": "uint256",
              "name": "id",
              "type": "uint256"
            },
            {
              "internalType": "uint256",
              "name": "landArea",
              "type": "uint256"
            },
            {
              "internalType": "string",
              "name": "landAddress",
              "type": "string"
            },
            {
              "internalType": "uint256",
              "name": "landPrice",
              "type": "uint256"
            },
            {
              "internalType": "string",
              "name": "allLatitudeLongitude",
              "type": "string"
            },
            {
              "internalType": "uint256",
              "name": "propertyPID",
              "type": "uint256"
            },
            {
              "internalType": "string",
              "name": "surveyNumber",
              "type": "string"
            },
            {
              "internalType": "string",
              "name": "landDocument",
              "type": "string"
            },
            {
              "internalType": "string",
              "name": "landPicture",
              "type": "string"
            },
            {
              "internalType": "bool",
              "name": "isForSell",
              "type": "bool"
            },
            {
              "internalType": "address payable",
              "name": "landOwner",
              "type": "address"
            },
            {
              "internalType": "bool",
              "name": "isLandVerified",
              "type": "bool"
            }
          ],
          "internalType": "struct LandRecords.Land[]",
          "name": "",
          "type": "tuple[]"
        }
      ],
      "stateMutability": "view",
      "type": "function"
    },
    {
      "inputs": [
        {
          "internalType": "address",
          "name": "_adrs",
          "type": "address"
        }
      ],
      "name": "returnLandInspector",
      "outputs": [
        {
          "components": [
            {
              "internalType": "uint256",
              "name": "id",
              "type": "uint256"
            },
            {
              "internalType": "address",
              "name": "_inspectorAddress",
              "type": "address"
            },
            {
              "internalType": "string",
              "name": "name",
              "type": "string"
            },
            {
              "internalType": "uint256",
              "name": "age",
              "type": "uint256"
            },
            {
              "internalType": "string",
              "name": "designation",
              "type": "string"
            },
            {
              "internalType": "string",
              "name": "city",
              "type": "string"
            }
          ],
          "internalType": "struct LandRecords.landInspector",
          "name": "",
          "type": "tuple"
        }
      ],
      "stateMutability": "view",
      "type": "function"
    },
    {
      "inputs": [
        {
          "internalType": "uint256",
          "name": "_requestId",
          "type": "uint256"
        },
        {
          "internalType": "string",
          "name": "documentUrl",
          "type": "string"
        }
      ],
      "name": "transferOwnership",
      "outputs": [
        {
          "internalType": "bool",
          "name": "",
          "type": "bool"
        }
      ],
      "stateMutability": "nonpayable",
      "type": "function"
    },
    {
      "inputs": [],
      "name": "transferRequestCount",
      "outputs": [
        {
          "internalType": "uint256",
          "name": "",
          "type": "uint256"
        }
      ],
      "stateMutability": "view",
      "type": "function"
    },
    {
      "inputs": [
        {
          "internalType": "uint256",
          "name": "id",
          "type": "uint256"
        }
      ],
      "name": "transferRequestStatus",
      "outputs": [
        {
          "internalType": "bool",
          "name": "",
          "type": "bool"
        }
      ],
      "stateMutability": "view",
      "type": "function"
    },
    {
      "inputs": [],
      "name": "userCount",
      "outputs": [
        {
          "internalType": "uint256",
          "name": "",
          "type": "uint256"
        }
      ],
      "stateMutability": "view",
      "type": "function"
    },
    {
      "inputs": [
        {
          "internalType": "uint256",
          "name": "_id",
          "type": "uint256"
        }
      ],
      "name": "verifyLand",
      "outputs": [],
      "stateMutability": "nonpayable",
      "type": "function"
    },
    {
      "inputs": [
        {
          "internalType": "address",
          "name": "_userId",
          "type": "address"
        }
      ],
      "name": "verifyUser",
      "outputs": [],
      "stateMutability": "nonpayable",
      "type": "function"
    }
  ],
  "bytecode": "0x608060405234801561001057600080fd5b50600080546001600160a01b031916331790556145b2806100326000396000f3fe608060405234801561001057600080fd5b50600436106102535760003560e01c80639bf3d2a711610146578063d2d50eab116100c3578063e0bf543911610087578063e0bf54391461059d578063e165af87146105bd578063e261f1e5146105d0578063edf53886146105fb578063f9c43bdf14610624578063fa0245491461063757600080fd5b8063d2d50eab1461051f578063d3b368c014610527578063d909ecd81461053a578063de11768814610542578063de26e7c91461055557600080fd5b8063ace417e01161010a578063ace417e0146104ae578063c26e11eb146104de578063c4f291f9146104f1578063c6dcdc37146104f9578063d196ebf21461050c57600080fd5b80639bf3d2a71461045c5780639c32e3b414610464578063a18cb9e21461046c578063a43ec86214610481578063a519e9101461048957600080fd5b8063499701b2116101d45780637517e00f116101985780637517e00f146103ee57806376d6180b146104015780638b1751d21461042157806393a44f881461044157806394cffc5c1461044957600080fd5b8063499701b21461033b5780634ba1f098146103435780634d813120146103565780636cbf6cf8146103695780636d52fdd01461039657600080fd5b806337a1b9411161021b57806337a1b941146102cf5780633ead67b5146102e25780634056a798146102f5578063416f958f1461030857806345adac391461031b57600080fd5b806307973ccf14610258578063163f75221461026f57806323393d77146102925780632653dbda146102a75780632d7788db146102bc575b600080fd5b6002545b6040519081526020015b60405180910390f35b61028261027d3660046139a5565b61064a565b6040519015158152602001610266565b61029a610680565b60405161026691906139c7565b6102ba6102b5366004613aae565b6106ee565b005b6102ba6102ca366004613bae565b61090b565b6102826102dd366004613bae565b610955565b6102ba6102f03660046139a5565b61098e565b610282610303366004613bae565b610a0f565b6102ba610316366004613bc7565b610a41565b61032e6103293660046139a5565b610c63565b6040516102669190613d12565b61029a6110a5565b6102ba610351366004613bae565b611104565b6102ba6103643660046139a5565b611272565b610282610377366004613bae565b6000908152600e6020526040902060090154600160a81b900460ff1690565b6103de6103a4366004613bae565b600f6020526000908152604090208054600182015460029092015490916001600160a01b039081169190811690600160a01b900460ff1684565b6040516102669493929190613e62565b6102ba6103fc3660046139a5565b6112ac565b61041461040f366004613ead565b61150f565b6040516102669190613fd4565b61043461042f3660046139a5565b611aad565b60405161026691906140a4565b60035461025c565b6102ba610457366004613bae565b611cb8565b61032e611cfe565b61029a612145565b6104746121a4565b60405161026691906140b7565b60015461025c565b61049c6104973660046139a5565b61248e565b6040516102669695949392919061410c565b6102826104bc3660046139a5565b6001600160a01b03166000908152600960208190526040909120015460ff1690565b6102ba6104ec366004613bae565b612665565b60045461025c565b61028261050736600461416f565b6126ae565b61029a61051a3660046139a5565b612841565b60055461025c565b6102ba610535366004613bae565b6128ad565b61029a612a1d565b6102826105503660046139a5565b612a9b565b6103de610563366004613bae565b60106020526000908152604090208054600182015460029092015490916001600160a01b039081169190811690600160a01b900460ff1684565b6105b06105ab3660046139a5565b612aba565b6040516102669190614212565b6102826105cb3660046139a5565b612e94565b6105e36105de366004613bae565b612ebd565b6040516102669c9b9a99989796959493929190614225565b61060e6106093660046139a5565b6131d0565b6040516102669a999897969594939291906142de565b6102ba610632366004613bae565b61355e565b61028261064536600461438e565b613594565b6001600160a01b0381166000908152600c602052604081205460ff161561067357506001919050565b506000919050565b919050565b60016000526013602090815260008051602061453d83398151915280546040805182850281018501909152818152606093909291908301828280156106e457602002820191906000526020600020905b8154815260200190600101908083116106d0575b5050505050905090565b336000908152600c602052604090205460ff161561070b57600080fd5b336000908152600c60205260408120805460ff191660011790556002805491610733836143eb565b90915550507f72c6bfb7988af3a1efa6568f02a999bc52252641c659d85961ca3d372b57d5cf805460018082019092557ffc2858506235d5502cafdfae2dcc7804b97258f4d77357c39b0f2a32aa2e6a50018054336001600160a01b03199182168117909255600280546000908152600a6020908152604080832080549095168617909455835161014081018552925483528281018d81528385018d905260608401869052608084018c905260a084018b905260c0840188905260e084018a905261010084018990526101208401839052948252600981529290208151815592518051919461082893908501929101906137ea565b50604082015180516108449160028401916020909101906137ea565b5060608201516003820180546001600160a01b0319166001600160a01b039092169190911790556080820151600482015560a082015180516108909160058401916020909101906137ea565b5060c082015180516108ac9160068401916020909101906137ea565b5060e082015180516108c89160078401916020909101906137ea565b5061010082015180516108e59160088401916020909101906137ea565b5061012091909101516009909101805460ff191691151591909117905550505050505050565b6000818152601060205260409020600201546001600160a01b0316331461093157600080fd5b6000908152601060205260409020600201805460ff60a01b1916600160a11b179055565b600060016000838152600f60205260409020600290810154600160a01b900460ff169081111561098757610987613e4c565b1492915050565b6000546001600160a01b031633146109ed5760405162461bcd60e51b815260206004820152601960248201527f796f7520617265206e6f7420636f6e74726163744f776e65720000000000000060448201526064015b60405180910390fd5b600080546001600160a01b0319166001600160a01b0392909216919091179055565b600060016000838152601060205260409020600290810154600160a01b900460ff169081111561098757610987613e4c565b336000908152600960208190526040909120015460ff16610a6157600080fd5b60038054906000610a71836143eb565b9091555050604080516101808101825260035480825260208083018c81528385018c8152606085018c9052608085018b905260a085018a905260c0850189905260e08501889052610100850187905260006101208601819052336101408701526101608601819052938452600e83529490922083518155915160018301559251805192939192610b0792600285019201906137ea565b506060820151600382015560808201518051610b2d9160048401916020909101906137ea565b5060a0820151600582015560c08201518051610b539160068401916020909101906137ea565b5060e08201518051610b6f9160078401916020909101906137ea565b506101008201518051610b8c9160088401916020909101906137ea565b5061012082015160099091018054610140840151610160909401511515600160a81b0260ff60a81b196001600160a01b0390951661010002610100600160a81b0319941515949094166001600160a81b03199092169190911792909217929092161790555050336000908152600d6020908152604082206003805482546001818101855593865284862001556013909252905460008051602061453d833981519152805492830181559092527f3ce2cb385edcbf7185fd469186dd769993781141b215a1a4715ebb7f94fd59ab0155505050505050565b6001600160a01b0381166000908152600d60205260408120546060918167ffffffffffffffff811115610c9857610c98613a0b565b604051908082528060200260200182016040528015610cd157816020015b610cbe61386e565b815260200190600190039081610cb65790505b50905060005b8281101561109d576001600160a01b0385166000908152600d602052604081208054600e92919084908110610d0e57610d0e614406565b90600052602060002001548152602001908152602001600020604051806101800160405290816000820154815260200160018201548152602001600282018054610d579061441c565b80601f0160208091040260200160405190810160405280929190818152602001828054610d839061441c565b8015610dd05780601f10610da557610100808354040283529160200191610dd0565b820191906000526020600020905b815481529060010190602001808311610db357829003601f168201915b5050505050815260200160038201548152602001600482018054610df39061441c565b80601f0160208091040260200160405190810160405280929190818152602001828054610e1f9061441c565b8015610e6c5780601f10610e4157610100808354040283529160200191610e6c565b820191906000526020600020905b815481529060010190602001808311610e4f57829003601f168201915b5050505050815260200160058201548152602001600682018054610e8f9061441c565b80601f0160208091040260200160405190810160405280929190818152602001828054610ebb9061441c565b8015610f085780601f10610edd57610100808354040283529160200191610f08565b820191906000526020600020905b815481529060010190602001808311610eeb57829003601f168201915b50505050508152602001600782018054610f219061441c565b80601f0160208091040260200160405190810160405280929190818152602001828054610f4d9061441c565b8015610f9a5780601f10610f6f57610100808354040283529160200191610f9a565b820191906000526020600020905b815481529060010190602001808311610f7d57829003601f168201915b50505050508152602001600882018054610fb39061441c565b80601f0160208091040260200160405190810160405280929190818152602001828054610fdf9061441c565b801561102c5780601f106110015761010080835404028352916020019161102c565b820191906000526020600020905b81548152906001019060200180831161100f57829003601f168201915b50505091835250506009919091015460ff808216151560208401526001600160a01b036101008304166040840152600160a81b909104161515606090910152825183908390811061107f5761107f614406565b60200260200101819052508080611095906143eb565b915050610cd7565b509392505050565b336000908152601160209081526040918290208054835181840281018401909452808452606093928301828280156106e457602002820191906000526020600020908154815260200190600101908083116106d0575050505050905090565b6000818152601060205260409020600201546001600160a01b0316331461112a57600080fd5b6000818152601060205260408120600201805460ff60a01b1916600160a01b179055600580549161115a836143eb565b90915550506040805160808101825260008381526010602090815283822080548452338285019081526001918201546001600160a01b03908116868801908152606087018681526005548752600f9095529690942085518155905191810180549285166001600160a01b03199384161790559451600280870180549290951692821683178555925194959493926001600160a81b031990911690911790600160a01b90849081111561120e5761120e613e4c565b021790555050601460205250506005547fb6c61a840592cc84133e4b25bd509abf4659307c57b160799b38490a5aa48f2c80546001810182556000919091527f2fdc54bebe143af21bc9f7874666206c3383b1c51a1a7063fa557c077952093e0155565b61127b33612e94565b61128457600080fd5b6001600160a01b0316600090815260096020819052604090912001805460ff19166001179055565b6000546001600160a01b031633146113065760405162461bcd60e51b815260206004820152601960248201527f596f7520617265206e6f7420636f6e74726163744f776e65720000000000000060448201526064016109e4565b6001600160a01b03811660009081526008602052604090205460ff1661136e5760405162461bcd60e51b815260206004820152601860248201527f4c616e6420496e73706563746f72206e6f7420666f756e64000000000000000060448201526064016109e4565b6001600160a01b03811660009081526008602090815260408220805460ff19169055600182526007905260008051602061455d83398151915254905b8181101561150a576001600052600760205260008051602061455d83398151915280546001600160a01b0385169190839081106113e9576113e9614406565b6000918252602090912001546001600160a01b031614156114f85760016000819052600760205260008051602061455d8339815191529061142a9084614457565b8154811061143a5761143a614406565b600091825260208083209091015460019092526007905260008051602061455d83398151915280546001600160a01b03909216918390811061147e5761147e614406565b600091825260208083209190910180546001600160a01b0319166001600160a01b039490941693909317909255600190526007905260008051602061455d8339815191528054806114d1576114d161446e565b600082815260209020810160001990810180546001600160a01b0319169055019055505050565b80611502816143eb565b9150506113aa565b505050565b60016000908152600b6020527f72c6bfb7988af3a1efa6568f02a999bc52252641c659d85961ca3d372b57d5cf546060918167ffffffffffffffff81111561155957611559613a0b565b60405190808252806020026020018201604052801561159257816020015b61157f6138dc565b8152602001906001900390816115775790505b50905060005b8281101561109d57846040516020016115b19190614484565b6040516020818303038152906040528051906020012060096000600b60006001815260200190815260200160002084815481106115f0576115f0614406565b60009182526020808320909101546001600160a01b031683528281019390935260409182019020905161162992600590920191016144a0565b604051602081830303815290604052805190602001201415611a9b5760016000908152600b6020527f72c6bfb7988af3a1efa6568f02a999bc52252641c659d85961ca3d372b57d5cf805460099291908490811061168957611689614406565b9060005260206000200160009054906101000a90046001600160a01b03166001600160a01b03166001600160a01b0316815260200190815260200160002060405180610140016040529081600082015481526020016001820180546116ed9061441c565b80601f01602080910402602001604051908101604052809291908181526020018280546117199061441c565b80156117665780601f1061173b57610100808354040283529160200191611766565b820191906000526020600020905b81548152906001019060200180831161174957829003601f168201915b5050505050815260200160028201805461177f9061441c565b80601f01602080910402602001604051908101604052809291908181526020018280546117ab9061441c565b80156117f85780601f106117cd576101008083540402835291602001916117f8565b820191906000526020600020905b8154815290600101906020018083116117db57829003601f168201915b505050918352505060038201546001600160a01b03166020820152600482015460408201526005820180546060909201916118329061441c565b80601f016020809104026020016040519081016040528092919081815260200182805461185e9061441c565b80156118ab5780601f10611880576101008083540402835291602001916118ab565b820191906000526020600020905b81548152906001019060200180831161188e57829003601f168201915b505050505081526020016006820180546118c49061441c565b80601f01602080910402602001604051908101604052809291908181526020018280546118f09061441c565b801561193d5780601f106119125761010080835404028352916020019161193d565b820191906000526020600020905b81548152906001019060200180831161192057829003601f168201915b505050505081526020016007820180546119569061441c565b80601f01602080910402602001604051908101604052809291908181526020018280546119829061441c565b80156119cf5780601f106119a4576101008083540402835291602001916119cf565b820191906000526020600020905b8154815290600101906020018083116119b257829003601f168201915b505050505081526020016008820180546119e89061441c565b80601f0160208091040260200160405190810160405280929190818152602001828054611a149061441c565b8015611a615780601f10611a3657610100808354040283529160200191611a61565b820191906000526020600020905b815481529060010190602001808311611a4457829003601f168201915b50505091835250506009919091015460ff1615156020909101528251839083908110611a8f57611a8f614406565b60200260200101819052505b80611aa5816143eb565b915050611598565b611ab561393a565b6001600160a01b03808316600090815260066020908152604091829020825160c081018452815481526001820154909416918401919091526002810180549192840191611b019061441c565b80601f0160208091040260200160405190810160405280929190818152602001828054611b2d9061441c565b8015611b7a5780601f10611b4f57610100808354040283529160200191611b7a565b820191906000526020600020905b815481529060010190602001808311611b5d57829003601f168201915b5050505050815260200160038201548152602001600482018054611b9d9061441c565b80601f0160208091040260200160405190810160405280929190818152602001828054611bc99061441c565b8015611c165780601f10611beb57610100808354040283529160200191611c16565b820191906000526020600020905b815481529060010190602001808311611bf957829003601f168201915b50505050508152602001600582018054611c2f9061441c565b80601f0160208091040260200160405190810160405280929190818152602001828054611c5b9061441c565b8015611ca85780601f10611c7d57610100808354040283529160200191611ca8565b820191906000526020600020905b815481529060010190602001808311611c8b57829003601f168201915b5050505050815250509050919050565b6000818152600e602052604090206009015461010090046001600160a01b03163314611ce357600080fd5b6000908152600e60205260409020600901805460ff19169055565b60016000908152601360205260008051602061453d833981519152546060918167ffffffffffffffff811115611d3657611d36613a0b565b604051908082528060200260200182016040528015611d6f57816020015b611d5c61386e565b815260200190600190039081611d545790505b50905060005b8281101561213e5760016000908152601360205260008051602061453d8339815191528054600e92919084908110611daf57611daf614406565b90600052602060002001548152602001908152602001600020604051806101800160405290816000820154815260200160018201548152602001600282018054611df89061441c565b80601f0160208091040260200160405190810160405280929190818152602001828054611e249061441c565b8015611e715780601f10611e4657610100808354040283529160200191611e71565b820191906000526020600020905b815481529060010190602001808311611e5457829003601f168201915b5050505050815260200160038201548152602001600482018054611e949061441c565b80601f0160208091040260200160405190810160405280929190818152602001828054611ec09061441c565b8015611f0d5780601f10611ee257610100808354040283529160200191611f0d565b820191906000526020600020905b815481529060010190602001808311611ef057829003601f168201915b5050505050815260200160058201548152602001600682018054611f309061441c565b80601f0160208091040260200160405190810160405280929190818152602001828054611f5c9061441c565b8015611fa95780601f10611f7e57610100808354040283529160200191611fa9565b820191906000526020600020905b815481529060010190602001808311611f8c57829003601f168201915b50505050508152602001600782018054611fc29061441c565b80601f0160208091040260200160405190810160405280929190818152602001828054611fee9061441c565b801561203b5780601f106120105761010080835404028352916020019161203b565b820191906000526020600020905b81548152906001019060200180831161201e57829003601f168201915b505050505081526020016008820180546120549061441c565b80601f01602080910402602001604051908101604052809291908181526020018280546120809061441c565b80156120cd5780601f106120a2576101008083540402835291602001916120cd565b820191906000526020600020905b8154815290600101906020018083116120b057829003601f168201915b50505091835250506009919091015460ff808216151560208401526001600160a01b036101008304166040840152600160a81b909104161515606090910152825183908390811061212057612120614406565b60200260200101819052508080612136906143eb565b915050611d75565b5092915050565b336000908152601260209081526040918290208054835181840281018401909452808452606093928301828280156106e457602002820191906000526020600020908154815260200190600101908083116106d0575050505050905090565b60016000908152600760205260008051602061455d833981519152546060918167ffffffffffffffff8111156121dc576121dc613a0b565b60405190808252806020026020018201604052801561221557816020015b61220261393a565b8152602001906001900390816121fa5790505b50905060005b8281101561213e5760016000908152600760205260008051602061455d833981519152805460069291908490811061225557612255614406565b60009182526020808320909101546001600160a01b039081168452838201949094526040928301909120825160c0810184528154815260018201549094169184019190915260028101805491928401916122ae9061441c565b80601f01602080910402602001604051908101604052809291908181526020018280546122da9061441c565b80156123275780601f106122fc57610100808354040283529160200191612327565b820191906000526020600020905b81548152906001019060200180831161230a57829003601f168201915b505050505081526020016003820154815260200160048201805461234a9061441c565b80601f01602080910402602001604051908101604052809291908181526020018280546123769061441c565b80156123c35780601f10612398576101008083540402835291602001916123c3565b820191906000526020600020905b8154815290600101906020018083116123a657829003601f168201915b505050505081526020016005820180546123dc9061441c565b80601f01602080910402602001604051908101604052809291908181526020018280546124089061441c565b80156124555780601f1061242a57610100808354040283529160200191612455565b820191906000526020600020905b81548152906001019060200180831161243857829003601f168201915b50505050508152505082828151811061247057612470614406565b60200260200101819052508080612486906143eb565b91505061221b565b60066020526000908152604090208054600182015460028301805492936001600160a01b03909216926124c09061441c565b80601f01602080910402602001604051908101604052809291908181526020018280546124ec9061441c565b80156125395780601f1061250e57610100808354040283529160200191612539565b820191906000526020600020905b81548152906001019060200180831161251c57829003601f168201915b5050505050908060030154908060040180546125549061441c565b80601f01602080910402602001604051908101604052809291908181526020018280546125809061441c565b80156125cd5780601f106125a2576101008083540402835291602001916125cd565b820191906000526020600020905b8154815290600101906020018083116125b057829003601f168201915b5050505050908060050180546125e29061441c565b80601f016020809104026020016040519081016040528092919081815260200182805461260e9061441c565b801561265b5780601f106126305761010080835404028352916020019161265b565b820191906000526020600020905b81548152906001019060200180831161263e57829003601f168201915b5050505050905086565b6000818152600e602052604090206009015461010090046001600160a01b0316331461269057600080fd5b6000908152600e60205260409020600901805460ff19166001179055565b600080546001600160a01b031633146126c957506000612838565b6000546001600160a01b031633146126e057600080fd5b6001600160a01b03861660008181526008602090815260408220805460ff19166001908117909155600790915260008051602061455d833981519152805480830182559083527fb2401e68d452ad3af4aed95d6e19d1a690ed00a9a5bee1b2b0a83b6028446a4f0180546001600160a01b03191690931790925581549190612767836143eb565b90915550506040805160c0810182526001805482526001600160a01b0389811660208085018281528587018c8152606087018c9052608087018b905260a087018a90526000938452600683529690922085518155915193820180546001600160a01b0319169490931693909317909155925180519293926127ee92600285019201906137ea565b5060608201516003820155608082015180516128149160048401916020909101906137ea565b5060a082015180516128309160058401916020909101906137ea565b506001925050505b95945050505050565b6001600160a01b0381166000908152600d60209081526040918290208054835181840281018401909452808452606093928301828280156128a157602002820191906000526020600020905b81548152602001906001019080831161288d575b50505050509050919050565b336000908152600960208190526040909120015460ff1680156128e857506000818152600e6020526040902060090154600160a81b900460ff165b6128f157600080fd5b60048054906000612901836143eb565b9091555050604080516080810182526004548082523360208084019182526000868152600e8252858120600901546001600160a01b0361010090910481168688019081526060870183815295835260109093529590208451815591516001830180549187166001600160a01b03199283161790559051600280840180549290971692821683178755935194959294936001600160a81b031990911690911790600160a01b9084908111156129b7576129b7613e4c565b021790555050506000908152600e602090815260408083206009015461010090046001600160a01b031683526011825280832060048054825460018082018555938752858720015533855260128452918420915482549182018355918452919092200155565b6001600052601460209081527fb6c61a840592cc84133e4b25bd509abf4659307c57b160799b38490a5aa48f2c80546040805182850281018501909152818152606093909291908301828280156106e457602002820191906000526020600020908154815260200190600101908083116106d0575050505050905090565b600080546001600160a01b038381169116141561067357506001919050565b612ac26138dc565b6001600160a01b03821660009081526009602090815260409182902082516101408101909352805483526001810180549192840191612b009061441c565b80601f0160208091040260200160405190810160405280929190818152602001828054612b2c9061441c565b8015612b795780601f10612b4e57610100808354040283529160200191612b79565b820191906000526020600020905b815481529060010190602001808311612b5c57829003601f168201915b50505050508152602001600282018054612b929061441c565b80601f0160208091040260200160405190810160405280929190818152602001828054612bbe9061441c565b8015612c0b5780601f10612be057610100808354040283529160200191612c0b565b820191906000526020600020905b815481529060010190602001808311612bee57829003601f168201915b505050918352505060038201546001600160a01b0316602082015260048201546040820152600582018054606090920191612c459061441c565b80601f0160208091040260200160405190810160405280929190818152602001828054612c719061441c565b8015612cbe5780601f10612c9357610100808354040283529160200191612cbe565b820191906000526020600020905b815481529060010190602001808311612ca157829003601f168201915b50505050508152602001600682018054612cd79061441c565b80601f0160208091040260200160405190810160405280929190818152602001828054612d039061441c565b8015612d505780601f10612d2557610100808354040283529160200191612d50565b820191906000526020600020905b815481529060010190602001808311612d3357829003601f168201915b50505050508152602001600782018054612d699061441c565b80601f0160208091040260200160405190810160405280929190818152602001828054612d959061441c565b8015612de25780601f10612db757610100808354040283529160200191612de2565b820191906000526020600020905b815481529060010190602001808311612dc557829003601f168201915b50505050508152602001600882018054612dfb9061441c565b80601f0160208091040260200160405190810160405280929190818152602001828054612e279061441c565b8015612e745780601f10612e4957610100808354040283529160200191612e74565b820191906000526020600020905b815481529060010190602001808311612e5757829003601f168201915b50505091835250506009919091015460ff16151560209091015292915050565b6001600160a01b03811660009081526008602052604081205460ff161561067357506001919050565b600e6020526000908152604090208054600182015460028301805492939192612ee59061441c565b80601f0160208091040260200160405190810160405280929190818152602001828054612f119061441c565b8015612f5e5780601f10612f3357610100808354040283529160200191612f5e565b820191906000526020600020905b815481529060010190602001808311612f4157829003601f168201915b505050505090806003015490806004018054612f799061441c565b80601f0160208091040260200160405190810160405280929190818152602001828054612fa59061441c565b8015612ff25780601f10612fc757610100808354040283529160200191612ff2565b820191906000526020600020905b815481529060010190602001808311612fd557829003601f168201915b50505050509080600501549080600601805461300d9061441c565b80601f01602080910402602001604051908101604052809291908181526020018280546130399061441c565b80156130865780601f1061305b57610100808354040283529160200191613086565b820191906000526020600020905b81548152906001019060200180831161306957829003601f168201915b50505050509080600701805461309b9061441c565b80601f01602080910402602001604051908101604052809291908181526020018280546130c79061441c565b80156131145780601f106130e957610100808354040283529160200191613114565b820191906000526020600020905b8154815290600101906020018083116130f757829003601f168201915b5050505050908060080180546131299061441c565b80601f01602080910402602001604051908101604052809291908181526020018280546131559061441c565b80156131a25780601f10613177576101008083540402835291602001916131a2565b820191906000526020600020905b81548152906001019060200180831161318557829003601f168201915b5050506009909301549192505060ff808216916001600160a01b0361010082041691600160a81b909104168c565b600960205260009081526040902080546001820180549192916131f29061441c565b80601f016020809104026020016040519081016040528092919081815260200182805461321e9061441c565b801561326b5780601f106132405761010080835404028352916020019161326b565b820191906000526020600020905b81548152906001019060200180831161324e57829003601f168201915b5050505050908060020180546132809061441c565b80601f01602080910402602001604051908101604052809291908181526020018280546132ac9061441c565b80156132f95780601f106132ce576101008083540402835291602001916132f9565b820191906000526020600020905b8154815290600101906020018083116132dc57829003601f168201915b505050506003830154600484015460058501805494956001600160a01b0390931694919350906133289061441c565b80601f01602080910402602001604051908101604052809291908181526020018280546133549061441c565b80156133a15780601f10613376576101008083540402835291602001916133a1565b820191906000526020600020905b81548152906001019060200180831161338457829003601f168201915b5050505050908060060180546133b69061441c565b80601f01602080910402602001604051908101604052809291908181526020018280546133e29061441c565b801561342f5780601f106134045761010080835404028352916020019161342f565b820191906000526020600020905b81548152906001019060200180831161341257829003601f168201915b5050505050908060070180546134449061441c565b80601f01602080910402602001604051908101604052809291908181526020018280546134709061441c565b80156134bd5780601f10613492576101008083540402835291602001916134bd565b820191906000526020600020905b8154815290600101906020018083116134a057829003601f168201915b5050505050908060080180546134d29061441c565b80601f01602080910402602001604051908101604052809291908181526020018280546134fe9061441c565b801561354b5780601f106135205761010080835404028352916020019161354b565b820191906000526020600020905b81548152906001019060200180831161352e57829003601f168201915b5050506009909301549192505060ff168a565b61356733612e94565b61357057600080fd5b6000908152600e60205260409020600901805460ff60a81b1916600160a81b179055565b600061359f33612e94565b6135a857600080fd5b6000838152600f60209081526040808320600281018054600160a01b60ff60a01b198216179091556001600160a01b039081168552600d84528285208254815460018181018455928852958720909501949094559201549091168252812054905b81811015613755576000858152600f6020908152604080832080546001909101546001600160a01b03168452600d90925290912080548390811061364f5761364f614406565b90600052602060002001541415613743576000858152600f602090815260408083206001908101546001600160a01b03168452600d909252909120906136959084614457565b815481106136a5576136a5614406565b6000918252602080832090910154878352600f82526040808420600101546001600160a01b03168452600d90925291208054839081106136e7576136e7614406565b6000918252602080832090910192909255868152600f82526040808220600101546001600160a01b03168252600d909252208054806137285761372861446e565b60019003818190600052602060002001600090559055613755565b8061374d816143eb565b915050613609565b506000848152600f60209081526040808320548352600e82529091208451613785926007909201918601906137ea565b505050600091825250600f6020908152604080832080548452600e9092528083206009908101805460ff19169055600283015492548452922090910180546001600160a01b0390921661010002610100600160a81b0319909216919091179055600190565b8280546137f69061441c565b90600052602060002090601f016020900481019282613818576000855561385e565b82601f1061383157805160ff191683800117855561385e565b8280016001018555821561385e579182015b8281111561385e578251825591602001919060010190613843565b5061386a929150613979565b5090565b60405180610180016040528060008152602001600081526020016060815260200160008152602001606081526020016000815260200160608152602001606081526020016060815260200160001515815260200160006001600160a01b031681526020016000151581525090565b60405180610140016040528060008152602001606081526020016060815260200160006001600160a01b0316815260200160008152602001606081526020016060815260200160608152602001606081526020016000151581525090565b6040518060c001604052806000815260200160006001600160a01b03168152602001606081526020016000815260200160608152602001606081525090565b5b8082111561386a576000815560010161397a565b80356001600160a01b038116811461067b57600080fd5b6000602082840312156139b757600080fd5b6139c08261398e565b9392505050565b6020808252825182820181905260009190848201906040850190845b818110156139ff578351835292840192918401916001016139e3565b50909695505050505050565b634e487b7160e01b600052604160045260246000fd5b600082601f830112613a3257600080fd5b813567ffffffffffffffff80821115613a4d57613a4d613a0b565b604051601f8301601f19908116603f01168101908282118183101715613a7557613a75613a0b565b81604052838152866020858801011115613a8e57600080fd5b836020870160208301376000602085830101528094505050505092915050565b600080600080600080600060e0888a031215613ac957600080fd5b873567ffffffffffffffff80821115613ae157600080fd5b613aed8b838c01613a21565b985060208a0135915080821115613b0357600080fd5b613b0f8b838c01613a21565b975060408a0135965060608a0135915080821115613b2c57600080fd5b613b388b838c01613a21565b955060808a0135915080821115613b4e57600080fd5b613b5a8b838c01613a21565b945060a08a0135915080821115613b7057600080fd5b613b7c8b838c01613a21565b935060c08a0135915080821115613b9257600080fd5b50613b9f8a828b01613a21565b91505092959891949750929550565b600060208284031215613bc057600080fd5b5035919050565b600080600080600080600080610100898b031215613be457600080fd5b88359750602089013567ffffffffffffffff80821115613c0357600080fd5b613c0f8c838d01613a21565b985060408b0135975060608b0135915080821115613c2c57600080fd5b613c388c838d01613a21565b965060808b0135955060a08b0135915080821115613c5557600080fd5b613c618c838d01613a21565b945060c08b0135915080821115613c7757600080fd5b613c838c838d01613a21565b935060e08b0135915080821115613c9957600080fd5b50613ca68b828c01613a21565b9150509295985092959890939650565b60005b83811015613cd1578181015183820152602001613cb9565b83811115613ce0576000848401525b50505050565b60008151808452613cfe816020860160208601613cb6565b601f01601f19169290920160200192915050565b60006020808301818452808551808352604092508286019150828160051b87010184880160005b83811015613e3e57603f198984030185528151610180815185528882015189860152878201518189870152613d7082870182613ce6565b915050606080830151818701525060808083015186830382880152613d958382613ce6565b9250505060a080830151818701525060c08083015186830382880152613dbb8382613ce6565b9250505060e08083015186830382880152613dd68382613ce6565b925050506101008083015186830382880152613df28382613ce6565b9250505061012080830151613e0a8288018215159052565b5050610140828101516001600160a01b03169086015261016091820151151591909401529386019390860190600101613d39565b509098975050505050505050565b634e487b7160e01b600052602160045260246000fd5b8481526001600160a01b038481166020830152831660408201526080810160038310613e9e57634e487b7160e01b600052602160045260246000fd5b82606083015295945050505050565b600060208284031215613ebf57600080fd5b813567ffffffffffffffff811115613ed657600080fd5b613ee284828501613a21565b949350505050565b6000610140825184526020830151816020860152613f0a82860182613ce6565b91505060408301518482036040860152613f248282613ce6565b9150506060830151613f4160608601826001600160a01b03169052565b506080830151608085015260a083015184820360a0860152613f638282613ce6565b91505060c083015184820360c0860152613f7d8282613ce6565b91505060e083015184820360e0860152613f978282613ce6565b9150506101008084015185830382870152613fb28382613ce6565b9250505061012080840151613fca8287018215159052565b5090949350505050565b6000602080830181845280855180835260408601915060408160051b870101925083870160005b8281101561402957603f19888603018452614017858351613eea565b94509285019290850190600101613ffb565b5092979650505050505050565b8051825260018060a01b0360208201511660208301526000604082015160c0604085015261406760c0850182613ce6565b9050606083015160608501526080830151848203608086015261408a8282613ce6565b91505060a083015184820360a08601526128388282613ce6565b6020815260006139c06020830184614036565b6000602080830181845280855180835260408601915060408160051b870101925083870160005b8281101561402957603f198886030184526140fa858351614036565b945092850192908501906001016140de565b8681526001600160a01b038616602082015260c06040820181905260009061413690830187613ce6565b856060840152828103608084015261414e8186613ce6565b905082810360a08401526141628185613ce6565b9998505050505050505050565b600080600080600060a0868803121561418757600080fd5b6141908661398e565b9450602086013567ffffffffffffffff808211156141ad57600080fd5b6141b989838a01613a21565b95506040880135945060608801359150808211156141d657600080fd5b6141e289838a01613a21565b935060808801359150808211156141f857600080fd5b5061420588828901613a21565b9150509295509295909350565b6020815260006139c06020830184613eea565b60006101808e83528d60208401528060408401526142458184018e613ce6565b90508b6060840152828103608084015261425f818c613ce6565b90508960a084015282810360c0840152614279818a613ce6565b905082810360e084015261428d8189613ce6565b90508281036101008401526142a28188613ce6565b9150508415156101208301526142c46101408301856001600160a01b03169052565b8215156101608301529d9c50505050505050505050505050565b60006101408c83528060208401526142f88184018d613ce6565b9050828103604084015261430c818c613ce6565b6001600160a01b038b166060850152608084018a905283810360a085015290506143368189613ce6565b905082810360c084015261434a8188613ce6565b905082810360e084015261435e8187613ce6565b90508281036101008401526143738186613ce6565b9150508215156101208301529b9a5050505050505050505050565b600080604083850312156143a157600080fd5b82359150602083013567ffffffffffffffff8111156143bf57600080fd5b6143cb85828601613a21565b9150509250929050565b634e487b7160e01b600052601160045260246000fd5b60006000198214156143ff576143ff6143d5565b5060010190565b634e487b7160e01b600052603260045260246000fd5b600181811c9082168061443057607f821691505b6020821081141561445157634e487b7160e01b600052602260045260246000fd5b50919050565b600082821015614469576144696143d5565b500390565b634e487b7160e01b600052603160045260246000fd5b60008251614496818460208701613cb6565b9190910192915050565b600080835481600182811c9150808316806144bc57607f831692505b60208084108214156144dc57634e487b7160e01b86526022600452602486fd5b8180156144f057600181146145015761452e565b60ff1986168952848901965061452e565b60008a81526020902060005b868110156145265781548b82015290850190830161450d565b505084890196505b50949897505050505050505056fe4155c2f711f2cdd34f8262ab8fb9b7020a700fe7b6948222152f7670d1fdf34db39221ace053465ec3453ce2b36430bd138b997ecea25c1043da0c366812b828a26469706673582212202e03b2dcd3158c2244133ca61cb7bcc6f0e5340eb64eb1d47ad246ee6d0b01c164736f6c63430008090033",
  "linkReferences": {},
  "deployedLinkReferences": {}
}