{
  "_format": "hh-sol-artifact-1",
  "contractName": "LandRecords",
  "sourceName": "contracts/LandRecords.sol",
  "abi": [
    {
      "inputs": [],
      "stateMutability": "nonpayable",
      "type": "constructor"
    },
    {
      "inputs": [
        {
          "internalType": "uint256",
          "name": "",
          "type": "uint256"
        }
      ],
      "name": "BuyRequest",
      "outputs": [
        {
          "internalType": "uint256",
          "name": "landId",
          "type": "uint256"
        },
        {
          "internalType": "address",
          "name": "buyerId",
          "type": "address"
        },
        {
          "internalType": "address",
          "name": "sellerId",
          "type": "address"
        },
        {
          "internalType": "enum LandRecords.reqStatus",
          "name": "requestStatus",
          "type": "uint8"
        }
      ],
      "stateMutability": "view",
      "type": "function"
    },
    {
      "inputs": [],
      "name": "InspectorCount",
      "outputs": [
        {
          "internalType": "uint256",
          "name": "",
          "type": "uint256"
        }
      ],
      "stateMutability": "view",
      "type": "function"
    },
    {
      "inputs": [],
      "name": "LandCount",
      "outputs": [
        {
          "internalType": "uint256",
          "name": "",
          "type": "uint256"
        }
      ],
      "stateMutability": "view",
      "type": "function"
    },
    {
      "inputs": [],
      "name": "ReturnAllLandList",
      "outputs": [
        {
          "internalType": "uint256[]",
          "name": "",
          "type": "uint256[]"
        }
      ],
      "stateMutability": "view",
      "type": "function"
    },
    {
      "inputs": [],
      "name": "ReturnAllUserList",
      "outputs": [
        {
          "internalType": "address[]",
          "name": "",
          "type": "address[]"
        }
      ],
      "stateMutability": "view",
      "type": "function"
    },
    {
      "inputs": [
        {
          "internalType": "address",
          "name": "id",
          "type": "address"
        }
      ],
      "name": "ReturnUser",
      "outputs": [
        {
          "components": [
            {
              "internalType": "string",
              "name": "name",
              "type": "string"
            },
            {
              "internalType": "string",
              "name": "email",
              "type": "string"
            },
            {
              "internalType": "address",
              "name": "id",
              "type": "address"
            },
            {
              "internalType": "uint256",
              "name": "age",
              "type": "uint256"
            },
            {
              "internalType": "string",
              "name": "city",
              "type": "string"
            },
            {
              "internalType": "string",
              "name": "document",
              "type": "string"
            },
            {
              "internalType": "string",
              "name": "aadharCard",
              "type": "string"
            },
            {
              "internalType": "string",
              "name": "panCard",
              "type": "string"
            },
            {
              "internalType": "bool",
              "name": "isVerified",
              "type": "bool"
            }
          ],
          "internalType": "struct LandRecords.user",
          "name": "",
          "type": "tuple"
        }
      ],
      "stateMutability": "view",
      "type": "function"
    },
    {
      "inputs": [
        {
          "internalType": "uint256",
          "name": "",
          "type": "uint256"
        }
      ],
      "name": "TransferRequest",
      "outputs": [
        {
          "internalType": "uint256",
          "name": "landId",
          "type": "uint256"
        },
        {
          "internalType": "address",
          "name": "sellerId",
          "type": "address"
        },
        {
          "internalType": "address",
          "name": "buyerId",
          "type": "address"
        },
        {
          "internalType": "enum LandRecords.reqStatus",
          "name": "requestStatus",
          "type": "uint8"
        }
      ],
      "stateMutability": "view",
      "type": "function"
    },
    {
      "inputs": [
        {
          "internalType": "uint256",
          "name": "_requestId",
          "type": "uint256"
        }
      ],
      "name": "acceptRequest",
      "outputs": [],
      "stateMutability": "nonpayable",
      "type": "function"
    },
    {
      "inputs": [
        {
          "internalType": "uint256",
          "name": "_area",
          "type": "uint256"
        },
        {
          "internalType": "string",
          "name": "_address",
          "type": "string"
        },
        {
          "internalType": "string",
          "name": "_surveyNum",
          "type": "string"
        },
        {
          "internalType": "string",
          "name": "_document",
          "type": "string"
        }
      ],
      "name": "addLand",
      "outputs": [],
      "stateMutability": "nonpayable",
      "type": "function"
    },
    {
      "inputs": [
        {
          "internalType": "address",
          "name": "_address",
          "type": "address"
        },
        {
          "internalType": "string",
          "name": "_name",
          "type": "string"
        },
        {
          "internalType": "uint256",
          "name": "_age",
          "type": "uint256"
        },
        {
          "internalType": "string",
          "name": "_city",
          "type": "string"
        }
      ],
      "name": "addLandInspector",
      "outputs": [
        {
          "internalType": "bool",
          "name": "",
          "type": "bool"
        }
      ],
      "stateMutability": "nonpayable",
      "type": "function"
    },
    {
      "inputs": [
        {
          "internalType": "address",
          "name": "",
          "type": "address"
        }
      ],
      "name": "addressToInspector",
      "outputs": [
        {
          "internalType": "uint256",
          "name": "id",
          "type": "uint256"
        },
        {
          "internalType": "address",
          "name": "_inspectorAddress",
          "type": "address"
        },
        {
          "internalType": "string",
          "name": "name",
          "type": "string"
        },
        {
          "internalType": "uint256",
          "name": "age",
          "type": "uint256"
        },
        {
          "internalType": "string",
          "name": "city",
          "type": "string"
        }
      ],
      "stateMutability": "view",
      "type": "function"
    },
    {
      "inputs": [
        {
          "internalType": "address",
          "name": "",
          "type": "address"
        }
      ],
      "name": "addressToUser",
      "outputs": [
        {
          "internalType": "string",
          "name": "name",
          "type": "string"
        },
        {
          "internalType": "string",
          "name": "email",
          "type": "string"
        },
        {
          "internalType": "address",
          "name": "id",
          "type": "address"
        },
        {
          "internalType": "uint256",
          "name": "age",
          "type": "uint256"
        },
        {
          "internalType": "string",
          "name": "city",
          "type": "string"
        },
        {
          "internalType": "string",
          "name": "document",
          "type": "string"
        },
        {
          "internalType": "string",
          "name": "aadharCard",
          "type": "string"
        },
        {
          "internalType": "string",
          "name": "panCard",
          "type": "string"
        },
        {
          "internalType": "bool",
          "name": "isVerified",
          "type": "bool"
        }
      ],
      "stateMutability": "view",
      "type": "function"
    },
    {
      "inputs": [],
      "name": "allTransferRequestList",
      "outputs": [
        {
          "internalType": "uint256[]",
          "name": "",
          "type": "uint256[]"
        }
      ],
      "stateMutability": "view",
      "type": "function"
    },
    {
      "inputs": [],
      "name": "buyRequestCount",
      "outputs": [
        {
          "internalType": "uint256",
          "name": "",
          "type": "uint256"
        }
      ],
      "stateMutability": "view",
      "type": "function"
    },
    {
      "inputs": [
        {
          "internalType": "uint256",
          "name": "id",
          "type": "uint256"
        }
      ],
      "name": "buyRequestStatus",
      "outputs": [
        {
          "internalType": "bool",
          "name": "",
          "type": "bool"
        }
      ],
      "stateMutability": "view",
      "type": "function"
    },
    {
      "inputs": [
        {
          "internalType": "address",
          "name": "_address",
          "type": "address"
        }
      ],
      "name": "changeContractOwner",
      "outputs": [],
      "stateMutability": "nonpayable",
      "type": "function"
    },
    {
      "inputs": [
        {
          "internalType": "address",
          "name": "_address",
          "type": "address"
        }
      ],
      "name": "isContractOwner",
      "outputs": [
        {
          "internalType": "bool",
          "name": "",
          "type": "bool"
        }
      ],
      "stateMutability": "view",
      "type": "function"
    },
    {
      "inputs": [
        {
          "internalType": "address",
          "name": "_id",
          "type": "address"
        }
      ],
      "name": "isLandInspector",
      "outputs": [
        {
          "internalType": "bool",
          "name": "",
          "type": "bool"
        }
      ],
      "stateMutability": "view",
      "type": "function"
    },
    {
      "inputs": [
        {
          "internalType": "uint256",
          "name": "id",
          "type": "uint256"
        }
      ],
      "name": "isLandVerified",
      "outputs": [
        {
          "internalType": "bool",
          "name": "",
          "type": "bool"
        }
      ],
      "stateMutability": "view",
      "type": "function"
    },
    {
      "inputs": [
        {
          "internalType": "address",
          "name": "_addr",
          "type": "address"
        }
      ],
      "name": "isUserRegistered",
      "outputs": [
        {
          "internalType": "bool",
          "name": "",
          "type": "bool"
        }
      ],
      "stateMutability": "view",
      "type": "function"
    },
    {
      "inputs": [
        {
          "internalType": "address",
          "name": "id",
          "type": "address"
        }
      ],
      "name": "isUserVerified",
      "outputs": [
        {
          "internalType": "bool",
          "name": "",
          "type": "bool"
        }
      ],
      "stateMutability": "view",
      "type": "function"
    },
    {
      "inputs": [
        {
          "internalType": "uint256",
          "name": "",
          "type": "uint256"
        }
      ],
      "name": "lands",
      "outputs": [
        {
          "internalType": "uint256",
          "name": "id",
          "type": "uint256"
        },
        {
          "internalType": "address",
          "name": "landOwner",
          "type": "address"
        },
        {
          "internalType": "uint256",
          "name": "landArea",
          "type": "uint256"
        },
        {
          "internalType": "string",
          "name": "landAddress",
          "type": "string"
        },
        {
          "internalType": "string",
          "name": "surveyNumber",
          "type": "string"
        },
        {
          "internalType": "string",
          "name": "landDocument",
          "type": "string"
        },
        {
          "internalType": "bool",
          "name": "isLandVerified",
          "type": "bool"
        },
        {
          "internalType": "bool",
          "name": "isForSell",
          "type": "bool"
        }
      ],
      "stateMutability": "view",
      "type": "function"
    },
    {
      "inputs": [
        {
          "internalType": "uint256",
          "name": "id",
          "type": "uint256"
        }
      ],
      "name": "makeItNotforSell",
      "outputs": [],
      "stateMutability": "nonpayable",
      "type": "function"
    },
    {
      "inputs": [
        {
          "internalType": "uint256",
          "name": "id",
          "type": "uint256"
        }
      ],
      "name": "makeItforSell",
      "outputs": [],
      "stateMutability": "nonpayable",
      "type": "function"
    },
    {
      "inputs": [
        {
          "internalType": "address",
          "name": "id",
          "type": "address"
        }
      ],
      "name": "myAllLands",
      "outputs": [
        {
          "internalType": "uint256[]",
          "name": "",
          "type": "uint256[]"
        }
      ],
      "stateMutability": "view",
      "type": "function"
    },
    {
      "inputs": [],
      "name": "myReceivedLandRequests",
      "outputs": [
        {
          "internalType": "uint256[]",
          "name": "",
          "type": "uint256[]"
        }
      ],
      "stateMutability": "view",
      "type": "function"
    },
    {
      "inputs": [],
      "name": "mySentLandRequests",
      "outputs": [
        {
          "internalType": "uint256[]",
          "name": "",
          "type": "uint256[]"
        }
      ],
      "stateMutability": "view",
      "type": "function"
    },
    {
      "inputs": [
        {
          "internalType": "string",
          "name": "_name",
          "type": "string"
        },
        {
          "internalType": "string",
          "name": "_email",
          "type": "string"
        },
        {
          "internalType": "uint256",
          "name": "_age",
          "type": "uint256"
        },
        {
          "internalType": "string",
          "name": "_city",
          "type": "string"
        },
        {
          "internalType": "string",
          "name": "_aadharNumber",
          "type": "string"
        },
        {
          "internalType": "string",
          "name": "_panNumber",
          "type": "string"
        },
        {
          "internalType": "string",
          "name": "_document",
          "type": "string"
        }
      ],
      "name": "registerNewUser",
      "outputs": [],
      "stateMutability": "nonpayable",
      "type": "function"
    },
    {
      "inputs": [
        {
          "internalType": "uint256",
          "name": "_requestId",
          "type": "uint256"
        }
      ],
      "name": "rejectRequest",
      "outputs": [],
      "stateMutability": "nonpayable",
      "type": "function"
    },
    {
      "inputs": [
        {
          "internalType": "address",
          "name": "_adrs",
          "type": "address"
        }
      ],
      "name": "removeLandInspector",
      "outputs": [],
      "stateMutability": "nonpayable",
      "type": "function"
    },
    {
      "inputs": [
        {
          "internalType": "uint256",
          "name": "_landId",
          "type": "uint256"
        }
      ],
      "name": "requestforBuy",
      "outputs": [],
      "stateMutability": "nonpayable",
      "type": "function"
    },
    {
      "inputs": [],
      "name": "returnAllLandInspectors",
      "outputs": [
        {
          "internalType": "address[]",
          "name": "",
          "type": "address[]"
        }
      ],
      "stateMutability": "view",
      "type": "function"
    },
    {
      "inputs": [],
      "name": "returnAllLandInspectorsDetails",
      "outputs": [
        {
          "components": [
            {
              "internalType": "uint256",
              "name": "id",
              "type": "uint256"
            },
            {
              "internalType": "address",
              "name": "_inspectorAddress",
              "type": "address"
            },
            {
              "internalType": "string",
              "name": "name",
              "type": "string"
            },
            {
              "internalType": "uint256",
              "name": "age",
              "type": "uint256"
            },
            {
              "internalType": "string",
              "name": "city",
              "type": "string"
            }
          ],
          "internalType": "struct LandRecords.landInspector[]",
          "name": "",
          "type": "tuple[]"
        }
      ],
      "stateMutability": "view",
      "type": "function"
    },
    {
      "inputs": [
        {
          "internalType": "uint256",
          "name": "_requestId",
          "type": "uint256"
        },
        {
          "internalType": "string",
          "name": "documentUrl",
          "type": "string"
        }
      ],
      "name": "transferOwnership",
      "outputs": [
        {
          "internalType": "bool",
          "name": "",
          "type": "bool"
        }
      ],
      "stateMutability": "nonpayable",
      "type": "function"
    },
    {
      "inputs": [],
      "name": "transferRequestCount",
      "outputs": [
        {
          "internalType": "uint256",
          "name": "",
          "type": "uint256"
        }
      ],
      "stateMutability": "view",
      "type": "function"
    },
    {
      "inputs": [
        {
          "internalType": "uint256",
          "name": "id",
          "type": "uint256"
        }
      ],
      "name": "transferRequestStatus",
      "outputs": [
        {
          "internalType": "bool",
          "name": "",
          "type": "bool"
        }
      ],
      "stateMutability": "view",
      "type": "function"
    },
    {
      "inputs": [],
      "name": "userCount",
      "outputs": [
        {
          "internalType": "uint256",
          "name": "",
          "type": "uint256"
        }
      ],
      "stateMutability": "view",
      "type": "function"
    },
    {
      "inputs": [
        {
          "internalType": "uint256",
          "name": "_id",
          "type": "uint256"
        }
      ],
      "name": "verifyLand",
      "outputs": [],
      "stateMutability": "nonpayable",
      "type": "function"
    },
    {
      "inputs": [
        {
          "internalType": "address",
          "name": "_userId",
          "type": "address"
        }
      ],
      "name": "verifyUser",
      "outputs": [],
      "stateMutability": "nonpayable",
      "type": "function"
    }
  ],
  "bytecode": "0x608060405234801561001057600080fd5b50600080546001600160a01b03191633179055612ee6806100326000396000f3fe608060405234801561001057600080fd5b506004361061023d5760003560e01c806394cffc5c1161013b578063d3b368c0116100b8578063e165af871161007c578063e165af8714610553578063e261f1e514610566578063edf538861461058d578063f9c43bdf146105b5578063fa024549146105c857600080fd5b8063d3b368c0146104bd578063d909ecd8146104d0578063de117688146104d8578063de26e7c9146104eb578063e0bf54391461053357600080fd5b8063ace417e0116100ff578063ace417e014610458578063c26e11eb14610487578063c4f291f91461049a578063d196ebf2146104a2578063d2d50eab146104b557600080fd5b806394cffc5c146103fc5780639c32e3b41461040f578063a18cb9e214610417578063a43ec8621461042c578063a519e9101461043457600080fd5b8063499701b2116101c95780636cbf6cf81161018d5780636cbf6cf81461035b5780636d52fdd0146103815780637517e00f146103d9578063780e11f8146103ec57806393a44f88146103f457600080fd5b8063499701b2146103055780634ba1f0981461030d5780634d104352146103205780634d81312014610333578063553a998d1461034657600080fd5b80632653dbda116102105780632653dbda146102a45780632d7788db146102b957806337a1b941146102cc5780633ead67b5146102df5780634056a798146102f257600080fd5b806307973ccf14610242578063163f75221461025957806317b73d041461027c57806323393d771461028f575b600080fd5b6002545b6040519081526020015b60405180910390f35b61026c610267366004612679565b6105db565b6040519015158152602001610250565b61026c61028a36600461273e565b610611565b610297610780565b60405161025091906127bc565b6102b76102b2366004612800565b610800565b005b6102b76102c7366004612900565b610a09565b61026c6102da366004612900565b610a53565b6102b76102ed366004612679565b610a8c565b61026c610300366004612900565b610b0d565b610297610b3f565b6102b761031b366004612900565b610b9e565b6102b761032e366004612919565b610d0c565b6102b7610341366004612679565b610ec2565b61034e610efb565b6040516102509190612992565b61026c610369366004612900565b6000908152600e602052604090206006015460ff1690565b6103c961038f366004612900565b600f6020526000908152604090208054600182015460029092015490916001600160a01b039081169190811690600160a01b900460ff1684565b60405161025094939291906129e9565b6102b76103e7366004612679565b610f84565b61034e6111e7565b600354610246565b6102b761040a366004612900565b61125d565b61029761129f565b61041f6112fe565b6040516102509190612a81565b600154610246565b610447610442366004612679565b611590565b604051610250959493929190612b33565b61026c610466366004612679565b6001600160a01b031660009081526009602052604090206008015460ff1690565b6102b7610495366004612900565b6116d9565b600454610246565b6102976104b0366004612679565b61171f565b600554610246565b6102b76104cb366004612900565b61178b565b6102976118f0565b61026c6104e6366004612679565b61196e565b6103c96104f9366004612900565b60106020526000908152604090208054600182015460029092015490916001600160a01b039081169190811690600160a01b900460ff1684565b610546610541366004612679565b61198d565b6040516102509190612b81565b61026c610561366004612679565b611dae565b610579610574366004612900565b611dd7565b604051610250989796959493929190612c7b565b6105a061059b366004612679565b611fc2565b60405161025099989796959493929190612cf2565b6102b76105c3366004612900565b612349565b61026c6105d6366004612d9a565b612379565b6001600160a01b0381166000908152600c602052604081205460ff161561060457506001919050565b506000919050565b919050565b600080546001600160a01b0316331461062c57506000610778565b6000546001600160a01b0316331461064357600080fd5b6001600160a01b03851660008181526008602090815260408220805460ff191660019081179091556007909152600080516020612e91833981519152805480830182559083527fb2401e68d452ad3af4aed95d6e19d1a690ed00a9a5bee1b2b0a83b6028446a4f0180546001600160a01b031916909317909255815491906106ca83612df7565b90915550506040805160a0810182526001805482526001600160a01b0388811660208085018281528587018b8152606087018b9052608087018a90526000938452600683529690922085518155915193820180546001600160a01b03191694909316939093179091559251805192939261074a92600285019201906125c9565b5060608201516003820155608082015180516107709160048401916020909101906125c9565b506001925050505b949350505050565b6001600052601360209081527f4155c2f711f2cdd34f8262ab8fb9b7020a700fe7b6948222152f7670d1fdf34d80546040805182850281018501909152818152606093909291908301828280156107f657602002820191906000526020600020905b8154815260200190600101908083116107e2575b5050505050905090565b336000908152600c602052604090205460ff161561081d57600080fd5b336000908152600c60205260408120805460ff19166001179055600280549161084583612df7565b90915550507f72c6bfb7988af3a1efa6568f02a999bc52252641c659d85961ca3d372b57d5cf8054600181019091557ffc2858506235d5502cafdfae2dcc7804b97258f4d77357c39b0f2a32aa2e6a50018054336001600160a01b031991821681179092556002546000908152600a60209081526040808320805490941685179093558251610120810184528b81528082018b9052808401859052606081018a90526080810189905260a0810186905260c0810188905260e0810187905261010081018390529382526009815291902082518051919261092a928492909101906125c9565b50602082810151805161094392600185019201906125c9565b5060408201516002820180546001600160a01b0319166001600160a01b03909216919091179055606082015160038201556080820151805161098f9160048401916020909101906125c9565b5060a082015180516109ab9160058401916020909101906125c9565b5060c082015180516109c79160068401916020909101906125c9565b5060e082015180516109e39160078401916020909101906125c9565b5061010091909101516008909101805460ff191691151591909117905550505050505050565b6000818152601060205260409020600201546001600160a01b03163314610a2f57600080fd5b6000908152601060205260409020600201805460ff60a01b1916600160a11b179055565b600060016000838152600f60205260409020600290810154600160a01b900460ff1690811115610a8557610a856129d3565b1492915050565b6000546001600160a01b03163314610aeb5760405162461bcd60e51b815260206004820152601960248201527f796f7520617265206e6f7420636f6e74726163744f776e65720000000000000060448201526064015b60405180910390fd5b600080546001600160a01b0319166001600160a01b0392909216919091179055565b600060016000838152601060205260409020600290810154600160a01b900460ff1690811115610a8557610a856129d3565b336000908152601160209081526040918290208054835181840281018401909452808452606093928301828280156107f657602002820191906000526020600020908154815260200190600101908083116107e2575050505050905090565b6000818152601060205260409020600201546001600160a01b03163314610bc457600080fd5b6000818152601060205260408120600201805460ff60a01b1916600160a01b1790556005805491610bf483612df7565b90915550506040805160808101825260008381526010602090815283822080548452338285019081526001918201546001600160a01b03908116868801908152606087018681526005548752600f9095529690942085518155905191810180549285166001600160a01b03199384161790559451600280870180549290951692821683178555925194959493926001600160a81b031990911690911790600160a01b908490811115610ca857610ca86129d3565b021790555050601460205250506005547fb6c61a840592cc84133e4b25bd509abf4659307c57b160799b38490a5aa48f2c80546001810182556000919091527f2fdc54bebe143af21bc9f7874666206c3383b1c51a1a7063fa557c077952093e0155565b3360009081526009602052604090206008015460ff16610d2b57600080fd5b60038054906000610d3b83612df7565b90915550506040805161010081018252600380548083523360208085019182528486018a8152606086018a8152608087018a905260a08701899052600060c0880181905260e08801819052948552600e8352969093208551815591516001830180546001600160a01b0319166001600160a01b039092169190911790559151600282015593518051939493610dd79385019291909101906125c9565b5060808201518051610df39160048401916020909101906125c9565b5060a08201518051610e0f9160058401916020909101906125c9565b5060c08201516006909101805460e09093015115156101000261ff00199215159290921661ffff19909316929092171790555050336000908152600d602090815260408220600380548254600181810185559386528486200155601390925290547f4155c2f711f2cdd34f8262ab8fb9b7020a700fe7b6948222152f7670d1fdf34d805492830181559092527f3ce2cb385edcbf7185fd469186dd769993781141b215a1a4715ebb7f94fd59ab01555050565b610ecb33611dae565b610ed457600080fd5b6001600160a01b03166000908152600960205260409020600801805460ff19166001179055565b6001600052600b60209081527f72c6bfb7988af3a1efa6568f02a999bc52252641c659d85961ca3d372b57d5cf80546040805182850281018501909152818152606093909291908301828280156107f657602002820191906000526020600020905b81546001600160a01b03168152600190910190602001808311610f5d575050505050905090565b6000546001600160a01b03163314610fde5760405162461bcd60e51b815260206004820152601960248201527f596f7520617265206e6f7420636f6e74726163744f776e6572000000000000006044820152606401610ae2565b6001600160a01b03811660009081526008602052604090205460ff166110465760405162461bcd60e51b815260206004820152601860248201527f4c616e6420496e73706563746f72206e6f7420666f756e6400000000000000006044820152606401610ae2565b6001600160a01b03811660009081526008602090815260408220805460ff191690556001825260079052600080516020612e9183398151915254905b818110156111e25760016000526007602052600080516020612e9183398151915280546001600160a01b0385169190839081106110c1576110c1612e12565b6000918252602090912001546001600160a01b031614156111d057600160008190526007602052600080516020612e91833981519152906111029084612e28565b8154811061111257611112612e12565b6000918252602080832090910154600190925260079052600080516020612e9183398151915280546001600160a01b03909216918390811061115657611156612e12565b600091825260208083209190910180546001600160a01b0319166001600160a01b0394909416939093179092556001905260079052600080516020612e918339815191528054806111a9576111a9612e3f565b600082815260209020810160001990810180546001600160a01b0319169055019055505050565b806111da81612df7565b915050611082565b505050565b600160005260076020908152600080516020612e9183398151915280546040805182850281018501909152818152606093909291908301828280156107f6576020028201919060005260206000209081546001600160a01b03168152600190910190602001808311610f5d575050505050905090565b6000818152600e60205260409020600101546001600160a01b0316331461128357600080fd5b6000908152600e60205260409020600601805461ff0019169055565b336000908152601260209081526040918290208054835181840281018401909452808452606093928301828280156107f657602002820191906000526020600020908154815260200190600101908083116107e2575050505050905090565b600160009081526007602052600080516020612e91833981519152546060918167ffffffffffffffff8111156113365761133661269b565b6040519080825280602002602001820160405280156113a257816020015b61138f6040518060a001604052806000815260200160006001600160a01b031681526020016060815260200160008152602001606081525090565b8152602001906001900390816113545790505b50905060005b8281101561158957600160009081526007602052600080516020612e9183398151915280546006929190849081106113e2576113e2612e12565b60009182526020808320909101546001600160a01b039081168452838201949094526040928301909120825160a08101845281548152600182015490941691840191909152600281018054919284019161143b90612e55565b80601f016020809104026020016040519081016040528092919081815260200182805461146790612e55565b80156114b45780601f10611489576101008083540402835291602001916114b4565b820191906000526020600020905b81548152906001019060200180831161149757829003601f168201915b50505050508152602001600382015481526020016004820180546114d790612e55565b80601f016020809104026020016040519081016040528092919081815260200182805461150390612e55565b80156115505780601f1061152557610100808354040283529160200191611550565b820191906000526020600020905b81548152906001019060200180831161153357829003601f168201915b50505050508152505082828151811061156b5761156b612e12565b6020026020010181905250808061158190612df7565b9150506113a8565b5092915050565b60066020526000908152604090208054600182015460028301805492936001600160a01b03909216926115c290612e55565b80601f01602080910402602001604051908101604052809291908181526020018280546115ee90612e55565b801561163b5780601f106116105761010080835404028352916020019161163b565b820191906000526020600020905b81548152906001019060200180831161161e57829003601f168201915b50505050509080600301549080600401805461165690612e55565b80601f016020809104026020016040519081016040528092919081815260200182805461168290612e55565b80156116cf5780601f106116a4576101008083540402835291602001916116cf565b820191906000526020600020905b8154815290600101906020018083116116b257829003601f168201915b5050505050905085565b6000818152600e60205260409020600101546001600160a01b031633146116ff57600080fd5b6000908152600e60205260409020600601805461ff001916610100179055565b6001600160a01b0381166000908152600d602090815260409182902080548351818402810184019094528084526060939283018282801561177f57602002820191906000526020600020905b81548152602001906001019080831161176b575b50505050509050919050565b3360009081526009602052604090206008015460ff1680156117be57506000818152600e602052604090206006015460ff165b6117c757600080fd5b600480549060006117d783612df7565b9091555050604080516080810182526004548082523360208084019182526000868152600e82528581206001908101546001600160a01b039081168789019081526060880184815296845260109094529690912085518155925190830180549187166001600160a01b03199283161790559051600280840180549290971692821683178755935194959294936001600160a81b031990911690911790600160a01b90849081111561188a5761188a6129d3565b021790555050506000908152600e602090815260408083206001908101546001600160a01b031684526011835281842060048054825480850184559287528587209092019190915533855260128452918420915482549182018355918452919092200155565b6001600052601460209081527fb6c61a840592cc84133e4b25bd509abf4659307c57b160799b38490a5aa48f2c80546040805182850281018501909152818152606093909291908301828280156107f657602002820191906000526020600020908154815260200190600101908083116107e2575050505050905090565b600080546001600160a01b038381169116141561060457506001919050565b6119e7604051806101200160405280606081526020016060815260200160006001600160a01b0316815260200160008152602001606081526020016060815260200160608152602001606081526020016000151581525090565b6001600160a01b0382166000908152600960205260409081902081516101208101909252805482908290611a1a90612e55565b80601f0160208091040260200160405190810160405280929190818152602001828054611a4690612e55565b8015611a935780601f10611a6857610100808354040283529160200191611a93565b820191906000526020600020905b815481529060010190602001808311611a7657829003601f168201915b50505050508152602001600182018054611aac90612e55565b80601f0160208091040260200160405190810160405280929190818152602001828054611ad890612e55565b8015611b255780601f10611afa57610100808354040283529160200191611b25565b820191906000526020600020905b815481529060010190602001808311611b0857829003601f168201915b505050918352505060028201546001600160a01b0316602082015260038201546040820152600482018054606090920191611b5f90612e55565b80601f0160208091040260200160405190810160405280929190818152602001828054611b8b90612e55565b8015611bd85780601f10611bad57610100808354040283529160200191611bd8565b820191906000526020600020905b815481529060010190602001808311611bbb57829003601f168201915b50505050508152602001600582018054611bf190612e55565b80601f0160208091040260200160405190810160405280929190818152602001828054611c1d90612e55565b8015611c6a5780601f10611c3f57610100808354040283529160200191611c6a565b820191906000526020600020905b815481529060010190602001808311611c4d57829003601f168201915b50505050508152602001600682018054611c8390612e55565b80601f0160208091040260200160405190810160405280929190818152602001828054611caf90612e55565b8015611cfc5780601f10611cd157610100808354040283529160200191611cfc565b820191906000526020600020905b815481529060010190602001808311611cdf57829003601f168201915b50505050508152602001600782018054611d1590612e55565b80601f0160208091040260200160405190810160405280929190818152602001828054611d4190612e55565b8015611d8e5780601f10611d6357610100808354040283529160200191611d8e565b820191906000526020600020905b815481529060010190602001808311611d7157829003601f168201915b50505091835250506008919091015460ff16151560209091015292915050565b6001600160a01b03811660009081526008602052604081205460ff161561060457506001919050565b600e60205260009081526040902080546001820154600283015460038401805493946001600160a01b0390931693919291611e1190612e55565b80601f0160208091040260200160405190810160405280929190818152602001828054611e3d90612e55565b8015611e8a5780601f10611e5f57610100808354040283529160200191611e8a565b820191906000526020600020905b815481529060010190602001808311611e6d57829003601f168201915b505050505090806004018054611e9f90612e55565b80601f0160208091040260200160405190810160405280929190818152602001828054611ecb90612e55565b8015611f185780601f10611eed57610100808354040283529160200191611f18565b820191906000526020600020905b815481529060010190602001808311611efb57829003601f168201915b505050505090806005018054611f2d90612e55565b80601f0160208091040260200160405190810160405280929190818152602001828054611f5990612e55565b8015611fa65780601f10611f7b57610100808354040283529160200191611fa6565b820191906000526020600020905b815481529060010190602001808311611f8957829003601f168201915b5050506006909301549192505060ff8082169161010090041688565b600960205260009081526040902080548190611fdd90612e55565b80601f016020809104026020016040519081016040528092919081815260200182805461200990612e55565b80156120565780601f1061202b57610100808354040283529160200191612056565b820191906000526020600020905b81548152906001019060200180831161203957829003601f168201915b50505050509080600101805461206b90612e55565b80601f016020809104026020016040519081016040528092919081815260200182805461209790612e55565b80156120e45780601f106120b9576101008083540402835291602001916120e4565b820191906000526020600020905b8154815290600101906020018083116120c757829003601f168201915b505050506002830154600384015460048501805494956001600160a01b03909316949193509061211390612e55565b80601f016020809104026020016040519081016040528092919081815260200182805461213f90612e55565b801561218c5780601f106121615761010080835404028352916020019161218c565b820191906000526020600020905b81548152906001019060200180831161216f57829003601f168201915b5050505050908060050180546121a190612e55565b80601f01602080910402602001604051908101604052809291908181526020018280546121cd90612e55565b801561221a5780601f106121ef5761010080835404028352916020019161221a565b820191906000526020600020905b8154815290600101906020018083116121fd57829003601f168201915b50505050509080600601805461222f90612e55565b80601f016020809104026020016040519081016040528092919081815260200182805461225b90612e55565b80156122a85780601f1061227d576101008083540402835291602001916122a8565b820191906000526020600020905b81548152906001019060200180831161228b57829003601f168201915b5050505050908060070180546122bd90612e55565b80601f01602080910402602001604051908101604052809291908181526020018280546122e990612e55565b80156123365780601f1061230b57610100808354040283529160200191612336565b820191906000526020600020905b81548152906001019060200180831161231957829003601f168201915b5050506008909301549192505060ff1689565b61235233611dae565b61235b57600080fd5b6000908152600e60205260409020600601805460ff19166001179055565b600061238433611dae565b61238d57600080fd5b6000838152600f60209081526040808320600281018054600160a01b60ff60a01b198216179091556001600160a01b039081168552600d84528285208254815460018181018455928852958720909501949094559201549091168252812054905b8181101561253a576000858152600f6020908152604080832080546001909101546001600160a01b03168452600d90925290912080548390811061243457612434612e12565b90600052602060002001541415612528576000858152600f602090815260408083206001908101546001600160a01b03168452600d9092529091209061247a9084612e28565b8154811061248a5761248a612e12565b6000918252602080832090910154878352600f82526040808420600101546001600160a01b03168452600d90925291208054839081106124cc576124cc612e12565b6000918252602080832090910192909255868152600f82526040808220600101546001600160a01b03168252600d9092522080548061250d5761250d612e3f565b6001900381819060005260206000200160009055905561253a565b8061253281612df7565b9150506123ee565b506000848152600f60209081526040808320548352600e8252909120845161256a926005909201918601906125c9565b505050600091825250600f6020908152604080832080548452600e909252808320600601805461ff0019169055600282015491548352909120600190810180546001600160a01b0319166001600160a01b039093169290921790915590565b8280546125d590612e55565b90600052602060002090601f0160209004810192826125f7576000855561263d565b82601f1061261057805160ff191683800117855561263d565b8280016001018555821561263d579182015b8281111561263d578251825591602001919060010190612622565b5061264992915061264d565b5090565b5b80821115612649576000815560010161264e565b80356001600160a01b038116811461060c57600080fd5b60006020828403121561268b57600080fd5b61269482612662565b9392505050565b634e487b7160e01b600052604160045260246000fd5b600082601f8301126126c257600080fd5b813567ffffffffffffffff808211156126dd576126dd61269b565b604051601f8301601f19908116603f011681019082821181831017156127055761270561269b565b8160405283815286602085880101111561271e57600080fd5b836020870160208301376000602085830101528094505050505092915050565b6000806000806080858703121561275457600080fd5b61275d85612662565b9350602085013567ffffffffffffffff8082111561277a57600080fd5b612786888389016126b1565b94506040870135935060608701359150808211156127a357600080fd5b506127b0878288016126b1565b91505092959194509250565b6020808252825182820181905260009190848201906040850190845b818110156127f4578351835292840192918401916001016127d8565b50909695505050505050565b600080600080600080600060e0888a03121561281b57600080fd5b873567ffffffffffffffff8082111561283357600080fd5b61283f8b838c016126b1565b985060208a013591508082111561285557600080fd5b6128618b838c016126b1565b975060408a0135965060608a013591508082111561287e57600080fd5b61288a8b838c016126b1565b955060808a01359150808211156128a057600080fd5b6128ac8b838c016126b1565b945060a08a01359150808211156128c257600080fd5b6128ce8b838c016126b1565b935060c08a01359150808211156128e457600080fd5b506128f18a828b016126b1565b91505092959891949750929550565b60006020828403121561291257600080fd5b5035919050565b6000806000806080858703121561292f57600080fd5b84359350602085013567ffffffffffffffff8082111561294e57600080fd5b61295a888389016126b1565b9450604087013591508082111561297057600080fd5b61297c888389016126b1565b935060608701359150808211156127a357600080fd5b6020808252825182820181905260009190848201906040850190845b818110156127f45783516001600160a01b0316835292840192918401916001016129ae565b634e487b7160e01b600052602160045260246000fd5b8481526001600160a01b038481166020830152831660408201526080810160038310612a2557634e487b7160e01b600052602160045260246000fd5b82606083015295945050505050565b6000815180845260005b81811015612a5a57602081850181015186830182015201612a3e565b81811115612a6c576000602083870101525b50601f01601f19169290920160200192915050565b60006020808301818452808551808352604092508286019150828160051b87010184880160005b83811015612b2557888303603f19018552815180518452878101516001600160a01b0316888501528681015160a088860181905290612ae982870182612a34565b915050606080830151818701525060808083015192508582038187015250612b118183612a34565b968901969450505090860190600101612aa8565b509098975050505050505050565b8581526001600160a01b038516602082015260a060408201819052600090612b5d90830186612a34565b8460608401528281036080840152612b758185612a34565b98975050505050505050565b6020815260008251610120806020850152612ba0610140850183612a34565b91506020850151601f1980868503016040870152612bbe8483612a34565b935060408701519150612bdc60608701836001600160a01b03169052565b6060870151608087015260808701519150808685030160a0870152612c018483612a34565b935060a08701519150808685030160c0870152612c1e8483612a34565b935060c08701519150808685030160e0870152612c3b8483612a34565b935060e08701519150610100818786030181880152612c5a8584612a34565b94508088015192505050612c718286018215159052565b5090949350505050565b8881526001600160a01b03881660208201526040810187905261010060608201819052600090612cad83820189612a34565b90508281036080840152612cc18188612a34565b905082810360a0840152612cd58187612a34565b94151560c0840152505090151560e0909101529695505050505050565b6000610120808352612d068184018d612a34565b90508281036020840152612d1a818c612a34565b6001600160a01b038b166040850152606084018a905283810360808501529050612d448189612a34565b905082810360a0840152612d588188612a34565b905082810360c0840152612d6c8187612a34565b905082810360e0840152612d808186612a34565b9150508215156101008301529a9950505050505050505050565b60008060408385031215612dad57600080fd5b82359150602083013567ffffffffffffffff811115612dcb57600080fd5b612dd7858286016126b1565b9150509250929050565b634e487b7160e01b600052601160045260246000fd5b6000600019821415612e0b57612e0b612de1565b5060010190565b634e487b7160e01b600052603260045260246000fd5b600082821015612e3a57612e3a612de1565b500390565b634e487b7160e01b600052603160045260246000fd5b600181811c90821680612e6957607f821691505b60208210811415612e8a57634e487b7160e01b600052602260045260246000fd5b5091905056feb39221ace053465ec3453ce2b36430bd138b997ecea25c1043da0c366812b828a26469706673582212200358f4c31c952e16e6cba31f2384536354c51d434002d2da341b4576047a2cfc64736f6c63430008090033",
  "linkReferences": {},
  "deployedLinkReferences": {}
}