{
  "_format": "hh-sol-artifact-1",
  "contractName": "LandRecords",
  "sourceName": "contracts/LandRecords.sol",
  "abi": [
    {
      "inputs": [],
      "stateMutability": "nonpayable",
      "type": "constructor"
    },
    {
      "inputs": [
        {
          "internalType": "string",
          "name": "city",
          "type": "string"
        }
      ],
      "name": "ReturnAllUserDetails",
      "outputs": [
        {
          "components": [
            {
              "internalType": "uint256",
              "name": "id",
              "type": "uint256"
            },
            {
              "internalType": "string",
              "name": "name",
              "type": "string"
            },
            {
              "internalType": "string",
              "name": "email",
              "type": "string"
            },
            {
              "internalType": "address",
              "name": "_userAddress",
              "type": "address"
            },
            {
              "internalType": "uint256",
              "name": "age",
              "type": "uint256"
            },
            {
              "internalType": "string",
              "name": "city",
              "type": "string"
            },
            {
              "internalType": "string",
              "name": "document",
              "type": "string"
            },
            {
              "internalType": "string",
              "name": "aadharCard",
              "type": "string"
            },
            {
              "internalType": "string",
              "name": "panCard",
              "type": "string"
            },
            {
              "internalType": "bool",
              "name": "isVerified",
              "type": "bool"
            }
          ],
          "internalType": "struct LandRecords.user[]",
          "name": "",
          "type": "tuple[]"
        }
      ],
      "stateMutability": "view",
      "type": "function"
    },
    {
      "inputs": [
        {
          "internalType": "address",
          "name": "id",
          "type": "address"
        }
      ],
      "name": "ReturnUser",
      "outputs": [
        {
          "components": [
            {
              "internalType": "uint256",
              "name": "id",
              "type": "uint256"
            },
            {
              "internalType": "string",
              "name": "name",
              "type": "string"
            },
            {
              "internalType": "string",
              "name": "email",
              "type": "string"
            },
            {
              "internalType": "address",
              "name": "_userAddress",
              "type": "address"
            },
            {
              "internalType": "uint256",
              "name": "age",
              "type": "uint256"
            },
            {
              "internalType": "string",
              "name": "city",
              "type": "string"
            },
            {
              "internalType": "string",
              "name": "document",
              "type": "string"
            },
            {
              "internalType": "string",
              "name": "aadharCard",
              "type": "string"
            },
            {
              "internalType": "string",
              "name": "panCard",
              "type": "string"
            },
            {
              "internalType": "bool",
              "name": "isVerified",
              "type": "bool"
            }
          ],
          "internalType": "struct LandRecords.user",
          "name": "",
          "type": "tuple"
        }
      ],
      "stateMutability": "view",
      "type": "function"
    },
    {
      "inputs": [
        {
          "internalType": "uint256",
          "name": "_requestId",
          "type": "uint256"
        }
      ],
      "name": "acceptRequest",
      "outputs": [],
      "stateMutability": "nonpayable",
      "type": "function"
    },
    {
      "inputs": [
        {
          "internalType": "uint256",
          "name": "_area",
          "type": "uint256"
        },
        {
          "internalType": "string",
          "name": "_address",
          "type": "string"
        },
        {
          "internalType": "uint256",
          "name": "_landPrice",
          "type": "uint256"
        },
        {
          "internalType": "string",
          "name": "_allLatitudeLongitude",
          "type": "string"
        },
        {
          "internalType": "uint256",
          "name": "_propertyPID",
          "type": "uint256"
        },
        {
          "internalType": "string",
          "name": "_surveyNum",
          "type": "string"
        },
        {
          "internalType": "string",
          "name": "_document",
          "type": "string"
        },
        {
          "internalType": "string",
          "name": "_picture",
          "type": "string"
        }
      ],
      "name": "addLand",
      "outputs": [],
      "stateMutability": "nonpayable",
      "type": "function"
    },
    {
      "inputs": [
        {
          "internalType": "address",
          "name": "_address",
          "type": "address"
        },
        {
          "internalType": "string",
          "name": "_name",
          "type": "string"
        },
        {
          "internalType": "uint256",
          "name": "_age",
          "type": "uint256"
        },
        {
          "internalType": "string",
          "name": "_designation",
          "type": "string"
        },
        {
          "internalType": "string",
          "name": "_city",
          "type": "string"
        }
      ],
      "name": "addLandInspector",
      "outputs": [
        {
          "internalType": "bool",
          "name": "",
          "type": "bool"
        }
      ],
      "stateMutability": "nonpayable",
      "type": "function"
    },
    {
      "inputs": [
        {
          "internalType": "address",
          "name": "",
          "type": "address"
        }
      ],
      "name": "addressToInspector",
      "outputs": [
        {
          "internalType": "uint256",
          "name": "id",
          "type": "uint256"
        },
        {
          "internalType": "address",
          "name": "_inspectorAddress",
          "type": "address"
        },
        {
          "internalType": "string",
          "name": "name",
          "type": "string"
        },
        {
          "internalType": "uint256",
          "name": "age",
          "type": "uint256"
        },
        {
          "internalType": "string",
          "name": "designation",
          "type": "string"
        },
        {
          "internalType": "string",
          "name": "city",
          "type": "string"
        }
      ],
      "stateMutability": "view",
      "type": "function"
    },
    {
      "inputs": [
        {
          "internalType": "address",
          "name": "",
          "type": "address"
        }
      ],
      "name": "addressToUser",
      "outputs": [
        {
          "internalType": "uint256",
          "name": "id",
          "type": "uint256"
        },
        {
          "internalType": "string",
          "name": "name",
          "type": "string"
        },
        {
          "internalType": "string",
          "name": "email",
          "type": "string"
        },
        {
          "internalType": "address",
          "name": "_userAddress",
          "type": "address"
        },
        {
          "internalType": "uint256",
          "name": "age",
          "type": "uint256"
        },
        {
          "internalType": "string",
          "name": "city",
          "type": "string"
        },
        {
          "internalType": "string",
          "name": "document",
          "type": "string"
        },
        {
          "internalType": "string",
          "name": "aadharCard",
          "type": "string"
        },
        {
          "internalType": "string",
          "name": "panCard",
          "type": "string"
        },
        {
          "internalType": "bool",
          "name": "isVerified",
          "type": "bool"
        }
      ],
      "stateMutability": "view",
      "type": "function"
    },
    {
      "inputs": [],
      "name": "allLandRequestsDetails",
      "outputs": [
        {
          "components": [
            {
              "internalType": "uint256",
              "name": "reqId",
              "type": "uint256"
            },
            {
              "internalType": "address payable",
              "name": "sellerId",
              "type": "address"
            },
            {
              "internalType": "address payable",
              "name": "buyerId",
              "type": "address"
            },
            {
              "internalType": "uint256",
              "name": "landId",
              "type": "uint256"
            },
            {
              "internalType": "enum LandRecords.reqStatus",
              "name": "requestStatus",
              "type": "uint8"
            },
            {
              "internalType": "bool",
              "name": "isPaymentDone",
              "type": "bool"
            }
          ],
          "internalType": "struct LandRecords.LandRequest[]",
          "name": "",
          "type": "tuple[]"
        }
      ],
      "stateMutability": "view",
      "type": "function"
    },
    {
      "inputs": [
        {
          "internalType": "address",
          "name": "_address",
          "type": "address"
        }
      ],
      "name": "changeContractOwner",
      "outputs": [],
      "stateMutability": "nonpayable",
      "type": "function"
    },
    {
      "inputs": [
        {
          "internalType": "address",
          "name": "_address",
          "type": "address"
        }
      ],
      "name": "isContractOwner",
      "outputs": [
        {
          "internalType": "bool",
          "name": "",
          "type": "bool"
        }
      ],
      "stateMutability": "view",
      "type": "function"
    },
    {
      "inputs": [
        {
          "internalType": "address",
          "name": "_id",
          "type": "address"
        }
      ],
      "name": "isLandInspector",
      "outputs": [
        {
          "internalType": "bool",
          "name": "",
          "type": "bool"
        }
      ],
      "stateMutability": "view",
      "type": "function"
    },
    {
      "inputs": [
        {
          "internalType": "uint256",
          "name": "id",
          "type": "uint256"
        }
      ],
      "name": "isLandVerified",
      "outputs": [
        {
          "internalType": "bool",
          "name": "",
          "type": "bool"
        }
      ],
      "stateMutability": "view",
      "type": "function"
    },
    {
      "inputs": [
        {
          "internalType": "address",
          "name": "_addr",
          "type": "address"
        }
      ],
      "name": "isUserRegistered",
      "outputs": [
        {
          "internalType": "bool",
          "name": "",
          "type": "bool"
        }
      ],
      "stateMutability": "view",
      "type": "function"
    },
    {
      "inputs": [
        {
          "internalType": "address",
          "name": "id",
          "type": "address"
        }
      ],
      "name": "isUserVerified",
      "outputs": [
        {
          "internalType": "bool",
          "name": "",
          "type": "bool"
        }
      ],
      "stateMutability": "view",
      "type": "function"
    },
    {
      "inputs": [
        {
          "internalType": "uint256",
          "name": "id",
          "type": "uint256"
        }
      ],
      "name": "landPrice",
      "outputs": [
        {
          "internalType": "uint256",
          "name": "",
          "type": "uint256"
        }
      ],
      "stateMutability": "view",
      "type": "function"
    },
    {
      "inputs": [
        {
          "internalType": "uint256",
          "name": "",
          "type": "uint256"
        }
      ],
      "name": "landRequest",
      "outputs": [
        {
          "internalType": "uint256",
          "name": "reqId",
          "type": "uint256"
        },
        {
          "internalType": "address payable",
          "name": "sellerId",
          "type": "address"
        },
        {
          "internalType": "address payable",
          "name": "buyerId",
          "type": "address"
        },
        {
          "internalType": "uint256",
          "name": "landId",
          "type": "uint256"
        },
        {
          "internalType": "enum LandRecords.reqStatus",
          "name": "requestStatus",
          "type": "uint8"
        },
        {
          "internalType": "bool",
          "name": "isPaymentDone",
          "type": "bool"
        }
      ],
      "stateMutability": "view",
      "type": "function"
    },
    {
      "inputs": [
        {
          "internalType": "uint256",
          "name": "",
          "type": "uint256"
        }
      ],
      "name": "lands",
      "outputs": [
        {
          "internalType": "uint256",
          "name": "id",
          "type": "uint256"
        },
        {
          "internalType": "uint256",
          "name": "landArea",
          "type": "uint256"
        },
        {
          "internalType": "string",
          "name": "landAddress",
          "type": "string"
        },
        {
          "internalType": "uint256",
          "name": "landPrice",
          "type": "uint256"
        },
        {
          "internalType": "string",
          "name": "allLatitudeLongitude",
          "type": "string"
        },
        {
          "internalType": "uint256",
          "name": "propertyPID",
          "type": "uint256"
        },
        {
          "internalType": "string",
          "name": "surveyNumber",
          "type": "string"
        },
        {
          "internalType": "string",
          "name": "landDocument",
          "type": "string"
        },
        {
          "internalType": "string",
          "name": "landPicture",
          "type": "string"
        },
        {
          "internalType": "bool",
          "name": "isForSell",
          "type": "bool"
        },
        {
          "internalType": "address payable",
          "name": "landOwner",
          "type": "address"
        },
        {
          "internalType": "bool",
          "name": "isLandVerified",
          "type": "bool"
        }
      ],
      "stateMutability": "view",
      "type": "function"
    },
    {
      "inputs": [
        {
          "internalType": "uint256",
          "name": "id",
          "type": "uint256"
        }
      ],
      "name": "makeItNotforSell",
      "outputs": [],
      "stateMutability": "nonpayable",
      "type": "function"
    },
    {
      "inputs": [
        {
          "internalType": "uint256",
          "name": "id",
          "type": "uint256"
        }
      ],
      "name": "makeItforSell",
      "outputs": [],
      "stateMutability": "nonpayable",
      "type": "function"
    },
    {
      "inputs": [
        {
          "internalType": "uint256",
          "name": "_requestId",
          "type": "uint256"
        }
      ],
      "name": "makePayment",
      "outputs": [],
      "stateMutability": "payable",
      "type": "function"
    },
    {
      "inputs": [
        {
          "internalType": "address payable",
          "name": "_receiver",
          "type": "address"
        }
      ],
      "name": "makePaymentTestFun",
      "outputs": [],
      "stateMutability": "payable",
      "type": "function"
    },
    {
      "inputs": [
        {
          "internalType": "address",
          "name": "id",
          "type": "address"
        }
      ],
      "name": "myAllLands",
      "outputs": [
        {
          "internalType": "uint256[]",
          "name": "",
          "type": "uint256[]"
        }
      ],
      "stateMutability": "view",
      "type": "function"
    },
    {
      "inputs": [
        {
          "internalType": "address",
          "name": "id",
          "type": "address"
        }
      ],
      "name": "myAllLandsDetails",
      "outputs": [
        {
          "components": [
            {
              "internalType": "uint256",
              "name": "id",
              "type": "uint256"
            },
            {
              "internalType": "uint256",
              "name": "landArea",
              "type": "uint256"
            },
            {
              "internalType": "string",
              "name": "landAddress",
              "type": "string"
            },
            {
              "internalType": "uint256",
              "name": "landPrice",
              "type": "uint256"
            },
            {
              "internalType": "string",
              "name": "allLatitudeLongitude",
              "type": "string"
            },
            {
              "internalType": "uint256",
              "name": "propertyPID",
              "type": "uint256"
            },
            {
              "internalType": "string",
              "name": "surveyNumber",
              "type": "string"
            },
            {
              "internalType": "string",
              "name": "landDocument",
              "type": "string"
            },
            {
              "internalType": "string",
              "name": "landPicture",
              "type": "string"
            },
            {
              "internalType": "bool",
              "name": "isForSell",
              "type": "bool"
            },
            {
              "internalType": "address payable",
              "name": "landOwner",
              "type": "address"
            },
            {
              "internalType": "bool",
              "name": "isLandVerified",
              "type": "bool"
            }
          ],
          "internalType": "struct LandRecords.Land[]",
          "name": "",
          "type": "tuple[]"
        }
      ],
      "stateMutability": "view",
      "type": "function"
    },
    {
      "inputs": [],
      "name": "myReceivedLandRequestsDetails",
      "outputs": [
        {
          "components": [
            {
              "internalType": "uint256",
              "name": "reqId",
              "type": "uint256"
            },
            {
              "internalType": "address payable",
              "name": "sellerId",
              "type": "address"
            },
            {
              "internalType": "address payable",
              "name": "buyerId",
              "type": "address"
            },
            {
              "internalType": "uint256",
              "name": "landId",
              "type": "uint256"
            },
            {
              "internalType": "enum LandRecords.reqStatus",
              "name": "requestStatus",
              "type": "uint8"
            },
            {
              "internalType": "bool",
              "name": "isPaymentDone",
              "type": "bool"
            }
          ],
          "internalType": "struct LandRecords.LandRequest[]",
          "name": "",
          "type": "tuple[]"
        }
      ],
      "stateMutability": "view",
      "type": "function"
    },
    {
      "inputs": [],
      "name": "mySentLandRequestsDetails",
      "outputs": [
        {
          "components": [
            {
              "internalType": "uint256",
              "name": "reqId",
              "type": "uint256"
            },
            {
              "internalType": "address payable",
              "name": "sellerId",
              "type": "address"
            },
            {
              "internalType": "address payable",
              "name": "buyerId",
              "type": "address"
            },
            {
              "internalType": "uint256",
              "name": "landId",
              "type": "uint256"
            },
            {
              "internalType": "enum LandRecords.reqStatus",
              "name": "requestStatus",
              "type": "uint8"
            },
            {
              "internalType": "bool",
              "name": "isPaymentDone",
              "type": "bool"
            }
          ],
          "internalType": "struct LandRecords.LandRequest[]",
          "name": "",
          "type": "tuple[]"
        }
      ],
      "stateMutability": "view",
      "type": "function"
    },
    {
      "inputs": [
        {
          "internalType": "string",
          "name": "_name",
          "type": "string"
        },
        {
          "internalType": "string",
          "name": "_email",
          "type": "string"
        },
        {
          "internalType": "uint256",
          "name": "_age",
          "type": "uint256"
        },
        {
          "internalType": "string",
          "name": "_city",
          "type": "string"
        },
        {
          "internalType": "string",
          "name": "_aadharNumber",
          "type": "string"
        },
        {
          "internalType": "string",
          "name": "_panNumber",
          "type": "string"
        },
        {
          "internalType": "string",
          "name": "_document",
          "type": "string"
        }
      ],
      "name": "registerNewUser",
      "outputs": [],
      "stateMutability": "nonpayable",
      "type": "function"
    },
    {
      "inputs": [
        {
          "internalType": "uint256",
          "name": "_requestId",
          "type": "uint256"
        }
      ],
      "name": "rejectRequest",
      "outputs": [],
      "stateMutability": "nonpayable",
      "type": "function"
    },
    {
      "inputs": [
        {
          "internalType": "address",
          "name": "_adrs",
          "type": "address"
        }
      ],
      "name": "removeLandInspector",
      "outputs": [],
      "stateMutability": "nonpayable",
      "type": "function"
    },
    {
      "inputs": [
        {
          "internalType": "uint256",
          "name": "id",
          "type": "uint256"
        }
      ],
      "name": "requestStatus",
      "outputs": [
        {
          "internalType": "enum LandRecords.reqStatus",
          "name": "",
          "type": "uint8"
        }
      ],
      "stateMutability": "view",
      "type": "function"
    },
    {
      "inputs": [
        {
          "internalType": "uint256",
          "name": "_landId",
          "type": "uint256"
        }
      ],
      "name": "requestforBuy",
      "outputs": [],
      "stateMutability": "nonpayable",
      "type": "function"
    },
    {
      "inputs": [],
      "name": "returnAllLandInspectorsDetails",
      "outputs": [
        {
          "components": [
            {
              "internalType": "uint256",
              "name": "id",
              "type": "uint256"
            },
            {
              "internalType": "address",
              "name": "_inspectorAddress",
              "type": "address"
            },
            {
              "internalType": "string",
              "name": "name",
              "type": "string"
            },
            {
              "internalType": "uint256",
              "name": "age",
              "type": "uint256"
            },
            {
              "internalType": "string",
              "name": "designation",
              "type": "string"
            },
            {
              "internalType": "string",
              "name": "city",
              "type": "string"
            }
          ],
          "internalType": "struct LandRecords.landInspector[]",
          "name": "",
          "type": "tuple[]"
        }
      ],
      "stateMutability": "view",
      "type": "function"
    },
    {
      "inputs": [],
      "name": "returnAllLands",
      "outputs": [
        {
          "components": [
            {
              "internalType": "uint256",
              "name": "id",
              "type": "uint256"
            },
            {
              "internalType": "uint256",
              "name": "landArea",
              "type": "uint256"
            },
            {
              "internalType": "string",
              "name": "landAddress",
              "type": "string"
            },
            {
              "internalType": "uint256",
              "name": "landPrice",
              "type": "uint256"
            },
            {
              "internalType": "string",
              "name": "allLatitudeLongitude",
              "type": "string"
            },
            {
              "internalType": "uint256",
              "name": "propertyPID",
              "type": "uint256"
            },
            {
              "internalType": "string",
              "name": "surveyNumber",
              "type": "string"
            },
            {
              "internalType": "string",
              "name": "landDocument",
              "type": "string"
            },
            {
              "internalType": "string",
              "name": "landPicture",
              "type": "string"
            },
            {
              "internalType": "bool",
              "name": "isForSell",
              "type": "bool"
            },
            {
              "internalType": "address payable",
              "name": "landOwner",
              "type": "address"
            },
            {
              "internalType": "bool",
              "name": "isLandVerified",
              "type": "bool"
            }
          ],
          "internalType": "struct LandRecords.Land[]",
          "name": "",
          "type": "tuple[]"
        }
      ],
      "stateMutability": "view",
      "type": "function"
    },
    {
      "inputs": [
        {
          "internalType": "address",
          "name": "_adrs",
          "type": "address"
        }
      ],
      "name": "returnLandInspector",
      "outputs": [
        {
          "components": [
            {
              "internalType": "uint256",
              "name": "id",
              "type": "uint256"
            },
            {
              "internalType": "address",
              "name": "_inspectorAddress",
              "type": "address"
            },
            {
              "internalType": "string",
              "name": "name",
              "type": "string"
            },
            {
              "internalType": "uint256",
              "name": "age",
              "type": "uint256"
            },
            {
              "internalType": "string",
              "name": "designation",
              "type": "string"
            },
            {
              "internalType": "string",
              "name": "city",
              "type": "string"
            }
          ],
          "internalType": "struct LandRecords.landInspector",
          "name": "",
          "type": "tuple"
        }
      ],
      "stateMutability": "view",
      "type": "function"
    },
    {
      "inputs": [],
      "name": "totalLandsCount",
      "outputs": [
        {
          "internalType": "uint256",
          "name": "",
          "type": "uint256"
        }
      ],
      "stateMutability": "view",
      "type": "function"
    },
    {
      "inputs": [],
      "name": "totalUsersCount",
      "outputs": [
        {
          "internalType": "uint256",
          "name": "",
          "type": "uint256"
        }
      ],
      "stateMutability": "view",
      "type": "function"
    },
    {
      "inputs": [],
      "name": "transferCount",
      "outputs": [
        {
          "internalType": "uint256",
          "name": "",
          "type": "uint256"
        }
      ],
      "stateMutability": "view",
      "type": "function"
    },
    {
      "inputs": [
        {
          "internalType": "uint256",
          "name": "_requestId",
          "type": "uint256"
        },
        {
          "internalType": "string",
          "name": "documentUrl",
          "type": "string"
        }
      ],
      "name": "transferOwnership",
      "outputs": [
        {
          "internalType": "bool",
          "name": "",
          "type": "bool"
        }
      ],
      "stateMutability": "nonpayable",
      "type": "function"
    },
    {
      "inputs": [
        {
          "internalType": "uint256",
          "name": "_id",
          "type": "uint256"
        }
      ],
      "name": "verifyLand",
      "outputs": [],
      "stateMutability": "nonpayable",
      "type": "function"
    },
    {
      "inputs": [
        {
          "internalType": "address",
          "name": "_userId",
          "type": "address"
        }
      ],
      "name": "verifyUser",
      "outputs": [],
      "stateMutability": "nonpayable",
      "type": "function"
    }
  ],
  "bytecode": "0x608060405234801561001057600080fd5b50600080546001600160a01b03191633179055614b58806100326000396000f3fe6080604052600436106102305760003560e01c8063995a8d961161012e578063db203b7f116100ab578063e3d33fc91161006f578063e3d33fc914610783578063edf5388614610799578063f4910c28146107cf578063f9c43bdf146107e5578063fa0245491461080557600080fd5b8063db203b7f146106c8578063de117688146106de578063e0bf5439146106fe578063e165af871461072b578063e261f1e51461074b57600080fd5b8063c26e11eb116100f2578063c26e11eb146105fd578063c6dcdc371461061d578063d196ebf21461063d578063d3b368c01461066a578063d72ca9ec1461068a57600080fd5b8063995a8d96146105445780639bf3d2a714610557578063a18cb9e21461056c578063a519e9101461058e578063ace417e0146105c057600080fd5b806345adac39116101bc5780636cbf6cf8116101805780636cbf6cf8146104705780637517e00f146104aa57806376d6180b146104ca5780638b1751d2146104f757806394cffc5c1461052457600080fd5b806345adac391461037c5780634ba1f098146103a95780634cc25cbe146103c95780634d8131201461043d5780635114cb521461045d57600080fd5b80632bd6ac03116102035780632bd6ac03146102f25780632d7788db1461030757806330c5b280146103275780633ead67b51461033c578063416f958f1461035c57600080fd5b80631483e58b14610235578063163f7522146102605780631a313202146102905780632653dbda146102d0575b600080fd5b34801561024157600080fd5b5061024a610825565b6040516102579190613ebb565b60405180910390f35b34801561026c57600080fd5b5061028061027b366004613f63565b61096b565b6040519015158152602001610257565b34801561029c57600080fd5b506102c36102ab366004613f87565b6000908152600f602052604090206004015460ff1690565b6040516102579190613fa0565b3480156102dc57600080fd5b506102f06102eb366004614050565b61099c565b005b3480156102fe57600080fd5b5061024a610bb9565b34801561031357600080fd5b506102f0610322366004613f87565b610d25565b34801561033357600080fd5b5061024a610d72565b34801561034857600080fd5b506102f0610357366004613f63565b610ede565b34801561036857600080fd5b506102f061037736600461414f565b610f5f565b34801561038857600080fd5b5061039c610397366004613f63565b611193565b6040516102579190614299565b3480156103b557600080fd5b506102f06103c4366004613f87565b6115d4565b3480156103d557600080fd5b5061042b6103e4366004613f87565b600f602052600090815260409020805460018201546002830154600384015460049094015492936001600160a01b0392831693929091169160ff8082169161010090041686565b604051610257969594939291906143d3565b34801561044957600080fd5b506102f0610458366004613f63565b61161d565b6102f061046b366004613f87565b611657565b34801561047c57600080fd5b5061028061048b366004613f87565b6000908152600e6020526040902060090154600160a81b900460ff1690565b3480156104b657600080fd5b506102f06104c5366004613f63565b611792565b3480156104d657600080fd5b506104ea6104e5366004614418565b6119f5565b604051610257919061453e565b34801561050357600080fd5b50610517610512366004613f63565b611f92565b604051610257919061460e565b34801561053057600080fd5b506102f061053f366004613f87565b61219d565b6102f0610552366004613f63565b6121e3565b34801561056357600080fd5b5061039c61221c565b34801561057857600080fd5b5061058161267f565b6040516102579190614621565b34801561059a57600080fd5b506105ae6105a9366004613f63565b612968565b60405161025796959493929190614676565b3480156105cc57600080fd5b506102806105db366004613f63565b6001600160a01b03166000908152600960208190526040909120015460ff1690565b34801561060957600080fd5b506102f0610618366004613f87565b612b3f565b34801561062957600080fd5b506102806106383660046146d9565b612b88565b34801561064957600080fd5b5061065d610658366004613f63565b612d1b565b604051610257919061477d565b34801561067657600080fd5b506102f0610685366004613f87565b612d87565b34801561069657600080fd5b506106ba6106a5366004613f87565b6000908152600e602052604090206003015490565b604051908152602001610257565b3480156106d457600080fd5b506106ba60025481565b3480156106ea57600080fd5b506102806106f9366004613f63565b612f26565b34801561070a57600080fd5b5061071e610719366004613f63565b612f45565b60405161025791906147c1565b34801561073757600080fd5b50610280610746366004613f63565b61331f565b34801561075757600080fd5b5061076b610766366004613f87565b613348565b6040516102579c9b9a999897969594939291906147d4565b34801561078f57600080fd5b506106ba60045481565b3480156107a557600080fd5b506107b96107b4366004613f63565b61365b565b6040516102579a9998979695949392919061488d565b3480156107db57600080fd5b506106ba60035481565b3480156107f157600080fd5b506102f0610800366004613f87565b6139e9565b34801561081157600080fd5b5061028061082036600461493d565b613a1f565b6005546060906000816001600160401b0381111561084557610845613fae565b60405190808252806020026020018201604052801561087e57816020015b61086b613ca9565b8152602001906001900390816108635790505b50905060005b8281101561096457600f600061089b836001614999565b81526020808201929092526040908101600020815160c0810183528154815260018201546001600160a01b0390811694820194909452600282015490931691830191909152600381015460608301526004810154608083019060ff16600581111561090857610908613e83565b600581111561091957610919613e83565b815260049190910154610100900460ff1615156020909101528251839083908110610946576109466149b1565b6020026020010181905250808061095c906149c7565b915050610884565b5092915050565b6001600160a01b0381166000908152600c602052604081205460ff161561099457506001919050565b506000919050565b336000908152600c602052604090205460ff16156109b957600080fd5b336000908152600c60205260408120805460ff1916600117905560028054916109e1836149c7565b90915550507f72c6bfb7988af3a1efa6568f02a999bc52252641c659d85961ca3d372b57d5cf805460018082019092557ffc2858506235d5502cafdfae2dcc7804b97258f4d77357c39b0f2a32aa2e6a50018054336001600160a01b03199182168117909255600280546000908152600a6020908152604080832080549095168617909455835161014081018552925483528281018d81528385018d905260608401869052608084018c905260a084018b905260c0840188905260e084018a9052610100840189905261012084018390529482526009815292902081518155925180519194610ad69390850192910190613cdf565b5060408201518051610af2916002840191602090910190613cdf565b5060608201516003820180546001600160a01b0319166001600160a01b039092169190911790556080820151600482015560a08201518051610b3e916005840191602090910190613cdf565b5060c08201518051610b5a916006840191602090910190613cdf565b5060e08201518051610b76916007840191602090910190613cdf565b506101008201518051610b93916008840191602090910190613cdf565b5061012091909101516009909101805460ff191691151591909117905550505050505050565b33600090815260116020526040812054606091816001600160401b03811115610be457610be4613fae565b604051908082528060200260200182016040528015610c1d57816020015b610c0a613ca9565b815260200190600190039081610c025790505b50905060005b82811015610964573360009081526011602052604081208054600f92919084908110610c5157610c516149b1565b600091825260208083209091015483528281019390935260409182019020815160c0810183528154815260018201546001600160a01b0390811694820194909452600282015490931691830191909152600381015460608301526004810154608083019060ff166005811115610cc957610cc9613e83565b6005811115610cda57610cda613e83565b815260049190910154610100900460ff1615156020909101528251839083908110610d0757610d076149b1565b60200260200101819052508080610d1d906149c7565b915050610c23565b6000818152600f60205260409020600101546001600160a01b03163314610d4b57600080fd5b6000818152600f6020526040902060040180546003919060ff19166001835b021790555050565b33600090815260106020526040812054606091816001600160401b03811115610d9d57610d9d613fae565b604051908082528060200260200182016040528015610dd657816020015b610dc3613ca9565b815260200190600190039081610dbb5790505b50905060005b82811015610964573360009081526010602052604081208054600f92919084908110610e0a57610e0a6149b1565b600091825260208083209091015483528281019390935260409182019020815160c0810183528154815260018201546001600160a01b0390811694820194909452600282015490931691830191909152600381015460608301526004810154608083019060ff166005811115610e8257610e82613e83565b6005811115610e9357610e93613e83565b815260049190910154610100900460ff1615156020909101528251839083908110610ec057610ec06149b1565b60200260200101819052508080610ed6906149c7565b915050610ddc565b6000546001600160a01b03163314610f3d5760405162461bcd60e51b815260206004820152601960248201527f796f7520617265206e6f7420636f6e74726163744f776e65720000000000000060448201526064015b60405180910390fd5b600080546001600160a01b0319166001600160a01b0392909216919091179055565b336000908152600960208190526040909120015460ff16610f7f57600080fd5b60038054906000610f8f836149c7565b9091555050604080516101808101825260035480825260208083018c81528385018c8152606085018c9052608085018b905260a085018a905260c0850189905260e08501889052610100850187905260006101208601819052336101408701526101608601819052938452600e835294909220835181559151600183015592518051929391926110259260028501920190613cdf565b50606082015160038201556080820151805161104b916004840191602090910190613cdf565b5060a0820151600582015560c08201518051611071916006840191602090910190613cdf565b5060e0820151805161108d916007840191602090910190613cdf565b5061010082015180516110aa916008840191602090910190613cdf565b5061012082015160099091018054610140840151610160909401511515600160a81b0260ff60a81b196001600160a01b0390951661010002610100600160a81b0319941515949094166001600160a81b03199092169190911792909217929092161790555050336000908152600d602090815260408220600380548254600181810185559386528486200155601290925290547f71a67924699a20698523213e55fe499d539379d7769cd5567e2c45d583f815a3805492830181559092527f09d3634ec98b7a093f4c560246b0e10c09e0e06c46ca9be08ca93e6cf08d8d130155505050505050565b6001600160a01b0381166000908152600d6020526040812054606091816001600160401b038111156111c7576111c7613fae565b60405190808252806020026020018201604052801561120057816020015b6111ed613d63565b8152602001906001900390816111e55790505b50905060005b828110156115cc576001600160a01b0385166000908152600d602052604081208054600e9291908490811061123d5761123d6149b1565b90600052602060002001548152602001908152602001600020604051806101800160405290816000820154815260200160018201548152602001600282018054611286906149e2565b80601f01602080910402602001604051908101604052809291908181526020018280546112b2906149e2565b80156112ff5780601f106112d4576101008083540402835291602001916112ff565b820191906000526020600020905b8154815290600101906020018083116112e257829003601f168201915b5050505050815260200160038201548152602001600482018054611322906149e2565b80601f016020809104026020016040519081016040528092919081815260200182805461134e906149e2565b801561139b5780601f106113705761010080835404028352916020019161139b565b820191906000526020600020905b81548152906001019060200180831161137e57829003601f168201915b50505050508152602001600582015481526020016006820180546113be906149e2565b80601f01602080910402602001604051908101604052809291908181526020018280546113ea906149e2565b80156114375780601f1061140c57610100808354040283529160200191611437565b820191906000526020600020905b81548152906001019060200180831161141a57829003601f168201915b50505050508152602001600782018054611450906149e2565b80601f016020809104026020016040519081016040528092919081815260200182805461147c906149e2565b80156114c95780601f1061149e576101008083540402835291602001916114c9565b820191906000526020600020905b8154815290600101906020018083116114ac57829003601f168201915b505050505081526020016008820180546114e2906149e2565b80601f016020809104026020016040519081016040528092919081815260200182805461150e906149e2565b801561155b5780601f106115305761010080835404028352916020019161155b565b820191906000526020600020905b81548152906001019060200180831161153e57829003601f168201915b50505091835250506009919091015460ff808216151560208401526001600160a01b036101008304166040840152600160a81b90910416151560609091015282518390839081106115ae576115ae6149b1565b602002602001018190525080806115c4906149c7565b915050611206565b509392505050565b6000818152600f60205260409020600101546001600160a01b031633146115fa57600080fd5b6000818152600f6020526040902060040180546002919060ff1916600183610d6a565b6116263361331f565b61162f57600080fd5b6001600160a01b0316600090815260096020819052604090912001805460ff19166001179055565b6000818152600f60205260409020600201546001600160a01b0316331480156116a5575060026000828152600f602052604090206004015460ff1660058111156116a3576116a3613e83565b145b6116ae57600080fd5b6000818152600f602090815260408083206004808201805460ff19169091179055600301548352600e9091528082206009015490516101009091046001600160a01b0316916108fc34801591909102929091818181858888f1935050505015801561171d573d6000803e3d6000fd5b506000818152600f602090815260408220600401805461ff001916610100179055601390527f4155c2f711f2cdd34f8262ab8fb9b7020a700fe7b6948222152f7670d1fdf34d805460018101825591527f3ce2cb385edcbf7185fd469186dd769993781141b215a1a4715ebb7f94fd59ab0155565b6000546001600160a01b031633146117ec5760405162461bcd60e51b815260206004820152601960248201527f596f7520617265206e6f7420636f6e74726163744f776e6572000000000000006044820152606401610f34565b6001600160a01b03811660009081526008602052604090205460ff166118545760405162461bcd60e51b815260206004820152601860248201527f4c616e6420496e73706563746f72206e6f7420666f756e6400000000000000006044820152606401610f34565b6001600160a01b03811660009081526008602090815260408220805460ff191690556001825260079052600080516020614b0383398151915254905b818110156119f05760016000526007602052600080516020614b0383398151915280546001600160a01b0385169190839081106118cf576118cf6149b1565b6000918252602090912001546001600160a01b031614156119de57600160008190526007602052600080516020614b03833981519152906119109084614a1d565b81548110611920576119206149b1565b6000918252602080832090910154600190925260079052600080516020614b0383398151915280546001600160a01b039092169183908110611964576119646149b1565b600091825260208083209190910180546001600160a01b0319166001600160a01b0394909416939093179092556001905260079052600080516020614b038339815191528054806119b7576119b7614a34565b600082815260209020810160001990810180546001600160a01b0319169055019055505050565b806119e8816149c7565b915050611890565b505050565b60016000908152600b6020527f72c6bfb7988af3a1efa6568f02a999bc52252641c659d85961ca3d372b57d5cf54606091816001600160401b03811115611a3e57611a3e613fae565b604051908082528060200260200182016040528015611a7757816020015b611a64613dd1565b815260200190600190039081611a5c5790505b50905060005b828110156115cc5784604051602001611a969190614a4a565b6040516020818303038152906040528051906020012060096000600b6000600181526020019081526020016000208481548110611ad557611ad56149b1565b60009182526020808320909101546001600160a01b0316835282810193909352604091820190209051611b0e9260059092019101614a66565b604051602081830303815290604052805190602001201415611f805760016000908152600b6020527f72c6bfb7988af3a1efa6568f02a999bc52252641c659d85961ca3d372b57d5cf8054600992919084908110611b6e57611b6e6149b1565b9060005260206000200160009054906101000a90046001600160a01b03166001600160a01b03166001600160a01b031681526020019081526020016000206040518061014001604052908160008201548152602001600182018054611bd2906149e2565b80601f0160208091040260200160405190810160405280929190818152602001828054611bfe906149e2565b8015611c4b5780601f10611c2057610100808354040283529160200191611c4b565b820191906000526020600020905b815481529060010190602001808311611c2e57829003601f168201915b50505050508152602001600282018054611c64906149e2565b80601f0160208091040260200160405190810160405280929190818152602001828054611c90906149e2565b8015611cdd5780601f10611cb257610100808354040283529160200191611cdd565b820191906000526020600020905b815481529060010190602001808311611cc057829003601f168201915b505050918352505060038201546001600160a01b0316602082015260048201546040820152600582018054606090920191611d17906149e2565b80601f0160208091040260200160405190810160405280929190818152602001828054611d43906149e2565b8015611d905780601f10611d6557610100808354040283529160200191611d90565b820191906000526020600020905b815481529060010190602001808311611d7357829003601f168201915b50505050508152602001600682018054611da9906149e2565b80601f0160208091040260200160405190810160405280929190818152602001828054611dd5906149e2565b8015611e225780601f10611df757610100808354040283529160200191611e22565b820191906000526020600020905b815481529060010190602001808311611e0557829003601f168201915b50505050508152602001600782018054611e3b906149e2565b80601f0160208091040260200160405190810160405280929190818152602001828054611e67906149e2565b8015611eb45780601f10611e8957610100808354040283529160200191611eb4565b820191906000526020600020905b815481529060010190602001808311611e9757829003601f168201915b50505050508152602001600882018054611ecd906149e2565b80601f0160208091040260200160405190810160405280929190818152602001828054611ef9906149e2565b8015611f465780601f10611f1b57610100808354040283529160200191611f46565b820191906000526020600020905b815481529060010190602001808311611f2957829003601f168201915b50505091835250506009919091015460ff1615156020909101528251839083908110611f7457611f746149b1565b60200260200101819052505b80611f8a816149c7565b915050611a7d565b611f9a613e2f565b6001600160a01b03808316600090815260066020908152604091829020825160c081018452815481526001820154909416918401919091526002810180549192840191611fe6906149e2565b80601f0160208091040260200160405190810160405280929190818152602001828054612012906149e2565b801561205f5780601f106120345761010080835404028352916020019161205f565b820191906000526020600020905b81548152906001019060200180831161204257829003601f168201915b5050505050815260200160038201548152602001600482018054612082906149e2565b80601f01602080910402602001604051908101604052809291908181526020018280546120ae906149e2565b80156120fb5780601f106120d0576101008083540402835291602001916120fb565b820191906000526020600020905b8154815290600101906020018083116120de57829003601f168201915b50505050508152602001600582018054612114906149e2565b80601f0160208091040260200160405190810160405280929190818152602001828054612140906149e2565b801561218d5780601f106121625761010080835404028352916020019161218d565b820191906000526020600020905b81548152906001019060200180831161217057829003601f168201915b5050505050815250509050919050565b6000818152600e602052604090206009015461010090046001600160a01b031633146121c857600080fd5b6000908152600e60205260409020600901805460ff19169055565b6040516001600160a01b038216903480156108fc02916000818181858888f19350505050158015612218573d6000803e3d6000fd5b5050565b6001600090815260126020527f71a67924699a20698523213e55fe499d539379d7769cd5567e2c45d583f815a354606091816001600160401b0381111561226557612265613fae565b60405190808252806020026020018201604052801561229e57816020015b61228b613d63565b8152602001906001900390816122835790505b50905060005b82811015610964576001600090815260126020527f71a67924699a20698523213e55fe499d539379d7769cd5567e2c45d583f815a38054600e929190849081106122f0576122f06149b1565b90600052602060002001548152602001908152602001600020604051806101800160405290816000820154815260200160018201548152602001600282018054612339906149e2565b80601f0160208091040260200160405190810160405280929190818152602001828054612365906149e2565b80156123b25780601f10612387576101008083540402835291602001916123b2565b820191906000526020600020905b81548152906001019060200180831161239557829003601f168201915b50505050508152602001600382015481526020016004820180546123d5906149e2565b80601f0160208091040260200160405190810160405280929190818152602001828054612401906149e2565b801561244e5780601f106124235761010080835404028352916020019161244e565b820191906000526020600020905b81548152906001019060200180831161243157829003601f168201915b5050505050815260200160058201548152602001600682018054612471906149e2565b80601f016020809104026020016040519081016040528092919081815260200182805461249d906149e2565b80156124ea5780601f106124bf576101008083540402835291602001916124ea565b820191906000526020600020905b8154815290600101906020018083116124cd57829003601f168201915b50505050508152602001600782018054612503906149e2565b80601f016020809104026020016040519081016040528092919081815260200182805461252f906149e2565b801561257c5780601f106125515761010080835404028352916020019161257c565b820191906000526020600020905b81548152906001019060200180831161255f57829003601f168201915b50505050508152602001600882018054612595906149e2565b80601f01602080910402602001604051908101604052809291908181526020018280546125c1906149e2565b801561260e5780601f106125e35761010080835404028352916020019161260e565b820191906000526020600020905b8154815290600101906020018083116125f157829003601f168201915b50505091835250506009919091015460ff808216151560208401526001600160a01b036101008304166040840152600160a81b9091041615156060909101528251839083908110612661576126616149b1565b60200260200101819052508080612677906149c7565b9150506122a4565b600160009081526007602052600080516020614b0383398151915254606091816001600160401b038111156126b6576126b6613fae565b6040519080825280602002602001820160405280156126ef57816020015b6126dc613e2f565b8152602001906001900390816126d45790505b50905060005b8281101561096457600160009081526007602052600080516020614b03833981519152805460069291908490811061272f5761272f6149b1565b60009182526020808320909101546001600160a01b039081168452838201949094526040928301909120825160c081018452815481526001820154909416918401919091526002810180549192840191612788906149e2565b80601f01602080910402602001604051908101604052809291908181526020018280546127b4906149e2565b80156128015780601f106127d657610100808354040283529160200191612801565b820191906000526020600020905b8154815290600101906020018083116127e457829003601f168201915b5050505050815260200160038201548152602001600482018054612824906149e2565b80601f0160208091040260200160405190810160405280929190818152602001828054612850906149e2565b801561289d5780601f106128725761010080835404028352916020019161289d565b820191906000526020600020905b81548152906001019060200180831161288057829003601f168201915b505050505081526020016005820180546128b6906149e2565b80601f01602080910402602001604051908101604052809291908181526020018280546128e2906149e2565b801561292f5780601f106129045761010080835404028352916020019161292f565b820191906000526020600020905b81548152906001019060200180831161291257829003601f168201915b50505050508152505082828151811061294a5761294a6149b1565b60200260200101819052508080612960906149c7565b9150506126f5565b60066020526000908152604090208054600182015460028301805492936001600160a01b039092169261299a906149e2565b80601f01602080910402602001604051908101604052809291908181526020018280546129c6906149e2565b8015612a135780601f106129e857610100808354040283529160200191612a13565b820191906000526020600020905b8154815290600101906020018083116129f657829003601f168201915b505050505090806003015490806004018054612a2e906149e2565b80601f0160208091040260200160405190810160405280929190818152602001828054612a5a906149e2565b8015612aa75780601f10612a7c57610100808354040283529160200191612aa7565b820191906000526020600020905b815481529060010190602001808311612a8a57829003601f168201915b505050505090806005018054612abc906149e2565b80601f0160208091040260200160405190810160405280929190818152602001828054612ae8906149e2565b8015612b355780601f10612b0a57610100808354040283529160200191612b35565b820191906000526020600020905b815481529060010190602001808311612b1857829003601f168201915b5050505050905086565b6000818152600e602052604090206009015461010090046001600160a01b03163314612b6a57600080fd5b6000908152600e60205260409020600901805460ff19166001179055565b600080546001600160a01b03163314612ba357506000612d12565b6000546001600160a01b03163314612bba57600080fd5b6001600160a01b03861660008181526008602090815260408220805460ff191660019081179091556007909152600080516020614b03833981519152805480830182559083527fb2401e68d452ad3af4aed95d6e19d1a690ed00a9a5bee1b2b0a83b6028446a4f0180546001600160a01b03191690931790925581549190612c41836149c7565b90915550506040805160c0810182526001805482526001600160a01b0389811660208085018281528587018c8152606087018c9052608087018b905260a087018a90526000938452600683529690922085518155915193820180546001600160a01b031916949093169390931790915592518051929392612cc89260028501920190613cdf565b506060820151600382015560808201518051612cee916004840191602090910190613cdf565b5060a08201518051612d0a916005840191602090910190613cdf565b506001925050505b95945050505050565b6001600160a01b0381166000908152600d6020908152604091829020805483518184028101840190945280845260609392830182828015612d7b57602002820191906000526020600020905b815481526020019060010190808311612d67575b50505050509050919050565b336000908152600960208190526040909120015460ff168015612dc257506000818152600e6020526040902060090154600160a81b900460ff165b612dcb57600080fd5b60058054906000612ddb836149c7565b90915550506040805160c081018252600580548083526000858152600e60209081528582206009015461010090046001600160a01b0390811682870190815233878901908152606088018a8152600160808a0181815260a08b01889052978752600f9095529890942087518155905181840180549184166001600160a01b03199283161790559351600282018054919093169416939093179055945160038201559051600482018054949592949193909260ff1990921691908490811115612ea557612ea5613e83565b021790555060a091909101516004909101805461ff00191661010092151583021790556000918252600e6020908152604080842060090154929092046001600160a01b031683526010815281832060058054825460018181018555938752848720015533855260118352928420925483549182018455928452922090910155565b600080546001600160a01b038381169116141561099457506001919050565b612f4d613dd1565b6001600160a01b03821660009081526009602090815260409182902082516101408101909352805483526001810180549192840191612f8b906149e2565b80601f0160208091040260200160405190810160405280929190818152602001828054612fb7906149e2565b80156130045780601f10612fd957610100808354040283529160200191613004565b820191906000526020600020905b815481529060010190602001808311612fe757829003601f168201915b5050505050815260200160028201805461301d906149e2565b80601f0160208091040260200160405190810160405280929190818152602001828054613049906149e2565b80156130965780601f1061306b57610100808354040283529160200191613096565b820191906000526020600020905b81548152906001019060200180831161307957829003601f168201915b505050918352505060038201546001600160a01b03166020820152600482015460408201526005820180546060909201916130d0906149e2565b80601f01602080910402602001604051908101604052809291908181526020018280546130fc906149e2565b80156131495780601f1061311e57610100808354040283529160200191613149565b820191906000526020600020905b81548152906001019060200180831161312c57829003601f168201915b50505050508152602001600682018054613162906149e2565b80601f016020809104026020016040519081016040528092919081815260200182805461318e906149e2565b80156131db5780601f106131b0576101008083540402835291602001916131db565b820191906000526020600020905b8154815290600101906020018083116131be57829003601f168201915b505050505081526020016007820180546131f4906149e2565b80601f0160208091040260200160405190810160405280929190818152602001828054613220906149e2565b801561326d5780601f106132425761010080835404028352916020019161326d565b820191906000526020600020905b81548152906001019060200180831161325057829003601f168201915b50505050508152602001600882018054613286906149e2565b80601f01602080910402602001604051908101604052809291908181526020018280546132b2906149e2565b80156132ff5780601f106132d4576101008083540402835291602001916132ff565b820191906000526020600020905b8154815290600101906020018083116132e257829003601f168201915b50505091835250506009919091015460ff16151560209091015292915050565b6001600160a01b03811660009081526008602052604081205460ff161561099457506001919050565b600e6020526000908152604090208054600182015460028301805492939192613370906149e2565b80601f016020809104026020016040519081016040528092919081815260200182805461339c906149e2565b80156133e95780601f106133be576101008083540402835291602001916133e9565b820191906000526020600020905b8154815290600101906020018083116133cc57829003601f168201915b505050505090806003015490806004018054613404906149e2565b80601f0160208091040260200160405190810160405280929190818152602001828054613430906149e2565b801561347d5780601f106134525761010080835404028352916020019161347d565b820191906000526020600020905b81548152906001019060200180831161346057829003601f168201915b505050505090806005015490806006018054613498906149e2565b80601f01602080910402602001604051908101604052809291908181526020018280546134c4906149e2565b80156135115780601f106134e657610100808354040283529160200191613511565b820191906000526020600020905b8154815290600101906020018083116134f457829003601f168201915b505050505090806007018054613526906149e2565b80601f0160208091040260200160405190810160405280929190818152602001828054613552906149e2565b801561359f5780601f106135745761010080835404028352916020019161359f565b820191906000526020600020905b81548152906001019060200180831161358257829003601f168201915b5050505050908060080180546135b4906149e2565b80601f01602080910402602001604051908101604052809291908181526020018280546135e0906149e2565b801561362d5780601f106136025761010080835404028352916020019161362d565b820191906000526020600020905b81548152906001019060200180831161361057829003601f168201915b5050506009909301549192505060ff808216916001600160a01b0361010082041691600160a81b909104168c565b6009602052600090815260409020805460018201805491929161367d906149e2565b80601f01602080910402602001604051908101604052809291908181526020018280546136a9906149e2565b80156136f65780601f106136cb576101008083540402835291602001916136f6565b820191906000526020600020905b8154815290600101906020018083116136d957829003601f168201915b50505050509080600201805461370b906149e2565b80601f0160208091040260200160405190810160405280929190818152602001828054613737906149e2565b80156137845780601f1061375957610100808354040283529160200191613784565b820191906000526020600020905b81548152906001019060200180831161376757829003601f168201915b505050506003830154600484015460058501805494956001600160a01b0390931694919350906137b3906149e2565b80601f01602080910402602001604051908101604052809291908181526020018280546137df906149e2565b801561382c5780601f106138015761010080835404028352916020019161382c565b820191906000526020600020905b81548152906001019060200180831161380f57829003601f168201915b505050505090806006018054613841906149e2565b80601f016020809104026020016040519081016040528092919081815260200182805461386d906149e2565b80156138ba5780601f1061388f576101008083540402835291602001916138ba565b820191906000526020600020905b81548152906001019060200180831161389d57829003601f168201915b5050505050908060070180546138cf906149e2565b80601f01602080910402602001604051908101604052809291908181526020018280546138fb906149e2565b80156139485780601f1061391d57610100808354040283529160200191613948565b820191906000526020600020905b81548152906001019060200180831161392b57829003601f168201915b50505050509080600801805461395d906149e2565b80601f0160208091040260200160405190810160405280929190818152602001828054613989906149e2565b80156139d65780601f106139ab576101008083540402835291602001916139d6565b820191906000526020600020905b8154815290600101906020018083116139b957829003601f168201915b5050506009909301549192505060ff168a565b6139f23361331f565b6139fb57600080fd5b6000908152600e60205260409020600901805460ff60a81b1916600160a81b179055565b6000613a2a3361331f565b613a3357600080fd5b6000838152600f6020526040902060040154610100900460ff16613a5957506000613ca3565b6000838152600f6020908152604080832060048101805460ff1916600517905560028101546001600160a01b039081168552600d84528285206003830154815460018181018455928852958720909501949094559201549091168252812054905b81811015613c09576000858152600f6020908152604080832060038101546001909101546001600160a01b03168452600d909252909120805483908110613b0357613b036149b1565b90600052602060002001541415613bf7576000858152600f602090815260408083206001908101546001600160a01b03168452600d90925290912090613b499084614a1d565b81548110613b5957613b596149b1565b6000918252602080832090910154878352600f82526040808420600101546001600160a01b03168452600d9092529120805483908110613b9b57613b9b6149b1565b6000918252602080832090910192909255868152600f82526040808220600101546001600160a01b03168252600d90925220805480613bdc57613bdc614a34565b60019003818190600052602060002001600090559055613c09565b80613c01816149c7565b915050613aba565b506000848152600f60209081526040808320600301548352600e82529091208451613c3c92600790920191860190613cdf565b5050506000828152600f602090815260408083206003810180548552600e9093528184206009908101805460ff1916905560029091015492548452922090910180546001600160a01b0390921661010002610100600160a81b031990921691909117905560015b92915050565b6040805160c081018252600080825260208201819052918101829052606081018290529060808201908152600060209091015290565b828054613ceb906149e2565b90600052602060002090601f016020900481019282613d0d5760008555613d53565b82601f10613d2657805160ff1916838001178555613d53565b82800160010185558215613d53579182015b82811115613d53578251825591602001919060010190613d38565b50613d5f929150613e6e565b5090565b60405180610180016040528060008152602001600081526020016060815260200160008152602001606081526020016000815260200160608152602001606081526020016060815260200160001515815260200160006001600160a01b031681526020016000151581525090565b60405180610140016040528060008152602001606081526020016060815260200160006001600160a01b0316815260200160008152602001606081526020016060815260200160608152602001606081526020016000151581525090565b6040518060c001604052806000815260200160006001600160a01b03168152602001606081526020016000815260200160608152602001606081525090565b5b80821115613d5f5760008155600101613e6f565b634e487b7160e01b600052602160045260246000fd5b60068110613eb757634e487b7160e01b600052602160045260246000fd5b9052565b602080825282518282018190526000919060409081850190868401855b82811015613f3e57815180518552868101516001600160a01b039081168887015286820151168686015260608082015190860152608080820151613f1e82880182613e99565b505060a09081015115159085015260c09093019290850190600101613ed8565b5091979650505050505050565b6001600160a01b0381168114613f6057600080fd5b50565b600060208284031215613f7557600080fd5b8135613f8081613f4b565b9392505050565b600060208284031215613f9957600080fd5b5035919050565b60208101613ca38284613e99565b634e487b7160e01b600052604160045260246000fd5b600082601f830112613fd557600080fd5b81356001600160401b0380821115613fef57613fef613fae565b604051601f8301601f19908116603f0116810190828211818310171561401757614017613fae565b8160405283815286602085880101111561403057600080fd5b836020870160208301376000602085830101528094505050505092915050565b600080600080600080600060e0888a03121561406b57600080fd5b87356001600160401b038082111561408257600080fd5b61408e8b838c01613fc4565b985060208a01359150808211156140a457600080fd5b6140b08b838c01613fc4565b975060408a0135965060608a01359150808211156140cd57600080fd5b6140d98b838c01613fc4565b955060808a01359150808211156140ef57600080fd5b6140fb8b838c01613fc4565b945060a08a013591508082111561411157600080fd5b61411d8b838c01613fc4565b935060c08a013591508082111561413357600080fd5b506141408a828b01613fc4565b91505092959891949750929550565b600080600080600080600080610100898b03121561416c57600080fd5b8835975060208901356001600160401b038082111561418a57600080fd5b6141968c838d01613fc4565b985060408b0135975060608b01359150808211156141b357600080fd5b6141bf8c838d01613fc4565b965060808b0135955060a08b01359150808211156141dc57600080fd5b6141e88c838d01613fc4565b945060c08b01359150808211156141fe57600080fd5b61420a8c838d01613fc4565b935060e08b013591508082111561422057600080fd5b5061422d8b828c01613fc4565b9150509295985092959890939650565b60005b83811015614258578181015183820152602001614240565b83811115614267576000848401525b50505050565b6000815180845261428581602086016020860161423d565b601f01601f19169290920160200192915050565b60006020808301818452808551808352604092508286019150828160051b87010184880160005b838110156143c557603f1989840301855281516101808151855288820151898601528782015181898701526142f78287018261426d565b91505060608083015181870152506080808301518683038288015261431c838261426d565b9250505060a080830151818701525060c08083015186830382880152614342838261426d565b9250505060e0808301518683038288015261435d838261426d565b925050506101008083015186830382880152614379838261426d565b92505050610120808301516143918288018215159052565b5050610140828101516001600160a01b031690860152610160918201511515919094015293860193908601906001016142c0565b509098975050505050505050565b8681526001600160a01b038681166020830152851660408201526060810184905260c081016144056080830185613e99565b82151560a0830152979650505050505050565b60006020828403121561442a57600080fd5b81356001600160401b0381111561444057600080fd5b61444c84828501613fc4565b949350505050565b60006101408251845260208301518160208601526144748286018261426d565b9150506040830151848203604086015261448e828261426d565b91505060608301516144ab60608601826001600160a01b03169052565b506080830151608085015260a083015184820360a08601526144cd828261426d565b91505060c083015184820360c08601526144e7828261426d565b91505060e083015184820360e0860152614501828261426d565b915050610100808401518583038287015261451c838261426d565b92505050610120808401516145348287018215159052565b5090949350505050565b6000602080830181845280855180835260408601915060408160051b870101925083870160005b8281101561459357603f19888603018452614581858351614454565b94509285019290850190600101614565565b5092979650505050505050565b8051825260018060a01b0360208201511660208301526000604082015160c060408501526145d160c085018261426d565b905060608301516060850152608083015184820360808601526145f4828261426d565b91505060a083015184820360a0860152612d12828261426d565b602081526000613f8060208301846145a0565b6000602080830181845280855180835260408601915060408160051b870101925083870160005b8281101561459357603f198886030184526146648583516145a0565b94509285019290850190600101614648565b8681526001600160a01b038616602082015260c0604082018190526000906146a09083018761426d565b85606084015282810360808401526146b8818661426d565b905082810360a08401526146cc818561426d565b9998505050505050505050565b600080600080600060a086880312156146f157600080fd5b85356146fc81613f4b565b945060208601356001600160401b038082111561471857600080fd5b61472489838a01613fc4565b955060408801359450606088013591508082111561474157600080fd5b61474d89838a01613fc4565b9350608088013591508082111561476357600080fd5b5061477088828901613fc4565b9150509295509295909350565b6020808252825182820181905260009190848201906040850190845b818110156147b557835183529284019291840191600101614799565b50909695505050505050565b602081526000613f806020830184614454565b60006101808e83528d60208401528060408401526147f48184018e61426d565b90508b6060840152828103608084015261480e818c61426d565b90508960a084015282810360c0840152614828818a61426d565b905082810360e084015261483c818961426d565b9050828103610100840152614851818861426d565b9150508415156101208301526148736101408301856001600160a01b03169052565b8215156101608301529d9c50505050505050505050505050565b60006101408c83528060208401526148a78184018d61426d565b905082810360408401526148bb818c61426d565b6001600160a01b038b166060850152608084018a905283810360a085015290506148e5818961426d565b905082810360c08401526148f9818861426d565b905082810360e084015261490d818761426d565b9050828103610100840152614922818661426d565b9150508215156101208301529b9a5050505050505050505050565b6000806040838503121561495057600080fd5b8235915060208301356001600160401b0381111561496d57600080fd5b61497985828601613fc4565b9150509250929050565b634e487b7160e01b600052601160045260246000fd5b600082198211156149ac576149ac614983565b500190565b634e487b7160e01b600052603260045260246000fd5b60006000198214156149db576149db614983565b5060010190565b600181811c908216806149f657607f821691505b60208210811415614a1757634e487b7160e01b600052602260045260246000fd5b50919050565b600082821015614a2f57614a2f614983565b500390565b634e487b7160e01b600052603160045260246000fd5b60008251614a5c81846020870161423d565b9190910192915050565b600080835481600182811c915080831680614a8257607f831692505b6020808410821415614aa257634e487b7160e01b86526022600452602486fd5b818015614ab65760018114614ac757614af4565b60ff19861689528489019650614af4565b60008a81526020902060005b86811015614aec5781548b820152908501908301614ad3565b505084890196505b50949897505050505050505056feb39221ace053465ec3453ce2b36430bd138b997ecea25c1043da0c366812b828a264697066735822122061b3470eb36e5843048cedb3c6fda54adc894957c850a887f0939c05cd154bfb64736f6c63430008090033",
  "linkReferences": {},
  "deployedLinkReferences": {}
}