{
  "_format": "hh-sol-artifact-1",
  "contractName": "LandRecords",
  "sourceName": "contracts/LandRecords.sol",
  "abi": [
    {
      "inputs": [],
      "stateMutability": "nonpayable",
      "type": "constructor"
    },
    {
      "inputs": [
        {
          "internalType": "uint256",
          "name": "",
          "type": "uint256"
        }
      ],
      "name": "BuyRequest",
      "outputs": [
        {
          "internalType": "uint256",
          "name": "landId",
          "type": "uint256"
        },
        {
          "internalType": "address",
          "name": "buyerId",
          "type": "address"
        },
        {
          "internalType": "address",
          "name": "sellerId",
          "type": "address"
        },
        {
          "internalType": "enum LandRecords.reqStatus",
          "name": "requestStatus",
          "type": "uint8"
        }
      ],
      "stateMutability": "view",
      "type": "function"
    },
    {
      "inputs": [],
      "name": "InspectorCount",
      "outputs": [
        {
          "internalType": "uint256",
          "name": "",
          "type": "uint256"
        }
      ],
      "stateMutability": "view",
      "type": "function"
    },
    {
      "inputs": [],
      "name": "LandCount",
      "outputs": [
        {
          "internalType": "uint256",
          "name": "",
          "type": "uint256"
        }
      ],
      "stateMutability": "view",
      "type": "function"
    },
    {
      "inputs": [],
      "name": "ReturnAllLandList",
      "outputs": [
        {
          "internalType": "uint256[]",
          "name": "",
          "type": "uint256[]"
        }
      ],
      "stateMutability": "view",
      "type": "function"
    },
    {
      "inputs": [],
      "name": "ReturnAllUserList",
      "outputs": [
        {
          "internalType": "address[]",
          "name": "",
          "type": "address[]"
        }
      ],
      "stateMutability": "view",
      "type": "function"
    },
    {
      "inputs": [
        {
          "internalType": "uint256",
          "name": "",
          "type": "uint256"
        }
      ],
      "name": "TransferRequest",
      "outputs": [
        {
          "internalType": "uint256",
          "name": "landId",
          "type": "uint256"
        },
        {
          "internalType": "address",
          "name": "sellerId",
          "type": "address"
        },
        {
          "internalType": "address",
          "name": "buyerId",
          "type": "address"
        },
        {
          "internalType": "enum LandRecords.reqStatus",
          "name": "requestStatus",
          "type": "uint8"
        }
      ],
      "stateMutability": "view",
      "type": "function"
    },
    {
      "inputs": [
        {
          "internalType": "uint256",
          "name": "_requestId",
          "type": "uint256"
        }
      ],
      "name": "acceptRequest",
      "outputs": [],
      "stateMutability": "nonpayable",
      "type": "function"
    },
    {
      "inputs": [
        {
          "internalType": "uint256",
          "name": "_area",
          "type": "uint256"
        },
        {
          "internalType": "string",
          "name": "_address",
          "type": "string"
        },
        {
          "internalType": "string",
          "name": "_surveyNum",
          "type": "string"
        },
        {
          "internalType": "string",
          "name": "_document",
          "type": "string"
        }
      ],
      "name": "addLand",
      "outputs": [],
      "stateMutability": "nonpayable",
      "type": "function"
    },
    {
      "inputs": [
        {
          "internalType": "address",
          "name": "_address",
          "type": "address"
        },
        {
          "internalType": "string",
          "name": "_name",
          "type": "string"
        },
        {
          "internalType": "uint256",
          "name": "_age",
          "type": "uint256"
        },
        {
          "internalType": "string",
          "name": "_city",
          "type": "string"
        }
      ],
      "name": "addLandInspector",
      "outputs": [
        {
          "internalType": "bool",
          "name": "",
          "type": "bool"
        }
      ],
      "stateMutability": "nonpayable",
      "type": "function"
    },
    {
      "inputs": [
        {
          "internalType": "address",
          "name": "",
          "type": "address"
        }
      ],
      "name": "addressToInspector",
      "outputs": [
        {
          "internalType": "uint256",
          "name": "id",
          "type": "uint256"
        },
        {
          "internalType": "address",
          "name": "_inspectorAddress",
          "type": "address"
        },
        {
          "internalType": "string",
          "name": "name",
          "type": "string"
        },
        {
          "internalType": "uint256",
          "name": "age",
          "type": "uint256"
        },
        {
          "internalType": "string",
          "name": "city",
          "type": "string"
        }
      ],
      "stateMutability": "view",
      "type": "function"
    },
    {
      "inputs": [
        {
          "internalType": "address",
          "name": "",
          "type": "address"
        }
      ],
      "name": "addressToUser",
      "outputs": [
        {
          "internalType": "string",
          "name": "name",
          "type": "string"
        },
        {
          "internalType": "string",
          "name": "email",
          "type": "string"
        },
        {
          "internalType": "address",
          "name": "id",
          "type": "address"
        },
        {
          "internalType": "uint256",
          "name": "age",
          "type": "uint256"
        },
        {
          "internalType": "string",
          "name": "city",
          "type": "string"
        },
        {
          "internalType": "string",
          "name": "document",
          "type": "string"
        },
        {
          "internalType": "string",
          "name": "aadharCard",
          "type": "string"
        },
        {
          "internalType": "string",
          "name": "panCard",
          "type": "string"
        },
        {
          "internalType": "bool",
          "name": "isVerified",
          "type": "bool"
        }
      ],
      "stateMutability": "view",
      "type": "function"
    },
    {
      "inputs": [],
      "name": "allTransferRequestList",
      "outputs": [
        {
          "internalType": "uint256[]",
          "name": "",
          "type": "uint256[]"
        }
      ],
      "stateMutability": "view",
      "type": "function"
    },
    {
      "inputs": [],
      "name": "buyRequestCount",
      "outputs": [
        {
          "internalType": "uint256",
          "name": "",
          "type": "uint256"
        }
      ],
      "stateMutability": "view",
      "type": "function"
    },
    {
      "inputs": [
        {
          "internalType": "uint256",
          "name": "id",
          "type": "uint256"
        }
      ],
      "name": "buyRequestStatus",
      "outputs": [
        {
          "internalType": "bool",
          "name": "",
          "type": "bool"
        }
      ],
      "stateMutability": "view",
      "type": "function"
    },
    {
      "inputs": [
        {
          "internalType": "address",
          "name": "_address",
          "type": "address"
        }
      ],
      "name": "changeContractOwner",
      "outputs": [],
      "stateMutability": "nonpayable",
      "type": "function"
    },
    {
      "inputs": [
        {
          "internalType": "address",
          "name": "_address",
          "type": "address"
        }
      ],
      "name": "isContractOwner",
      "outputs": [
        {
          "internalType": "bool",
          "name": "",
          "type": "bool"
        }
      ],
      "stateMutability": "view",
      "type": "function"
    },
    {
      "inputs": [
        {
          "internalType": "address",
          "name": "_id",
          "type": "address"
        }
      ],
      "name": "isLandInspector",
      "outputs": [
        {
          "internalType": "bool",
          "name": "",
          "type": "bool"
        }
      ],
      "stateMutability": "view",
      "type": "function"
    },
    {
      "inputs": [
        {
          "internalType": "uint256",
          "name": "id",
          "type": "uint256"
        }
      ],
      "name": "isLandVerified",
      "outputs": [
        {
          "internalType": "bool",
          "name": "",
          "type": "bool"
        }
      ],
      "stateMutability": "view",
      "type": "function"
    },
    {
      "inputs": [
        {
          "internalType": "address",
          "name": "_addr",
          "type": "address"
        }
      ],
      "name": "isUserRegistered",
      "outputs": [
        {
          "internalType": "bool",
          "name": "",
          "type": "bool"
        }
      ],
      "stateMutability": "view",
      "type": "function"
    },
    {
      "inputs": [
        {
          "internalType": "address",
          "name": "id",
          "type": "address"
        }
      ],
      "name": "isUserVerified",
      "outputs": [
        {
          "internalType": "bool",
          "name": "",
          "type": "bool"
        }
      ],
      "stateMutability": "view",
      "type": "function"
    },
    {
      "inputs": [
        {
          "internalType": "uint256",
          "name": "",
          "type": "uint256"
        }
      ],
      "name": "lands",
      "outputs": [
        {
          "internalType": "uint256",
          "name": "id",
          "type": "uint256"
        },
        {
          "internalType": "address",
          "name": "landOwner",
          "type": "address"
        },
        {
          "internalType": "uint256",
          "name": "landArea",
          "type": "uint256"
        },
        {
          "internalType": "string",
          "name": "landAddress",
          "type": "string"
        },
        {
          "internalType": "string",
          "name": "surveyNumber",
          "type": "string"
        },
        {
          "internalType": "string",
          "name": "landDocument",
          "type": "string"
        },
        {
          "internalType": "bool",
          "name": "isLandVerified",
          "type": "bool"
        },
        {
          "internalType": "bool",
          "name": "isForSell",
          "type": "bool"
        }
      ],
      "stateMutability": "view",
      "type": "function"
    },
    {
      "inputs": [
        {
          "internalType": "uint256",
          "name": "id",
          "type": "uint256"
        }
      ],
      "name": "makeItNotforSell",
      "outputs": [],
      "stateMutability": "nonpayable",
      "type": "function"
    },
    {
      "inputs": [
        {
          "internalType": "uint256",
          "name": "id",
          "type": "uint256"
        }
      ],
      "name": "makeItforSell",
      "outputs": [],
      "stateMutability": "nonpayable",
      "type": "function"
    },
    {
      "inputs": [
        {
          "internalType": "address",
          "name": "id",
          "type": "address"
        }
      ],
      "name": "myAllLands",
      "outputs": [
        {
          "internalType": "uint256[]",
          "name": "",
          "type": "uint256[]"
        }
      ],
      "stateMutability": "view",
      "type": "function"
    },
    {
      "inputs": [],
      "name": "myReceivedLandRequests",
      "outputs": [
        {
          "internalType": "uint256[]",
          "name": "",
          "type": "uint256[]"
        }
      ],
      "stateMutability": "view",
      "type": "function"
    },
    {
      "inputs": [],
      "name": "mySentLandRequests",
      "outputs": [
        {
          "internalType": "uint256[]",
          "name": "",
          "type": "uint256[]"
        }
      ],
      "stateMutability": "view",
      "type": "function"
    },
    {
      "inputs": [
        {
          "internalType": "string",
          "name": "_name",
          "type": "string"
        },
        {
          "internalType": "string",
          "name": "_email",
          "type": "string"
        },
        {
          "internalType": "uint256",
          "name": "_age",
          "type": "uint256"
        },
        {
          "internalType": "string",
          "name": "_city",
          "type": "string"
        },
        {
          "internalType": "string",
          "name": "_aadharNumber",
          "type": "string"
        },
        {
          "internalType": "string",
          "name": "_panNumber",
          "type": "string"
        },
        {
          "internalType": "string",
          "name": "_document",
          "type": "string"
        }
      ],
      "name": "registerNewUser",
      "outputs": [],
      "stateMutability": "nonpayable",
      "type": "function"
    },
    {
      "inputs": [
        {
          "internalType": "uint256",
          "name": "_requestId",
          "type": "uint256"
        }
      ],
      "name": "rejectRequest",
      "outputs": [],
      "stateMutability": "nonpayable",
      "type": "function"
    },
    {
      "inputs": [
        {
          "internalType": "address",
          "name": "_adrs",
          "type": "address"
        }
      ],
      "name": "removeLandInspector",
      "outputs": [],
      "stateMutability": "nonpayable",
      "type": "function"
    },
    {
      "inputs": [
        {
          "internalType": "uint256",
          "name": "_landId",
          "type": "uint256"
        }
      ],
      "name": "requestforBuy",
      "outputs": [],
      "stateMutability": "nonpayable",
      "type": "function"
    },
    {
      "inputs": [],
      "name": "returnAllLandInspectors",
      "outputs": [
        {
          "internalType": "address[]",
          "name": "",
          "type": "address[]"
        }
      ],
      "stateMutability": "view",
      "type": "function"
    },
    {
      "inputs": [
        {
          "internalType": "uint256",
          "name": "_requestId",
          "type": "uint256"
        },
        {
          "internalType": "string",
          "name": "documentUrl",
          "type": "string"
        }
      ],
      "name": "transferOwnership",
      "outputs": [
        {
          "internalType": "bool",
          "name": "",
          "type": "bool"
        }
      ],
      "stateMutability": "nonpayable",
      "type": "function"
    },
    {
      "inputs": [],
      "name": "transferRequestCount",
      "outputs": [
        {
          "internalType": "uint256",
          "name": "",
          "type": "uint256"
        }
      ],
      "stateMutability": "view",
      "type": "function"
    },
    {
      "inputs": [
        {
          "internalType": "uint256",
          "name": "id",
          "type": "uint256"
        }
      ],
      "name": "transferRequestStatus",
      "outputs": [
        {
          "internalType": "bool",
          "name": "",
          "type": "bool"
        }
      ],
      "stateMutability": "view",
      "type": "function"
    },
    {
      "inputs": [],
      "name": "userCount",
      "outputs": [
        {
          "internalType": "uint256",
          "name": "",
          "type": "uint256"
        }
      ],
      "stateMutability": "view",
      "type": "function"
    },
    {
      "inputs": [
        {
          "internalType": "uint256",
          "name": "_id",
          "type": "uint256"
        }
      ],
      "name": "verifyLand",
      "outputs": [],
      "stateMutability": "nonpayable",
      "type": "function"
    },
    {
      "inputs": [
        {
          "internalType": "address",
          "name": "_userId",
          "type": "address"
        }
      ],
      "name": "verifyUser",
      "outputs": [],
      "stateMutability": "nonpayable",
      "type": "function"
    }
  ],
  "bytecode": "0x608060405234801561001057600080fd5b50600080546001600160a01b0319163317905561263c806100326000396000f3fe608060405234801561001057600080fd5b50600436106102275760003560e01c806393a44f8811610130578063d2d50eab116100b8578063e165af871161007c578063e165af8714610508578063e261f1e51461051b578063edf5388614610542578063f9c43bdf1461056a578063fa0245491461057d57600080fd5b8063d2d50eab1461048a578063d3b368c014610492578063d909ecd8146104a5578063de117688146104ad578063de26e7c9146104c057600080fd5b8063a519e910116100ff578063a519e91014610409578063ace417e01461042d578063c26e11eb1461045c578063c4f291f91461046f578063d196ebf21461047757600080fd5b806393a44f88146103de57806394cffc5c146103e65780639c32e3b4146103f9578063a43ec8621461040157600080fd5b8063499701b2116101b3578063553a998d11610182578063553a998d146103305780636cbf6cf8146103455780636d52fdd01461036b5780637517e00f146103c3578063780e11f8146103d657600080fd5b8063499701b2146102ef5780634ba1f098146102f75780634d1043521461030a5780634d8131201461031d57600080fd5b80632653dbda116101fa5780632653dbda1461028e5780632d7788db146102a357806337a1b941146102b65780633ead67b5146102c95780634056a798146102dc57600080fd5b806307973ccf1461022c578063163f75221461024357806317b73d041461026657806323393d7714610279575b600080fd5b6002545b6040519081526020015b60405180910390f35b610256610251366004611f7b565b610590565b604051901515815260200161023a565b610256610274366004612040565b6105c6565b610281610735565b60405161023a91906120be565b6102a161029c366004612102565b6107b5565b005b6102a16102b1366004612202565b6109be565b6102566102c4366004612202565b610a08565b6102a16102d7366004611f7b565b610a41565b6102566102ea366004612202565b610ac2565b610281610af4565b6102a1610305366004612202565b610b53565b6102a161031836600461221b565b610cc1565b6102a161032b366004611f7b565b610e77565b610338610eb0565b60405161023a9190612294565b610256610353366004612202565b6000908152600e602052604090206006015460ff1690565b6103b3610379366004612202565b600f6020526000908152604090208054600182015460029092015490916001600160a01b039081169190811690600160a01b900460ff1684565b60405161023a94939291906122eb565b6102a16103d1366004611f7b565b610f39565b61033861119c565b600354610230565b6102a16103f4366004612202565b611212565b610281611254565b600154610230565b61041c610417366004611f7b565b6112b3565b60405161023a959493929190612383565b61025661043b366004611f7b565b6001600160a01b031660009081526009602052604090206008015460ff1690565b6102a161046a366004612202565b6113fc565b600454610230565b610281610485366004611f7b565b611442565b600554610230565b6102a16104a0366004612202565b6114ae565b610281611613565b6102566104bb366004611f7b565b611691565b6103b36104ce366004612202565b60106020526000908152604090208054600182015460029092015490916001600160a01b039081169190811690600160a01b900460ff1684565b610256610516366004611f7b565b6116b0565b61052e610529366004612202565b6116d9565b60405161023a9897969594939291906123d1565b610555610550366004611f7b565b6118c4565b60405161023a99989796959493929190612448565b6102a1610578366004612202565b611c4b565b61025661058b3660046124f0565b611c7b565b6001600160a01b0381166000908152600c602052604081205460ff16156105b957506001919050565b506000919050565b919050565b600080546001600160a01b031633146105e15750600061072d565b6000546001600160a01b031633146105f857600080fd5b6001600160a01b03851660008181526008602090815260408220805460ff1916600190811790915560079091526000805160206125e7833981519152805480830182559083527fb2401e68d452ad3af4aed95d6e19d1a690ed00a9a5bee1b2b0a83b6028446a4f0180546001600160a01b0319169093179092558154919061067f8361254d565b90915550506040805160a0810182526001805482526001600160a01b0388811660208085018281528587018b8152606087018b9052608087018a90526000938452600683529690922085518155915193820180546001600160a01b0319169490931693909317909155925180519293926106ff9260028501920190611ecb565b506060820151600382015560808201518051610725916004840191602090910190611ecb565b506001925050505b949350505050565b6001600052601360209081527f4155c2f711f2cdd34f8262ab8fb9b7020a700fe7b6948222152f7670d1fdf34d80546040805182850281018501909152818152606093909291908301828280156107ab57602002820191906000526020600020905b815481526020019060010190808311610797575b5050505050905090565b336000908152600c602052604090205460ff16156107d257600080fd5b336000908152600c60205260408120805460ff1916600117905560028054916107fa8361254d565b90915550507f72c6bfb7988af3a1efa6568f02a999bc52252641c659d85961ca3d372b57d5cf8054600181019091557ffc2858506235d5502cafdfae2dcc7804b97258f4d77357c39b0f2a32aa2e6a50018054336001600160a01b031991821681179092556002546000908152600a60209081526040808320805490941685179093558251610120810184528b81528082018b9052808401859052606081018a90526080810189905260a0810186905260c0810188905260e081018790526101008101839052938252600981529190208251805191926108df92849290910190611ecb565b5060208281015180516108f89260018501920190611ecb565b5060408201516002820180546001600160a01b0319166001600160a01b039092169190911790556060820151600382015560808201518051610944916004840191602090910190611ecb565b5060a08201518051610960916005840191602090910190611ecb565b5060c0820151805161097c916006840191602090910190611ecb565b5060e08201518051610998916007840191602090910190611ecb565b5061010091909101516008909101805460ff191691151591909117905550505050505050565b6000818152601060205260409020600201546001600160a01b031633146109e457600080fd5b6000908152601060205260409020600201805460ff60a01b1916600160a11b179055565b600060016000838152600f60205260409020600290810154600160a01b900460ff1690811115610a3a57610a3a6122d5565b1492915050565b6000546001600160a01b03163314610aa05760405162461bcd60e51b815260206004820152601960248201527f796f7520617265206e6f7420636f6e74726163744f776e65720000000000000060448201526064015b60405180910390fd5b600080546001600160a01b0319166001600160a01b0392909216919091179055565b600060016000838152601060205260409020600290810154600160a01b900460ff1690811115610a3a57610a3a6122d5565b336000908152601160209081526040918290208054835181840281018401909452808452606093928301828280156107ab5760200282019190600052602060002090815481526020019060010190808311610797575050505050905090565b6000818152601060205260409020600201546001600160a01b03163314610b7957600080fd5b6000818152601060205260408120600201805460ff60a01b1916600160a01b1790556005805491610ba98361254d565b90915550506040805160808101825260008381526010602090815283822080548452338285019081526001918201546001600160a01b03908116868801908152606087018681526005548752600f9095529690942085518155905191810180549285166001600160a01b03199384161790559451600280870180549290951692821683178555925194959493926001600160a81b031990911690911790600160a01b908490811115610c5d57610c5d6122d5565b021790555050601460205250506005547fb6c61a840592cc84133e4b25bd509abf4659307c57b160799b38490a5aa48f2c80546001810182556000919091527f2fdc54bebe143af21bc9f7874666206c3383b1c51a1a7063fa557c077952093e0155565b3360009081526009602052604090206008015460ff16610ce057600080fd5b60038054906000610cf08361254d565b90915550506040805161010081018252600380548083523360208085019182528486018a8152606086018a8152608087018a905260a08701899052600060c0880181905260e08801819052948552600e8352969093208551815591516001830180546001600160a01b0319166001600160a01b039092169190911790559151600282015593518051939493610d8c938501929190910190611ecb565b5060808201518051610da8916004840191602090910190611ecb565b5060a08201518051610dc4916005840191602090910190611ecb565b5060c08201516006909101805460e09093015115156101000261ff00199215159290921661ffff19909316929092171790555050336000908152600d602090815260408220600380548254600181810185559386528486200155601390925290547f4155c2f711f2cdd34f8262ab8fb9b7020a700fe7b6948222152f7670d1fdf34d805492830181559092527f3ce2cb385edcbf7185fd469186dd769993781141b215a1a4715ebb7f94fd59ab01555050565b610e80336116b0565b610e8957600080fd5b6001600160a01b03166000908152600960205260409020600801805460ff19166001179055565b6001600052600b60209081527f72c6bfb7988af3a1efa6568f02a999bc52252641c659d85961ca3d372b57d5cf80546040805182850281018501909152818152606093909291908301828280156107ab57602002820191906000526020600020905b81546001600160a01b03168152600190910190602001808311610f12575050505050905090565b6000546001600160a01b03163314610f935760405162461bcd60e51b815260206004820152601960248201527f596f7520617265206e6f7420636f6e74726163744f776e6572000000000000006044820152606401610a97565b6001600160a01b03811660009081526008602052604090205460ff16610ffb5760405162461bcd60e51b815260206004820152601860248201527f4c616e6420496e73706563746f72206e6f7420666f756e6400000000000000006044820152606401610a97565b6001600160a01b03811660009081526008602090815260408220805460ff1916905560018252600790526000805160206125e783398151915254905b8181101561119757600160005260076020526000805160206125e783398151915280546001600160a01b03851691908390811061107657611076612568565b6000918252602090912001546001600160a01b03161415611185576001600081905260076020526000805160206125e7833981519152906110b7908461257e565b815481106110c7576110c7612568565b60009182526020808320909101546001909252600790526000805160206125e783398151915280546001600160a01b03909216918390811061110b5761110b612568565b600091825260208083209190910180546001600160a01b0319166001600160a01b03949094169390931790925560019052600790526000805160206125e783398151915280548061115e5761115e612595565b600082815260209020810160001990810180546001600160a01b0319169055019055505050565b8061118f8161254d565b915050611037565b505050565b6001600052600760209081526000805160206125e783398151915280546040805182850281018501909152818152606093909291908301828280156107ab576020028201919060005260206000209081546001600160a01b03168152600190910190602001808311610f12575050505050905090565b6000818152600e60205260409020600101546001600160a01b0316331461123857600080fd5b6000908152600e60205260409020600601805461ff0019169055565b336000908152601260209081526040918290208054835181840281018401909452808452606093928301828280156107ab5760200282019190600052602060002090815481526020019060010190808311610797575050505050905090565b60066020526000908152604090208054600182015460028301805492936001600160a01b03909216926112e5906125ab565b80601f0160208091040260200160405190810160405280929190818152602001828054611311906125ab565b801561135e5780601f106113335761010080835404028352916020019161135e565b820191906000526020600020905b81548152906001019060200180831161134157829003601f168201915b505050505090806003015490806004018054611379906125ab565b80601f01602080910402602001604051908101604052809291908181526020018280546113a5906125ab565b80156113f25780601f106113c7576101008083540402835291602001916113f2565b820191906000526020600020905b8154815290600101906020018083116113d557829003601f168201915b5050505050905085565b6000818152600e60205260409020600101546001600160a01b0316331461142257600080fd5b6000908152600e60205260409020600601805461ff001916610100179055565b6001600160a01b0381166000908152600d60209081526040918290208054835181840281018401909452808452606093928301828280156114a257602002820191906000526020600020905b81548152602001906001019080831161148e575b50505050509050919050565b3360009081526009602052604090206008015460ff1680156114e157506000818152600e602052604090206006015460ff165b6114ea57600080fd5b600480549060006114fa8361254d565b9091555050604080516080810182526004548082523360208084019182526000868152600e82528581206001908101546001600160a01b039081168789019081526060880184815296845260109094529690912085518155925190830180549187166001600160a01b03199283161790559051600280840180549290971692821683178755935194959294936001600160a81b031990911690911790600160a01b9084908111156115ad576115ad6122d5565b021790555050506000908152600e602090815260408083206001908101546001600160a01b031684526011835281842060048054825480850184559287528587209092019190915533855260128452918420915482549182018355918452919092200155565b6001600052601460209081527fb6c61a840592cc84133e4b25bd509abf4659307c57b160799b38490a5aa48f2c80546040805182850281018501909152818152606093909291908301828280156107ab5760200282019190600052602060002090815481526020019060010190808311610797575050505050905090565b600080546001600160a01b03838116911614156105b957506001919050565b6001600160a01b03811660009081526008602052604081205460ff16156105b957506001919050565b600e60205260009081526040902080546001820154600283015460038401805493946001600160a01b0390931693919291611713906125ab565b80601f016020809104026020016040519081016040528092919081815260200182805461173f906125ab565b801561178c5780601f106117615761010080835404028352916020019161178c565b820191906000526020600020905b81548152906001019060200180831161176f57829003601f168201915b5050505050908060040180546117a1906125ab565b80601f01602080910402602001604051908101604052809291908181526020018280546117cd906125ab565b801561181a5780601f106117ef5761010080835404028352916020019161181a565b820191906000526020600020905b8154815290600101906020018083116117fd57829003601f168201915b50505050509080600501805461182f906125ab565b80601f016020809104026020016040519081016040528092919081815260200182805461185b906125ab565b80156118a85780601f1061187d576101008083540402835291602001916118a8565b820191906000526020600020905b81548152906001019060200180831161188b57829003601f168201915b5050506006909301549192505060ff8082169161010090041688565b6009602052600090815260409020805481906118df906125ab565b80601f016020809104026020016040519081016040528092919081815260200182805461190b906125ab565b80156119585780601f1061192d57610100808354040283529160200191611958565b820191906000526020600020905b81548152906001019060200180831161193b57829003601f168201915b50505050509080600101805461196d906125ab565b80601f0160208091040260200160405190810160405280929190818152602001828054611999906125ab565b80156119e65780601f106119bb576101008083540402835291602001916119e6565b820191906000526020600020905b8154815290600101906020018083116119c957829003601f168201915b505050506002830154600384015460048501805494956001600160a01b039093169491935090611a15906125ab565b80601f0160208091040260200160405190810160405280929190818152602001828054611a41906125ab565b8015611a8e5780601f10611a6357610100808354040283529160200191611a8e565b820191906000526020600020905b815481529060010190602001808311611a7157829003601f168201915b505050505090806005018054611aa3906125ab565b80601f0160208091040260200160405190810160405280929190818152602001828054611acf906125ab565b8015611b1c5780601f10611af157610100808354040283529160200191611b1c565b820191906000526020600020905b815481529060010190602001808311611aff57829003601f168201915b505050505090806006018054611b31906125ab565b80601f0160208091040260200160405190810160405280929190818152602001828054611b5d906125ab565b8015611baa5780601f10611b7f57610100808354040283529160200191611baa565b820191906000526020600020905b815481529060010190602001808311611b8d57829003601f168201915b505050505090806007018054611bbf906125ab565b80601f0160208091040260200160405190810160405280929190818152602001828054611beb906125ab565b8015611c385780601f10611c0d57610100808354040283529160200191611c38565b820191906000526020600020905b815481529060010190602001808311611c1b57829003601f168201915b5050506008909301549192505060ff1689565b611c54336116b0565b611c5d57600080fd5b6000908152600e60205260409020600601805460ff19166001179055565b6000611c86336116b0565b611c8f57600080fd5b6000838152600f60209081526040808320600281018054600160a01b60ff60a01b198216179091556001600160a01b039081168552600d84528285208254815460018181018455928852958720909501949094559201549091168252812054905b81811015611e3c576000858152600f6020908152604080832080546001909101546001600160a01b03168452600d909252909120805483908110611d3657611d36612568565b90600052602060002001541415611e2a576000858152600f602090815260408083206001908101546001600160a01b03168452600d90925290912090611d7c908461257e565b81548110611d8c57611d8c612568565b6000918252602080832090910154878352600f82526040808420600101546001600160a01b03168452600d9092529120805483908110611dce57611dce612568565b6000918252602080832090910192909255868152600f82526040808220600101546001600160a01b03168252600d90925220805480611e0f57611e0f612595565b60019003818190600052602060002001600090559055611e3c565b80611e348161254d565b915050611cf0565b506000848152600f60209081526040808320548352600e82529091208451611e6c92600590920191860190611ecb565b505050600091825250600f6020908152604080832080548452600e909252808320600601805461ff0019169055600282015491548352909120600190810180546001600160a01b0319166001600160a01b039093169290921790915590565b828054611ed7906125ab565b90600052602060002090601f016020900481019282611ef95760008555611f3f565b82601f10611f1257805160ff1916838001178555611f3f565b82800160010185558215611f3f579182015b82811115611f3f578251825591602001919060010190611f24565b50611f4b929150611f4f565b5090565b5b80821115611f4b5760008155600101611f50565b80356001600160a01b03811681146105c157600080fd5b600060208284031215611f8d57600080fd5b611f9682611f64565b9392505050565b634e487b7160e01b600052604160045260246000fd5b600082601f830112611fc457600080fd5b813567ffffffffffffffff80821115611fdf57611fdf611f9d565b604051601f8301601f19908116603f0116810190828211818310171561200757612007611f9d565b8160405283815286602085880101111561202057600080fd5b836020870160208301376000602085830101528094505050505092915050565b6000806000806080858703121561205657600080fd5b61205f85611f64565b9350602085013567ffffffffffffffff8082111561207c57600080fd5b61208888838901611fb3565b94506040870135935060608701359150808211156120a557600080fd5b506120b287828801611fb3565b91505092959194509250565b6020808252825182820181905260009190848201906040850190845b818110156120f6578351835292840192918401916001016120da565b50909695505050505050565b600080600080600080600060e0888a03121561211d57600080fd5b873567ffffffffffffffff8082111561213557600080fd5b6121418b838c01611fb3565b985060208a013591508082111561215757600080fd5b6121638b838c01611fb3565b975060408a0135965060608a013591508082111561218057600080fd5b61218c8b838c01611fb3565b955060808a01359150808211156121a257600080fd5b6121ae8b838c01611fb3565b945060a08a01359150808211156121c457600080fd5b6121d08b838c01611fb3565b935060c08a01359150808211156121e657600080fd5b506121f38a828b01611fb3565b91505092959891949750929550565b60006020828403121561221457600080fd5b5035919050565b6000806000806080858703121561223157600080fd5b84359350602085013567ffffffffffffffff8082111561225057600080fd5b61225c88838901611fb3565b9450604087013591508082111561227257600080fd5b61227e88838901611fb3565b935060608701359150808211156120a557600080fd5b6020808252825182820181905260009190848201906040850190845b818110156120f65783516001600160a01b0316835292840192918401916001016122b0565b634e487b7160e01b600052602160045260246000fd5b8481526001600160a01b03848116602083015283166040820152608081016003831061232757634e487b7160e01b600052602160045260246000fd5b82606083015295945050505050565b6000815180845260005b8181101561235c57602081850181015186830182015201612340565b8181111561236e576000602083870101525b50601f01601f19169290920160200192915050565b8581526001600160a01b038516602082015260a0604082018190526000906123ad90830186612336565b84606084015282810360808401526123c58185612336565b98975050505050505050565b8881526001600160a01b0388166020820152604081018790526101006060820181905260009061240383820189612336565b905082810360808401526124178188612336565b905082810360a084015261242b8187612336565b94151560c0840152505090151560e0909101529695505050505050565b600061012080835261245c8184018d612336565b90508281036020840152612470818c612336565b6001600160a01b038b166040850152606084018a90528381036080850152905061249a8189612336565b905082810360a08401526124ae8188612336565b905082810360c08401526124c28187612336565b905082810360e08401526124d68186612336565b9150508215156101008301529a9950505050505050505050565b6000806040838503121561250357600080fd5b82359150602083013567ffffffffffffffff81111561252157600080fd5b61252d85828601611fb3565b9150509250929050565b634e487b7160e01b600052601160045260246000fd5b600060001982141561256157612561612537565b5060010190565b634e487b7160e01b600052603260045260246000fd5b60008282101561259057612590612537565b500390565b634e487b7160e01b600052603160045260246000fd5b600181811c908216806125bf57607f821691505b602082108114156125e057634e487b7160e01b600052602260045260246000fd5b5091905056feb39221ace053465ec3453ce2b36430bd138b997ecea25c1043da0c366812b828a2646970667358221220a53329ab6d6bf67eb3bbda9f2e9926fd9172fc0141154f9b851fe647e23e916664736f6c63430008090033",
  "linkReferences": {},
  "deployedLinkReferences": {}
}